{
	"data": {
		"bytecode": {
			"linkReferences": {},
			"object": "60806040523480156200001157600080fd5b506040516200257e3803806200257e833981016040819052620000349162000525565b6001600055438111620000825760405162461bcd60e51b8152602060048201526011602482015270494e56414c49445f454e445f424c4f434b60781b60448201526064015b60405180910390fd5b84831180156200009157508382115b620000df5760405162461bcd60e51b815260206004820152601760248201527f494e56414c49445f484152445f4341505f414d4f554e54000000000000000000604482015260640162000079565b600080620000f989896200038260201b620017bb1760201c565b60405163e6a4390560e01b81526001600160a01b03808416600483015280831660248301529294509092506000918c169063e6a439059060440160206040518083038186803b1580156200014c57600080fd5b505afa15801562000161573d6000803e3d6000fd5b505050506040513d601f19601f8201168201806040525081019062000187919062000500565b6001600160a01b031614620001cd5760405162461bcd60e51b815260206004820152600b60248201526a504149525f45584953545360a81b604482015260640162000079565b6040516304a12b6360e31b81526001600160a01b0383811660048301528281166024830152600091908c16906325095b189060440160206040518083038186803b1580156200021b57600080fd5b505afa15801562000230573d6000803e3d6000fd5b505050506040513d601f19601f8201168201806040525081019062000256919062000500565b6001600160a01b03161415620002af5760405162461bcd60e51b815260206004820152601460248201527f424f4f5453545241505f4e4f545f455849535453000000000000000000000000604482015260640162000079565b600380546001600160a01b03808d166001600160a01b03199283161790925560048054858416908316811790915560058054858516931692909217909155908a1614620002fd5785620002ff565b865b6006556001600160a01b03828116908a16146200031d57866200031f565b855b6007556001600160a01b03828116908a16146200033d57836200033f565b845b6008556001600160a01b03828116908a16146200035d57846200035f565b835b600955600a839055620003723362000472565b50505050505050505050620005a0565b600080826001600160a01b0316846001600160a01b03161415620003e95760405162461bcd60e51b815260206004820152601b60248201527f48656c7065723a204944454e544943414c5f4144445245535345530000000000604482015260640162000079565b826001600160a01b0316846001600160a01b0316106200040b5782846200040e565b83835b90925090506001600160a01b0382166200046b5760405162461bcd60e51b815260206004820152601460248201527f48656c7065723a205a45524f5f41444452455353000000000000000000000000604482015260640162000079565b9250929050565b6001546001600160a01b031615620004c15760405162461bcd60e51b815260206004820152601160248201527018591b5a5b88185b1c9958591e481cd95d607a1b604482015260640162000079565b600180546001600160a01b0319166001600160a01b0392909216919091179055565b80516001600160a01b0381168114620004fb57600080fd5b919050565b6000602082840312156200051357600080fd5b6200051e82620004e3565b9392505050565b600080600080600080600080610100898b0312156200054357600080fd5b6200054e89620004e3565b97506200055e60208a01620004e3565b96506200056e60408a01620004e3565b9550606089015194506080890151935060a0890151925060c0890151915060e089015190509295985092959890939650565b611fce80620005b06000396000f3fe608060405234801561001057600080fd5b50600436106101cf5760003560e01c8063654d07a211610104578063c45a0155116100a2578063d32339a511610071578063d32339a5146103a7578063f2e99ff6146103b0578063f851a440146103b8578063fc1466e6146103cb57600080fd5b8063c45a015514610365578063c713aa9414610378578063cd3ec1d61461038b578063d21220a71461039457600080fd5b806396de7aa0116100de57806396de7aa014610323578063a581d64914610336578063ba9a7a5614610349578063c2ab20411461035257600080fd5b8063654d07a2146102f457806382b1c48d146102fd57806392ea19911461031057600080fd5b80633f0232301161017157806350e0f5b71161014b57806350e0f5b714610280578063590e1ae3146102895780635e8c2c18146102915780636386c1c71461029957600080fd5b80633f0232301461025d5780634b7e9963146102655780634e71d92d1461027857600080fd5b806330ab8ab9116101ad57806330ab8ab91461023057806335c4b49e1461023957806335c7e925146102425780633accfa6c1461024a57600080fd5b80630dfe1681146101d45780631931cf0e146102045780632ed8c5801461021b575b600080fd5b6004546101e7906001600160a01b031681565b6040516001600160a01b0390911681526020015b60405180910390f35b61020d60075481565b6040519081526020016101fb565b61022e610229366004611e0a565b6103de565b005b61020d60095481565b61020d600c5481565b61020d610477565b6002546101e7906001600160a01b031681565b61022e6104b9565b61022e610273366004611d61565b610569565b61022e6107d9565b61020d600b5481565b61022e610acd565b61022e610c6e565b6102df6102a7366004611d20565b6001600160a01b03166000908152600d6020908152604091829020825180840190935280548084526001909101549290910182905291565b604080519283526020830191909152016101fb565b61020d60085481565b61020d61030b366004611d20565b610f6e565b61022e61031e366004611da2565b6110a2565b61022e610331366004611d20565b6113a4565b61022e610344366004611e0a565b611418565b61020d6103e881565b61022e610360366004611e0a565b6114e4565b6003546101e7906001600160a01b031681565b61022e610386366004611e0a565b61156e565b61020d600a5481565b6005546101e7906001600160a01b031681565b61020d60065481565b61020d611631565b6001546101e7906001600160a01b031681565b61022e6103d9366004611e0a565b6116ee565b600a5443106104085760405162461bcd60e51b81526004016103ff90611e77565b60405180910390fd5b6001546001600160a01b031633146104325760405162461bcd60e51b81526004016103ff90611ea0565b600781905560065460408051918252602082018390527fc3a4ac962ac3e2e4575e0cbe8b94448b0ee562c95636379e269812134db8b7fe91015b60405180910390a150565b6000600b546000148061048a5750600c54155b156104955750600090565b6104b46104af600c54600b5461189c90919063ffffffff16565b611909565b905090565b6002546001600160a01b031633146105035760405162461bcd60e51b815260206004820152600d60248201526c6e6f742043616e64696461746560981b60448201526064016103ff565b6002546001546040516001600160a01b0392831692909116907f7e644d79422f17c01e4894b5f4f588d331ebfa28653d42ae832dc59e38c9798f90600090a360028054600180546001600160a01b03199081166001600160a01b03841617909155169055565b6001546001600160a01b031633146105935760405162461bcd60e51b81526004016103ff90611ea0565b6004546001600160a01b038481169116141561068a57600480546040516370a0823160e01b815230928101929092526000916001600160a01b03909116906370a082319060240160206040518083038186803b1580156105f257600080fd5b505afa158015610606573d6000803e3d6000fd5b505050506040513d601f19601f8201168201806040525081019061062a9190611e23565b600b5490915061063a8284611979565b10156106885760405162461bcd60e51b815260206004820152601a60248201527f494e53554646494349454e545f544f4b454e5f42414c414e434500000000000060448201526064016103ff565b505b6005546001600160a01b038481169116141561077c576005546040516370a0823160e01b81523060048201526000916001600160a01b0316906370a082319060240160206040518083038186803b1580156106e457600080fd5b505afa1580156106f8573d6000803e3d6000fd5b505050506040513d601f19601f8201168201806040525081019061071c9190611e23565b600c5490915061072c8284611979565b101561077a5760405162461bcd60e51b815260206004820152601a60248201527f494e53554646494349454e545f544f4b454e5f42414c414e434500000000000060448201526064016103ff565b505b6107878383836119cf565b816001600160a01b0316836001600160a01b03167f8a6c315eda8825d8ef1d7fa12189135a387f6aabdea9f7004b793532e80fc352836040516107cc91815260200190565b60405180910390a3505050565b600a5443101580156107ef5750600654600b5410155b80156107ff5750600754600c5410155b6108425760405162461bcd60e51b81526020600482015260146024820152731393d517d15391115117d0539117d0d05414115160621b60448201526064016103ff565b600354600454600554600092610868926001600160a01b03918216929082169116611b00565b90506001600160a01b0381166108b35760405162461bcd60e51b815260206004820152601060248201526f1410525497d393d517d0d4915055115160821b60448201526064016103ff565b6040516370a0823160e01b81523060048201526000906001600160a01b038316906370a082319060240160206040518083038186803b1580156108f557600080fd5b505afa158015610909573d6000803e3d6000fd5b505050506040513d601f19601f8201168201806040525081019061092d9190611e23565b116109715760405162461bcd60e51b815260206004820152601460248201527313125455525112551657d393d517d3525395115160621b60448201526064016103ff565b600260005414156109945760405162461bcd60e51b81526004016103ff90611ec3565b60026000908155338152600d6020526040902080541515806109ba575060008160010154115b6109fc5760405162461bcd60e51b8152602060048201526013602482015272125394d551919250d251539517d05353d55395606a1b60448201526064016103ff565b6000610a0733610f6e565b905060008111610a525760405162461bcd60e51b8152602060048201526016602482015275494e53554646494349454e545f4c495155494449545960501b60448201526064016103ff565b600080835560018301819055600354600454600554610a80926001600160a01b039081169281169116611b00565b9050610a8d8133846119cf565b60405182815233907f4a4c5f2dd702d2000740cccf71da029c75cf722b2cf2e3b1d50524c1820b2b829060200160405180910390a2505060016000555050565b600a544310158015610aef5750600654600b541080610aef5750600754600c54105b610b325760405162461bcd60e51b81526020600482015260146024820152731393d517d15391115117d0539117d1905253115160621b60448201526064016103ff565b60026000541415610b555760405162461bcd60e51b81526004016103ff90611ec3565b60026000908155338152600d602052604090208054151580610b7b575060008160010154115b610bbd5760405162461bcd60e51b8152602060048201526013602482015272125394d551919250d251539517d05353d55395606a1b60448201526064016103ff565b805460018201548115610bf557600b54610bd79083611979565b600b5560008355600454610bf5906001600160a01b031633846119cf565b8015610c2957600c54610c089082611979565b600c5560006001840155600554610c29906001600160a01b031633836119cf565b604080518381526020810183905233917f73f04af9dcc582a923ec15d3eea990fe34adabfff2879e28d44572e01a54abb6910160405180910390a25050600160005550565b600a544310158015610c845750600654600b5410155b8015610c945750600754600c5410155b610cd75760405162461bcd60e51b81526020600482015260146024820152731393d517d15391115117d0539117d0d05414115160621b60448201526064016103ff565b60026000541415610cfa5760405162461bcd60e51b81526004016103ff90611ec3565b60026000556001546001600160a01b03163314610d295760405162461bcd60e51b81526004016103ff90611ea0565b6003546004805460055460405163e6a4390560e01b81526001600160a01b039283169381019390935281166024830152600092169063e6a439059060440160206040518083038186803b158015610d7f57600080fd5b505afa158015610d93573d6000803e3d6000fd5b505050506040513d601f19601f82011682018060405250810190610db79190611d44565b6001600160a01b031614610dfb5760405162461bcd60e51b815260206004820152600b60248201526a504149525f45584953545360a81b60448201526064016103ff565b600354600480546005546040516364e329cb60e11b81526001600160a01b0392831693810193909352811660248301529091169063c9c6539690604401602060405180830381600087803b158015610e5257600080fd5b505af1158015610e66573d6000803e3d6000fd5b505050506040513d601f19601f82011682018060405250810190610e8a9190611d44565b50600354600454600554600092610eb1926001600160a01b03918216929082169116611b00565b600454600b54919250610ed1916001600160a01b039091169083906119cf565b600554600c54610eec916001600160a01b03169083906119cf565b6040516335313c2160e11b81523060048201526001600160a01b03821690636a62784290602401602060405180830381600087803b158015610f2d57600080fd5b505af1158015610f41573d6000803e3d6000fd5b505050506040513d601f19601f82011682018060405250810190610f659190611e23565b50506001600055565b6000600b5460001480610f815750600c54155b15610f8e57506000919050565b6001600160a01b0382166000908152600d6020908152604080832081518083019092528054808352600190910154928201839052600c549193909291610fd590600261189c565b611001610fed600b548561189c90919063ffffffff16565b600c54610ffb90879061189c565b90611b8d565b61100b9190611f12565b905060006110256002600b5461189c90919063ffffffff16565b61104b61103d600c548761189c90919063ffffffff16565b600b54610ffb90879061189c565b6110559190611f12565b905060006110666104af848461189c565b90506000611072610477565b90508061108b611084826103e8611979565b849061189c565b6110959190611f12565b9998505050505050505050565b600a5443106110c35760405162461bcd60e51b81526004016103ff90611e77565b600260005414156110e65760405162461bcd60e51b81526004016103ff90611ec3565b60026000908155806110f886866117bb565b60045491935091506001600160a01b03808416911614801561112757506005546001600160a01b038281169116145b6111635760405162461bcd60e51b815260206004820152600d60248201526c24a72b20a624a22faa27a5a2a760991b60448201526064016103ff565b6000866001600160a01b0316836001600160a01b0316146111845783611186565b845b90506000876001600160a01b0316846001600160a01b0316146111a957856111ab565b845b905060008211806111bc5750600081115b6111fe5760405162461bcd60e51b81526020600482015260136024820152721253959053125117d6915493d7d05353d55395606a1b60448201526064016103ff565b336000908152600d6020526040902082156112b057600854600b54106112575760405162461bcd60e51b815260206004820152600e60248201526d105353d553950c17d0d05414115160921b60448201526064016103ff565b6000611270600b5460085461197990919063ffffffff16565b905080841061127f5780611281565b835b600b549094506112919085611b8d565b600b5581546112a09085611b8d565b82556112ae86333087611be2565b505b811561135957600954600c54106112fa5760405162461bcd60e51b815260206004820152600e60248201526d105353d553950c57d0d05414115160921b60448201526064016103ff565b6000611313600c5460095461197990919063ffffffff16565b90508083106113225780611324565b825b600c549093506113349084611b8d565b600c5560018201546113469084611b8d565b600183015561135785333086611be2565b505b604080518481526020810184905233917f9344f1a0460e7d82a14a16b325b7b5f30a0e9aec0f2de30b9ca95066bdc0c27e910160405180910390a25050600160005550505050505050565b6001546001600160a01b031633146113ce5760405162461bcd60e51b81526004016103ff90611ea0565b600280546001600160a01b0319166001600160a01b0383169081179091556040517f8cc40b9abca4a505a92028908f9d913d621d18112c69412806506f02333f26b490600090a250565b600a5443106114395760405162461bcd60e51b81526004016103ff90611e77565b6001546001600160a01b031633146114635760405162461bcd60e51b81526004016103ff90611ea0565b60075481116114a65760405162461bcd60e51b815260206004820152600f60248201526e494e56414c49445f414d4f554e543160881b60448201526064016103ff565b600981905560085460408051918252602082018390527fdd8ec8ec954d8414eb0ac025624e54c0fe982a670e6cc4e35d33ba4a540a02ec910161046c565b600a5443106115055760405162461bcd60e51b81526004016103ff90611e77565b6001546001600160a01b0316331461152f5760405162461bcd60e51b81526004016103ff90611ea0565b60068190556007546040805183815260208101929092527fc3a4ac962ac3e2e4575e0cbe8b94448b0ee562c95636379e269812134db8b7fe910161046c565b600a54431061158f5760405162461bcd60e51b81526004016103ff90611e77565b6001546001600160a01b031633146115b95760405162461bcd60e51b81526004016103ff90611ea0565b4381116115fc5760405162461bcd60e51b8152602060048201526011602482015270494e56414c49445f454e445f424c4f434b60781b60448201526064016103ff565b600a8190556040518181527f0972575658363b3e7c472ab3a6a918726742c853b732f6a4a2763e2e3a94c9779060200161046c565b6003546004546005546000928392611659926001600160a01b03928316929182169116611b00565b90506001600160a01b03811661167157600091505090565b6040516370a0823160e01b81523060048201526001600160a01b038216906370a082319060240160206040518083038186803b1580156116b057600080fd5b505afa1580156116c4573d6000803e3d6000fd5b505050506040513d601f19601f820116820180604052508101906116e89190611e23565b91505090565b600a54431061170f5760405162461bcd60e51b81526004016103ff90611e77565b6001546001600160a01b031633146117395760405162461bcd60e51b81526004016103ff90611ea0565b600654811161177c5760405162461bcd60e51b815260206004820152600f60248201526e0494e56414c49445f414d4f554e543608c1b60448201526064016103ff565b60088190556009546040805183815260208101929092527fdd8ec8ec954d8414eb0ac025624e54c0fe982a670e6cc4e35d33ba4a540a02ec910161046c565b600080826001600160a01b0316846001600160a01b031614156118205760405162461bcd60e51b815260206004820152601b60248201527f48656c7065723a204944454e544943414c5f414444524553534553000000000060448201526064016103ff565b826001600160a01b0316846001600160a01b031610611840578284611843565b83835b90925090506001600160a01b0382166118955760405162461bcd60e51b815260206004820152601460248201527348656c7065723a205a45524f5f4144445245535360601b60448201526064016103ff565b9250929050565b60008115806118c0575082826118b28183611f34565b92506118be9083611f12565b145b6119035760405162461bcd60e51b815260206004820152601460248201527364732d6d6174682d6d756c2d6f766572666c6f7760601b60448201526064016103ff565b92915050565b6000600382111561196a5750806000611923600283611f12565b61192e906001611efa565b90505b81811015611964579050806002816119498186611f12565b6119539190611efa565b61195d9190611f12565b9050611931565b50919050565b8115611974575060015b919050565b6000826119868382611f53565b91508111156119035760405162461bcd60e51b815260206004820152601560248201527464732d6d6174682d7375622d756e646572666c6f7760581b60448201526064016103ff565b604080516001600160a01b038481166024830152604480830185905283518084039091018152606490920183526020820180516001600160e01b031663a9059cbb60e01b1790529151600092839290871691611a2b9190611e3c565b6000604051808303816000865af19150503d8060008114611a68576040519150601f19603f3d011682016040523d82523d6000602084013e611a6d565b606091505b5091509150818015611a97575080511580611a97575080806020019051810190611a979190611de8565b611af95760405162461bcd60e51b815260206004820152602d60248201527f5472616e7366657248656c7065723a3a736166655472616e736665723a20747260448201526c185b9cd9995c8819985a5b1959609a1b60648201526084016103ff565b5050505050565b60405163e6a4390560e01b81526001600160a01b03838116600483015282811660248301526000919085169063e6a439059060440160206040518083038186803b158015611b4d57600080fd5b505afa158015611b61573d6000803e3d6000fd5b505050506040513d601f19601f82011682018060405250810190611b859190611d44565b949350505050565b600082611b9a8382611efa565b91508110156119035760405162461bcd60e51b815260206004820152601460248201527364732d6d6174682d6164642d6f766572666c6f7760601b60448201526064016103ff565b604080516001600160a01b0385811660248301528481166044830152606480830185905283518084039091018152608490920183526020820180516001600160e01b03166323b872dd60e01b1790529151600092839290881691611c469190611e3c565b6000604051808303816000865af19150503d8060008114611c83576040519150601f19603f3d011682016040523d82523d6000602084013e611c88565b606091505b5091509150818015611cb2575080511580611cb2575080806020019051810190611cb29190611de8565b611d185760405162461bcd60e51b815260206004820152603160248201527f5472616e7366657248656c7065723a3a7472616e7366657246726f6d3a207472604482015270185b9cd9995c919c9bdb4819985a5b1959607a1b60648201526084016103ff565b505050505050565b600060208284031215611d3257600080fd5b8135611d3d81611f80565b9392505050565b600060208284031215611d5657600080fd5b8151611d3d81611f80565b600080600060608486031215611d7657600080fd5b8335611d8181611f80565b92506020840135611d9181611f80565b929592945050506040919091013590565b60008060008060808587031215611db857600080fd5b8435611dc381611f80565b93506020850135611dd381611f80565b93969395505050506040820135916060013590565b600060208284031215611dfa57600080fd5b81518015158114611d3d57600080fd5b600060208284031215611e1c57600080fd5b5035919050565b600060208284031215611e3557600080fd5b5051919050565b6000825160005b81811015611e5d5760208186018101518583015201611e43565b81811115611e6c576000828501525b509190910192915050565b6020808252600f908201526e1093d3d514d514905417d153911151608a1b604082015260600190565b6020808252600990820152683737ba1030b236b4b760b91b604082015260600190565b6020808252601f908201527f5265656e7472616e637947756172643a207265656e7472616e742063616c6c00604082015260600190565b60008219821115611f0d57611f0d611f6a565b500190565b600082611f2f57634e487b7160e01b600052601260045260246000fd5b500490565b6000816000190483118215151615611f4e57611f4e611f6a565b500290565b600082821015611f6557611f65611f6a565b500390565b634e487b7160e01b600052601160045260246000fd5b6001600160a01b0381168114611f9557600080fd5b5056fea2646970667358221220638b051147d4a95f8f419f944e0ba7afa2d5d4ac60c740d947e8a5dd41f7764c64736f6c63430008070033",
			"opcodes": "PUSH1 0x80 PUSH1 0x40 MSTORE CALLVALUE DUP1 ISZERO PUSH3 0x11 JUMPI PUSH1 0x0 DUP1 REVERT JUMPDEST POP PUSH1 0x40 MLOAD PUSH3 0x257E CODESIZE SUB DUP1 PUSH3 0x257E DUP4 CODECOPY DUP2 ADD PUSH1 0x40 DUP2 SWAP1 MSTORE PUSH3 0x34 SWAP2 PUSH3 0x525 JUMP JUMPDEST PUSH1 0x1 PUSH1 0x0 SSTORE NUMBER DUP2 GT PUSH3 0x82 JUMPI PUSH1 0x40 MLOAD PUSH3 0x461BCD PUSH1 0xE5 SHL DUP2 MSTORE PUSH1 0x20 PUSH1 0x4 DUP3 ADD MSTORE PUSH1 0x11 PUSH1 0x24 DUP3 ADD MSTORE PUSH17 0x494E56414C49445F454E445F424C4F434B PUSH1 0x78 SHL PUSH1 0x44 DUP3 ADD MSTORE PUSH1 0x64 ADD JUMPDEST PUSH1 0x40 MLOAD DUP1 SWAP2 SUB SWAP1 REVERT JUMPDEST DUP5 DUP4 GT DUP1 ISZERO PUSH3 0x91 JUMPI POP DUP4 DUP3 GT JUMPDEST PUSH3 0xDF JUMPI PUSH1 0x40 MLOAD PUSH3 0x461BCD PUSH1 0xE5 SHL DUP2 MSTORE PUSH1 0x20 PUSH1 0x4 DUP3 ADD MSTORE PUSH1 0x17 PUSH1 0x24 DUP3 ADD MSTORE PUSH32 0x494E56414C49445F484152445F4341505F414D4F554E54000000000000000000 PUSH1 0x44 DUP3 ADD MSTORE PUSH1 0x64 ADD PUSH3 0x79 JUMP JUMPDEST PUSH1 0x0 DUP1 PUSH3 0xF9 DUP10 DUP10 PUSH3 0x382 PUSH1 0x20 SHL PUSH3 0x17BB OR PUSH1 0x20 SHR JUMP JUMPDEST PUSH1 0x40 MLOAD PUSH4 0xE6A43905 PUSH1 0xE0 SHL DUP2 MSTORE PUSH1 0x1 PUSH1 0x1 PUSH1 0xA0 SHL SUB DUP1 DUP5 AND PUSH1 0x4 DUP4 ADD MSTORE DUP1 DUP4 AND PUSH1 0x24 DUP4 ADD MSTORE SWAP3 SWAP5 POP SWAP1 SWAP3 POP PUSH1 0x0 SWAP2 DUP13 AND SWAP1 PUSH4 0xE6A43905 SWAP1 PUSH1 0x44 ADD PUSH1 0x20 PUSH1 0x40 MLOAD DUP1 DUP4 SUB DUP2 DUP7 DUP1 EXTCODESIZE ISZERO DUP1 ISZERO PUSH3 0x14C JUMPI PUSH1 0x0 DUP1 REVERT JUMPDEST POP GAS STATICCALL ISZERO DUP1 ISZERO PUSH3 0x161 JUMPI RETURNDATASIZE PUSH1 0x0 DUP1 RETURNDATACOPY RETURNDATASIZE PUSH1 0x0 REVERT JUMPDEST POP POP POP POP PUSH1 0x40 MLOAD RETURNDATASIZE PUSH1 0x1F NOT PUSH1 0x1F DUP3 ADD AND DUP3 ADD DUP1 PUSH1 0x40 MSTORE POP DUP2 ADD SWAP1 PUSH3 0x187 SWAP2 SWAP1 PUSH3 0x500 JUMP JUMPDEST PUSH1 0x1 PUSH1 0x1 PUSH1 0xA0 SHL SUB AND EQ PUSH3 0x1CD JUMPI PUSH1 0x40 MLOAD PUSH3 0x461BCD PUSH1 0xE5 SHL DUP2 MSTORE PUSH1 0x20 PUSH1 0x4 DUP3 ADD MSTORE PUSH1 0xB PUSH1 0x24 DUP3 ADD MSTORE PUSH11 0x504149525F455849535453 PUSH1 0xA8 SHL PUSH1 0x44 DUP3 ADD MSTORE PUSH1 0x64 ADD PUSH3 0x79 JUMP JUMPDEST PUSH1 0x40 MLOAD PUSH4 0x4A12B63 PUSH1 0xE3 SHL DUP2 MSTORE PUSH1 0x1 PUSH1 0x1 PUSH1 0xA0 SHL SUB DUP4 DUP2 AND PUSH1 0x4 DUP4 ADD MSTORE DUP3 DUP2 AND PUSH1 0x24 DUP4 ADD MSTORE PUSH1 0x0 SWAP2 SWAP1 DUP13 AND SWAP1 PUSH4 0x25095B18 SWAP1 PUSH1 0x44 ADD PUSH1 0x20 PUSH1 0x40 MLOAD DUP1 DUP4 SUB DUP2 DUP7 DUP1 EXTCODESIZE ISZERO DUP1 ISZERO PUSH3 0x21B JUMPI PUSH1 0x0 DUP1 REVERT JUMPDEST POP GAS STATICCALL ISZERO DUP1 ISZERO PUSH3 0x230 JUMPI RETURNDATASIZE PUSH1 0x0 DUP1 RETURNDATACOPY RETURNDATASIZE PUSH1 0x0 REVERT JUMPDEST POP POP POP POP PUSH1 0x40 MLOAD RETURNDATASIZE PUSH1 0x1F NOT PUSH1 0x1F DUP3 ADD AND DUP3 ADD DUP1 PUSH1 0x40 MSTORE POP DUP2 ADD SWAP1 PUSH3 0x256 SWAP2 SWAP1 PUSH3 0x500 JUMP JUMPDEST PUSH1 0x1 PUSH1 0x1 PUSH1 0xA0 SHL SUB AND EQ ISZERO PUSH3 0x2AF JUMPI PUSH1 0x40 MLOAD PUSH3 0x461BCD PUSH1 0xE5 SHL DUP2 MSTORE PUSH1 0x20 PUSH1 0x4 DUP3 ADD MSTORE PUSH1 0x14 PUSH1 0x24 DUP3 ADD MSTORE PUSH32 0x424F4F5453545241505F4E4F545F455849535453000000000000000000000000 PUSH1 0x44 DUP3 ADD MSTORE PUSH1 0x64 ADD PUSH3 0x79 JUMP JUMPDEST PUSH1 0x3 DUP1 SLOAD PUSH1 0x1 PUSH1 0x1 PUSH1 0xA0 SHL SUB DUP1 DUP14 AND PUSH1 0x1 PUSH1 0x1 PUSH1 0xA0 SHL SUB NOT SWAP3 DUP4 AND OR SWAP1 SWAP3 SSTORE PUSH1 0x4 DUP1 SLOAD DUP6 DUP5 AND SWAP1 DUP4 AND DUP2 OR SWAP1 SWAP2 SSTORE PUSH1 0x5 DUP1 SLOAD DUP6 DUP6 AND SWAP4 AND SWAP3 SWAP1 SWAP3 OR SWAP1 SWAP2 SSTORE SWAP1 DUP11 AND EQ PUSH3 0x2FD JUMPI DUP6 PUSH3 0x2FF JUMP JUMPDEST DUP7 JUMPDEST PUSH1 0x6 SSTORE PUSH1 0x1 PUSH1 0x1 PUSH1 0xA0 SHL SUB DUP3 DUP2 AND SWAP1 DUP11 AND EQ PUSH3 0x31D JUMPI DUP7 PUSH3 0x31F JUMP JUMPDEST DUP6 JUMPDEST PUSH1 0x7 SSTORE PUSH1 0x1 PUSH1 0x1 PUSH1 0xA0 SHL SUB DUP3 DUP2 AND SWAP1 DUP11 AND EQ PUSH3 0x33D JUMPI DUP4 PUSH3 0x33F JUMP JUMPDEST DUP5 JUMPDEST PUSH1 0x8 SSTORE PUSH1 0x1 PUSH1 0x1 PUSH1 0xA0 SHL SUB DUP3 DUP2 AND SWAP1 DUP11 AND EQ PUSH3 0x35D JUMPI DUP5 PUSH3 0x35F JUMP JUMPDEST DUP4 JUMPDEST PUSH1 0x9 SSTORE PUSH1 0xA DUP4 SWAP1 SSTORE PUSH3 0x372 CALLER PUSH3 0x472 JUMP JUMPDEST POP POP POP POP POP POP POP POP POP POP PUSH3 0x5A0 JUMP JUMPDEST PUSH1 0x0 DUP1 DUP3 PUSH1 0x1 PUSH1 0x1 PUSH1 0xA0 SHL SUB AND DUP5 PUSH1 0x1 PUSH1 0x1 PUSH1 0xA0 SHL SUB AND EQ ISZERO PUSH3 0x3E9 JUMPI PUSH1 0x40 MLOAD PUSH3 0x461BCD PUSH1 0xE5 SHL DUP2 MSTORE PUSH1 0x20 PUSH1 0x4 DUP3 ADD MSTORE PUSH1 0x1B PUSH1 0x24 DUP3 ADD MSTORE PUSH32 0x48656C7065723A204944454E544943414C5F4144445245535345530000000000 PUSH1 0x44 DUP3 ADD MSTORE PUSH1 0x64 ADD PUSH3 0x79 JUMP JUMPDEST DUP3 PUSH1 0x1 PUSH1 0x1 PUSH1 0xA0 SHL SUB AND DUP5 PUSH1 0x1 PUSH1 0x1 PUSH1 0xA0 SHL SUB AND LT PUSH3 0x40B JUMPI DUP3 DUP5 PUSH3 0x40E JUMP JUMPDEST DUP4 DUP4 JUMPDEST SWAP1 SWAP3 POP SWAP1 POP PUSH1 0x1 PUSH1 0x1 PUSH1 0xA0 SHL SUB DUP3 AND PUSH3 0x46B JUMPI PUSH1 0x40 MLOAD PUSH3 0x461BCD PUSH1 0xE5 SHL DUP2 MSTORE PUSH1 0x20 PUSH1 0x4 DUP3 ADD MSTORE PUSH1 0x14 PUSH1 0x24 DUP3 ADD MSTORE PUSH32 0x48656C7065723A205A45524F5F41444452455353000000000000000000000000 PUSH1 0x44 DUP3 ADD MSTORE PUSH1 0x64 ADD PUSH3 0x79 JUMP JUMPDEST SWAP3 POP SWAP3 SWAP1 POP JUMP JUMPDEST PUSH1 0x1 SLOAD PUSH1 0x1 PUSH1 0x1 PUSH1 0xA0 SHL SUB AND ISZERO PUSH3 0x4C1 JUMPI PUSH1 0x40 MLOAD PUSH3 0x461BCD PUSH1 0xE5 SHL DUP2 MSTORE PUSH1 0x20 PUSH1 0x4 DUP3 ADD MSTORE PUSH1 0x11 PUSH1 0x24 DUP3 ADD MSTORE PUSH17 0x18591B5A5B88185B1C9958591E481CD95D PUSH1 0x7A SHL PUSH1 0x44 DUP3 ADD MSTORE PUSH1 0x64 ADD PUSH3 0x79 JUMP JUMPDEST PUSH1 0x1 DUP1 SLOAD PUSH1 0x1 PUSH1 0x1 PUSH1 0xA0 SHL SUB NOT AND PUSH1 0x1 PUSH1 0x1 PUSH1 0xA0 SHL SUB SWAP3 SWAP1 SWAP3 AND SWAP2 SWAP1 SWAP2 OR SWAP1 SSTORE JUMP JUMPDEST DUP1 MLOAD PUSH1 0x1 PUSH1 0x1 PUSH1 0xA0 SHL SUB DUP2 AND DUP2 EQ PUSH3 0x4FB JUMPI PUSH1 0x0 DUP1 REVERT JUMPDEST SWAP2 SWAP1 POP JUMP JUMPDEST PUSH1 0x0 PUSH1 0x20 DUP3 DUP5 SUB SLT ISZERO PUSH3 0x513 JUMPI PUSH1 0x0 DUP1 REVERT JUMPDEST PUSH3 0x51E DUP3 PUSH3 0x4E3 JUMP JUMPDEST SWAP4 SWAP3 POP POP POP JUMP JUMPDEST PUSH1 0x0 DUP1 PUSH1 0x0 DUP1 PUSH1 0x0 DUP1 PUSH1 0x0 DUP1 PUSH2 0x100 DUP10 DUP12 SUB SLT ISZERO PUSH3 0x543 JUMPI PUSH1 0x0 DUP1 REVERT JUMPDEST PUSH3 0x54E DUP10 PUSH3 0x4E3 JUMP JUMPDEST SWAP8 POP PUSH3 0x55E PUSH1 0x20 DUP11 ADD PUSH3 0x4E3 JUMP JUMPDEST SWAP7 POP PUSH3 0x56E PUSH1 0x40 DUP11 ADD PUSH3 0x4E3 JUMP JUMPDEST SWAP6 POP PUSH1 0x60 DUP10 ADD MLOAD SWAP5 POP PUSH1 0x80 DUP10 ADD MLOAD SWAP4 POP PUSH1 0xA0 DUP10 ADD MLOAD SWAP3 POP PUSH1 0xC0 DUP10 ADD MLOAD SWAP2 POP PUSH1 0xE0 DUP10 ADD MLOAD SWAP1 POP SWAP3 SWAP6 SWAP9 POP SWAP3 SWAP6 SWAP9 SWAP1 SWAP4 SWAP7 POP JUMP JUMPDEST PUSH2 0x1FCE DUP1 PUSH3 0x5B0 PUSH1 0x0 CODECOPY PUSH1 0x0 RETURN INVALID PUSH1 0x80 PUSH1 0x40 MSTORE CALLVALUE DUP1 ISZERO PUSH2 0x10 JUMPI PUSH1 0x0 DUP1 REVERT JUMPDEST POP PUSH1 0x4 CALLDATASIZE LT PUSH2 0x1CF JUMPI PUSH1 0x0 CALLDATALOAD PUSH1 0xE0 SHR DUP1 PUSH4 0x654D07A2 GT PUSH2 0x104 JUMPI DUP1 PUSH4 0xC45A0155 GT PUSH2 0xA2 JUMPI DUP1 PUSH4 0xD32339A5 GT PUSH2 0x71 JUMPI DUP1 PUSH4 0xD32339A5 EQ PUSH2 0x3A7 JUMPI DUP1 PUSH4 0xF2E99FF6 EQ PUSH2 0x3B0 JUMPI DUP1 PUSH4 0xF851A440 EQ PUSH2 0x3B8 JUMPI DUP1 PUSH4 0xFC1466E6 EQ PUSH2 0x3CB JUMPI PUSH1 0x0 DUP1 REVERT JUMPDEST DUP1 PUSH4 0xC45A0155 EQ PUSH2 0x365 JUMPI DUP1 PUSH4 0xC713AA94 EQ PUSH2 0x378 JUMPI DUP1 PUSH4 0xCD3EC1D6 EQ PUSH2 0x38B JUMPI DUP1 PUSH4 0xD21220A7 EQ PUSH2 0x394 JUMPI PUSH1 0x0 DUP1 REVERT JUMPDEST DUP1 PUSH4 0x96DE7AA0 GT PUSH2 0xDE JUMPI DUP1 PUSH4 0x96DE7AA0 EQ PUSH2 0x323 JUMPI DUP1 PUSH4 0xA581D649 EQ PUSH2 0x336 JUMPI DUP1 PUSH4 0xBA9A7A56 EQ PUSH2 0x349 JUMPI DUP1 PUSH4 0xC2AB2041 EQ PUSH2 0x352 JUMPI PUSH1 0x0 DUP1 REVERT JUMPDEST DUP1 PUSH4 0x654D07A2 EQ PUSH2 0x2F4 JUMPI DUP1 PUSH4 0x82B1C48D EQ PUSH2 0x2FD JUMPI DUP1 PUSH4 0x92EA1991 EQ PUSH2 0x310 JUMPI PUSH1 0x0 DUP1 REVERT JUMPDEST DUP1 PUSH4 0x3F023230 GT PUSH2 0x171 JUMPI DUP1 PUSH4 0x50E0F5B7 GT PUSH2 0x14B JUMPI DUP1 PUSH4 0x50E0F5B7 EQ PUSH2 0x280 JUMPI DUP1 PUSH4 0x590E1AE3 EQ PUSH2 0x289 JUMPI DUP1 PUSH4 0x5E8C2C18 EQ PUSH2 0x291 JUMPI DUP1 PUSH4 0x6386C1C7 EQ PUSH2 0x299 JUMPI PUSH1 0x0 DUP1 REVERT JUMPDEST DUP1 PUSH4 0x3F023230 EQ PUSH2 0x25D JUMPI DUP1 PUSH4 0x4B7E9963 EQ PUSH2 0x265 JUMPI DUP1 PUSH4 0x4E71D92D EQ PUSH2 0x278 JUMPI PUSH1 0x0 DUP1 REVERT JUMPDEST DUP1 PUSH4 0x30AB8AB9 GT PUSH2 0x1AD JUMPI DUP1 PUSH4 0x30AB8AB9 EQ PUSH2 0x230 JUMPI DUP1 PUSH4 0x35C4B49E EQ PUSH2 0x239 JUMPI DUP1 PUSH4 0x35C7E925 EQ PUSH2 0x242 JUMPI DUP1 PUSH4 0x3ACCFA6C EQ PUSH2 0x24A JUMPI PUSH1 0x0 DUP1 REVERT JUMPDEST DUP1 PUSH4 0xDFE1681 EQ PUSH2 0x1D4 JUMPI DUP1 PUSH4 0x1931CF0E EQ PUSH2 0x204 JUMPI DUP1 PUSH4 0x2ED8C580 EQ PUSH2 0x21B JUMPI JUMPDEST PUSH1 0x0 DUP1 REVERT JUMPDEST PUSH1 0x4 SLOAD PUSH2 0x1E7 SWAP1 PUSH1 0x1 PUSH1 0x1 PUSH1 0xA0 SHL SUB AND DUP2 JUMP JUMPDEST PUSH1 0x40 MLOAD PUSH1 0x1 PUSH1 0x1 PUSH1 0xA0 SHL SUB SWAP1 SWAP2 AND DUP2 MSTORE PUSH1 0x20 ADD JUMPDEST PUSH1 0x40 MLOAD DUP1 SWAP2 SUB SWAP1 RETURN JUMPDEST PUSH2 0x20D PUSH1 0x7 SLOAD DUP2 JUMP JUMPDEST PUSH1 0x40 MLOAD SWAP1 DUP2 MSTORE PUSH1 0x20 ADD PUSH2 0x1FB JUMP JUMPDEST PUSH2 0x22E PUSH2 0x229 CALLDATASIZE PUSH1 0x4 PUSH2 0x1E0A JUMP JUMPDEST PUSH2 0x3DE JUMP JUMPDEST STOP JUMPDEST PUSH2 0x20D PUSH1 0x9 SLOAD DUP2 JUMP JUMPDEST PUSH2 0x20D PUSH1 0xC SLOAD DUP2 JUMP JUMPDEST PUSH2 0x20D PUSH2 0x477 JUMP JUMPDEST PUSH1 0x2 SLOAD PUSH2 0x1E7 SWAP1 PUSH1 0x1 PUSH1 0x1 PUSH1 0xA0 SHL SUB AND DUP2 JUMP JUMPDEST PUSH2 0x22E PUSH2 0x4B9 JUMP JUMPDEST PUSH2 0x22E PUSH2 0x273 CALLDATASIZE PUSH1 0x4 PUSH2 0x1D61 JUMP JUMPDEST PUSH2 0x569 JUMP JUMPDEST PUSH2 0x22E PUSH2 0x7D9 JUMP JUMPDEST PUSH2 0x20D PUSH1 0xB SLOAD DUP2 JUMP JUMPDEST PUSH2 0x22E PUSH2 0xACD JUMP JUMPDEST PUSH2 0x22E PUSH2 0xC6E JUMP JUMPDEST PUSH2 0x2DF PUSH2 0x2A7 CALLDATASIZE PUSH1 0x4 PUSH2 0x1D20 JUMP JUMPDEST PUSH1 0x1 PUSH1 0x1 PUSH1 0xA0 SHL SUB AND PUSH1 0x0 SWAP1 DUP2 MSTORE PUSH1 0xD PUSH1 0x20 SWAP1 DUP2 MSTORE PUSH1 0x40 SWAP2 DUP3 SWAP1 KECCAK256 DUP3 MLOAD DUP1 DUP5 ADD SWAP1 SWAP4 MSTORE DUP1 SLOAD DUP1 DUP5 MSTORE PUSH1 0x1 SWAP1 SWAP2 ADD SLOAD SWAP3 SWAP1 SWAP2 ADD DUP3 SWAP1 MSTORE SWAP2 JUMP JUMPDEST PUSH1 0x40 DUP1 MLOAD SWAP3 DUP4 MSTORE PUSH1 0x20 DUP4 ADD SWAP2 SWAP1 SWAP2 MSTORE ADD PUSH2 0x1FB JUMP JUMPDEST PUSH2 0x20D PUSH1 0x8 SLOAD DUP2 JUMP JUMPDEST PUSH2 0x20D PUSH2 0x30B CALLDATASIZE PUSH1 0x4 PUSH2 0x1D20 JUMP JUMPDEST PUSH2 0xF6E JUMP JUMPDEST PUSH2 0x22E PUSH2 0x31E CALLDATASIZE PUSH1 0x4 PUSH2 0x1DA2 JUMP JUMPDEST PUSH2 0x10A2 JUMP JUMPDEST PUSH2 0x22E PUSH2 0x331 CALLDATASIZE PUSH1 0x4 PUSH2 0x1D20 JUMP JUMPDEST PUSH2 0x13A4 JUMP JUMPDEST PUSH2 0x22E PUSH2 0x344 CALLDATASIZE PUSH1 0x4 PUSH2 0x1E0A JUMP JUMPDEST PUSH2 0x1418 JUMP JUMPDEST PUSH2 0x20D PUSH2 0x3E8 DUP2 JUMP JUMPDEST PUSH2 0x22E PUSH2 0x360 CALLDATASIZE PUSH1 0x4 PUSH2 0x1E0A JUMP JUMPDEST PUSH2 0x14E4 JUMP JUMPDEST PUSH1 0x3 SLOAD PUSH2 0x1E7 SWAP1 PUSH1 0x1 PUSH1 0x1 PUSH1 0xA0 SHL SUB AND DUP2 JUMP JUMPDEST PUSH2 0x22E PUSH2 0x386 CALLDATASIZE PUSH1 0x4 PUSH2 0x1E0A JUMP JUMPDEST PUSH2 0x156E JUMP JUMPDEST PUSH2 0x20D PUSH1 0xA SLOAD DUP2 JUMP JUMPDEST PUSH1 0x5 SLOAD PUSH2 0x1E7 SWAP1 PUSH1 0x1 PUSH1 0x1 PUSH1 0xA0 SHL SUB AND DUP2 JUMP JUMPDEST PUSH2 0x20D PUSH1 0x6 SLOAD DUP2 JUMP JUMPDEST PUSH2 0x20D PUSH2 0x1631 JUMP JUMPDEST PUSH1 0x1 SLOAD PUSH2 0x1E7 SWAP1 PUSH1 0x1 PUSH1 0x1 PUSH1 0xA0 SHL SUB AND DUP2 JUMP JUMPDEST PUSH2 0x22E PUSH2 0x3D9 CALLDATASIZE PUSH1 0x4 PUSH2 0x1E0A JUMP JUMPDEST PUSH2 0x16EE JUMP JUMPDEST PUSH1 0xA SLOAD NUMBER LT PUSH2 0x408 JUMPI PUSH1 0x40 MLOAD PUSH3 0x461BCD PUSH1 0xE5 SHL DUP2 MSTORE PUSH1 0x4 ADD PUSH2 0x3FF SWAP1 PUSH2 0x1E77 JUMP JUMPDEST PUSH1 0x40 MLOAD DUP1 SWAP2 SUB SWAP1 REVERT JUMPDEST PUSH1 0x1 SLOAD PUSH1 0x1 PUSH1 0x1 PUSH1 0xA0 SHL SUB AND CALLER EQ PUSH2 0x432 JUMPI PUSH1 0x40 MLOAD PUSH3 0x461BCD PUSH1 0xE5 SHL DUP2 MSTORE PUSH1 0x4 ADD PUSH2 0x3FF SWAP1 PUSH2 0x1EA0 JUMP JUMPDEST PUSH1 0x7 DUP2 SWAP1 SSTORE PUSH1 0x6 SLOAD PUSH1 0x40 DUP1 MLOAD SWAP2 DUP3 MSTORE PUSH1 0x20 DUP3 ADD DUP4 SWAP1 MSTORE PUSH32 0xC3A4AC962AC3E2E4575E0CBE8B94448B0EE562C95636379E269812134DB8B7FE SWAP2 ADD JUMPDEST PUSH1 0x40 MLOAD DUP1 SWAP2 SUB SWAP1 LOG1 POP JUMP JUMPDEST PUSH1 0x0 PUSH1 0xB SLOAD PUSH1 0x0 EQ DUP1 PUSH2 0x48A JUMPI POP PUSH1 0xC SLOAD ISZERO JUMPDEST ISZERO PUSH2 0x495 JUMPI POP PUSH1 0x0 SWAP1 JUMP JUMPDEST PUSH2 0x4B4 PUSH2 0x4AF PUSH1 0xC SLOAD PUSH1 0xB SLOAD PUSH2 0x189C SWAP1 SWAP2 SWAP1 PUSH4 0xFFFFFFFF AND JUMP JUMPDEST PUSH2 0x1909 JUMP JUMPDEST SWAP1 POP SWAP1 JUMP JUMPDEST PUSH1 0x2 SLOAD PUSH1 0x1 PUSH1 0x1 PUSH1 0xA0 SHL SUB AND CALLER EQ PUSH2 0x503 JUMPI PUSH1 0x40 MLOAD PUSH3 0x461BCD PUSH1 0xE5 SHL DUP2 MSTORE PUSH1 0x20 PUSH1 0x4 DUP3 ADD MSTORE PUSH1 0xD PUSH1 0x24 DUP3 ADD MSTORE PUSH13 0x6E6F742043616E646964617465 PUSH1 0x98 SHL PUSH1 0x44 DUP3 ADD MSTORE PUSH1 0x64 ADD PUSH2 0x3FF JUMP JUMPDEST PUSH1 0x2 SLOAD PUSH1 0x1 SLOAD PUSH1 0x40 MLOAD PUSH1 0x1 PUSH1 0x1 PUSH1 0xA0 SHL SUB SWAP3 DUP4 AND SWAP3 SWAP1 SWAP2 AND SWAP1 PUSH32 0x7E644D79422F17C01E4894B5F4F588D331EBFA28653D42AE832DC59E38C9798F SWAP1 PUSH1 0x0 SWAP1 LOG3 PUSH1 0x2 DUP1 SLOAD PUSH1 0x1 DUP1 SLOAD PUSH1 0x1 PUSH1 0x1 PUSH1 0xA0 SHL SUB NOT SWAP1 DUP2 AND PUSH1 0x1 PUSH1 0x1 PUSH1 0xA0 SHL SUB DUP5 AND OR SWAP1 SWAP2 SSTORE AND SWAP1 SSTORE JUMP JUMPDEST PUSH1 0x1 SLOAD PUSH1 0x1 PUSH1 0x1 PUSH1 0xA0 SHL SUB AND CALLER EQ PUSH2 0x593 JUMPI PUSH1 0x40 MLOAD PUSH3 0x461BCD PUSH1 0xE5 SHL DUP2 MSTORE PUSH1 0x4 ADD PUSH2 0x3FF SWAP1 PUSH2 0x1EA0 JUMP JUMPDEST PUSH1 0x4 SLOAD PUSH1 0x1 PUSH1 0x1 PUSH1 0xA0 SHL SUB DUP5 DUP2 AND SWAP2 AND EQ ISZERO PUSH2 0x68A JUMPI PUSH1 0x4 DUP1 SLOAD PUSH1 0x40 MLOAD PUSH4 0x70A08231 PUSH1 0xE0 SHL DUP2 MSTORE ADDRESS SWAP3 DUP2 ADD SWAP3 SWAP1 SWAP3 MSTORE PUSH1 0x0 SWAP2 PUSH1 0x1 PUSH1 0x1 PUSH1 0xA0 SHL SUB SWAP1 SWAP2 AND SWAP1 PUSH4 0x70A08231 SWAP1 PUSH1 0x24 ADD PUSH1 0x20 PUSH1 0x40 MLOAD DUP1 DUP4 SUB DUP2 DUP7 DUP1 EXTCODESIZE ISZERO DUP1 ISZERO PUSH2 0x5F2 JUMPI PUSH1 0x0 DUP1 REVERT JUMPDEST POP GAS STATICCALL ISZERO DUP1 ISZERO PUSH2 0x606 JUMPI RETURNDATASIZE PUSH1 0x0 DUP1 RETURNDATACOPY RETURNDATASIZE PUSH1 0x0 REVERT JUMPDEST POP POP POP POP PUSH1 0x40 MLOAD RETURNDATASIZE PUSH1 0x1F NOT PUSH1 0x1F DUP3 ADD AND DUP3 ADD DUP1 PUSH1 0x40 MSTORE POP DUP2 ADD SWAP1 PUSH2 0x62A SWAP2 SWAP1 PUSH2 0x1E23 JUMP JUMPDEST PUSH1 0xB SLOAD SWAP1 SWAP2 POP PUSH2 0x63A DUP3 DUP5 PUSH2 0x1979 JUMP JUMPDEST LT ISZERO PUSH2 0x688 JUMPI PUSH1 0x40 MLOAD PUSH3 0x461BCD PUSH1 0xE5 SHL DUP2 MSTORE PUSH1 0x20 PUSH1 0x4 DUP3 ADD MSTORE PUSH1 0x1A PUSH1 0x24 DUP3 ADD MSTORE PUSH32 0x494E53554646494349454E545F544F4B454E5F42414C414E4345000000000000 PUSH1 0x44 DUP3 ADD MSTORE PUSH1 0x64 ADD PUSH2 0x3FF JUMP JUMPDEST POP JUMPDEST PUSH1 0x5 SLOAD PUSH1 0x1 PUSH1 0x1 PUSH1 0xA0 SHL SUB DUP5 DUP2 AND SWAP2 AND EQ ISZERO PUSH2 0x77C JUMPI PUSH1 0x5 SLOAD PUSH1 0x40 MLOAD PUSH4 0x70A08231 PUSH1 0xE0 SHL DUP2 MSTORE ADDRESS PUSH1 0x4 DUP3 ADD MSTORE PUSH1 0x0 SWAP2 PUSH1 0x1 PUSH1 0x1 PUSH1 0xA0 SHL SUB AND SWAP1 PUSH4 0x70A08231 SWAP1 PUSH1 0x24 ADD PUSH1 0x20 PUSH1 0x40 MLOAD DUP1 DUP4 SUB DUP2 DUP7 DUP1 EXTCODESIZE ISZERO DUP1 ISZERO PUSH2 0x6E4 JUMPI PUSH1 0x0 DUP1 REVERT JUMPDEST POP GAS STATICCALL ISZERO DUP1 ISZERO PUSH2 0x6F8 JUMPI RETURNDATASIZE PUSH1 0x0 DUP1 RETURNDATACOPY RETURNDATASIZE PUSH1 0x0 REVERT JUMPDEST POP POP POP POP PUSH1 0x40 MLOAD RETURNDATASIZE PUSH1 0x1F NOT PUSH1 0x1F DUP3 ADD AND DUP3 ADD DUP1 PUSH1 0x40 MSTORE POP DUP2 ADD SWAP1 PUSH2 0x71C SWAP2 SWAP1 PUSH2 0x1E23 JUMP JUMPDEST PUSH1 0xC SLOAD SWAP1 SWAP2 POP PUSH2 0x72C DUP3 DUP5 PUSH2 0x1979 JUMP JUMPDEST LT ISZERO PUSH2 0x77A JUMPI PUSH1 0x40 MLOAD PUSH3 0x461BCD PUSH1 0xE5 SHL DUP2 MSTORE PUSH1 0x20 PUSH1 0x4 DUP3 ADD MSTORE PUSH1 0x1A PUSH1 0x24 DUP3 ADD MSTORE PUSH32 0x494E53554646494349454E545F544F4B454E5F42414C414E4345000000000000 PUSH1 0x44 DUP3 ADD MSTORE PUSH1 0x64 ADD PUSH2 0x3FF JUMP JUMPDEST POP JUMPDEST PUSH2 0x787 DUP4 DUP4 DUP4 PUSH2 0x19CF JUMP JUMPDEST DUP2 PUSH1 0x1 PUSH1 0x1 PUSH1 0xA0 SHL SUB AND DUP4 PUSH1 0x1 PUSH1 0x1 PUSH1 0xA0 SHL SUB AND PUSH32 0x8A6C315EDA8825D8EF1D7FA12189135A387F6AABDEA9F7004B793532E80FC352 DUP4 PUSH1 0x40 MLOAD PUSH2 0x7CC SWAP2 DUP2 MSTORE PUSH1 0x20 ADD SWAP1 JUMP JUMPDEST PUSH1 0x40 MLOAD DUP1 SWAP2 SUB SWAP1 LOG3 POP POP POP JUMP JUMPDEST PUSH1 0xA SLOAD NUMBER LT ISZERO DUP1 ISZERO PUSH2 0x7EF JUMPI POP PUSH1 0x6 SLOAD PUSH1 0xB SLOAD LT ISZERO JUMPDEST DUP1 ISZERO PUSH2 0x7FF JUMPI POP PUSH1 0x7 SLOAD PUSH1 0xC SLOAD LT ISZERO JUMPDEST PUSH2 0x842 JUMPI PUSH1 0x40 MLOAD PUSH3 0x461BCD PUSH1 0xE5 SHL DUP2 MSTORE PUSH1 0x20 PUSH1 0x4 DUP3 ADD MSTORE PUSH1 0x14 PUSH1 0x24 DUP3 ADD MSTORE PUSH20 0x1393D517D15391115117D0539117D0D054141151 PUSH1 0x62 SHL PUSH1 0x44 DUP3 ADD MSTORE PUSH1 0x64 ADD PUSH2 0x3FF JUMP JUMPDEST PUSH1 0x3 SLOAD PUSH1 0x4 SLOAD PUSH1 0x5 SLOAD PUSH1 0x0 SWAP3 PUSH2 0x868 SWAP3 PUSH1 0x1 PUSH1 0x1 PUSH1 0xA0 SHL SUB SWAP2 DUP3 AND SWAP3 SWAP1 DUP3 AND SWAP2 AND PUSH2 0x1B00 JUMP JUMPDEST SWAP1 POP PUSH1 0x1 PUSH1 0x1 PUSH1 0xA0 SHL SUB DUP2 AND PUSH2 0x8B3 JUMPI PUSH1 0x40 MLOAD PUSH3 0x461BCD PUSH1 0xE5 SHL DUP2 MSTORE PUSH1 0x20 PUSH1 0x4 DUP3 ADD MSTORE PUSH1 0x10 PUSH1 0x24 DUP3 ADD MSTORE PUSH16 0x1410525497D393D517D0D49150551151 PUSH1 0x82 SHL PUSH1 0x44 DUP3 ADD MSTORE PUSH1 0x64 ADD PUSH2 0x3FF JUMP JUMPDEST PUSH1 0x40 MLOAD PUSH4 0x70A08231 PUSH1 0xE0 SHL DUP2 MSTORE ADDRESS PUSH1 0x4 DUP3 ADD MSTORE PUSH1 0x0 SWAP1 PUSH1 0x1 PUSH1 0x1 PUSH1 0xA0 SHL SUB DUP4 AND SWAP1 PUSH4 0x70A08231 SWAP1 PUSH1 0x24 ADD PUSH1 0x20 PUSH1 0x40 MLOAD DUP1 DUP4 SUB DUP2 DUP7 DUP1 EXTCODESIZE ISZERO DUP1 ISZERO PUSH2 0x8F5 JUMPI PUSH1 0x0 DUP1 REVERT JUMPDEST POP GAS STATICCALL ISZERO DUP1 ISZERO PUSH2 0x909 JUMPI RETURNDATASIZE PUSH1 0x0 DUP1 RETURNDATACOPY RETURNDATASIZE PUSH1 0x0 REVERT JUMPDEST POP POP POP POP PUSH1 0x40 MLOAD RETURNDATASIZE PUSH1 0x1F NOT PUSH1 0x1F DUP3 ADD AND DUP3 ADD DUP1 PUSH1 0x40 MSTORE POP DUP2 ADD SWAP1 PUSH2 0x92D SWAP2 SWAP1 PUSH2 0x1E23 JUMP JUMPDEST GT PUSH2 0x971 JUMPI PUSH1 0x40 MLOAD PUSH3 0x461BCD PUSH1 0xE5 SHL DUP2 MSTORE PUSH1 0x20 PUSH1 0x4 DUP3 ADD MSTORE PUSH1 0x14 PUSH1 0x24 DUP3 ADD MSTORE PUSH20 0x13125455525112551657D393D517D35253951151 PUSH1 0x62 SHL PUSH1 0x44 DUP3 ADD MSTORE PUSH1 0x64 ADD PUSH2 0x3FF JUMP JUMPDEST PUSH1 0x2 PUSH1 0x0 SLOAD EQ ISZERO PUSH2 0x994 JUMPI PUSH1 0x40 MLOAD PUSH3 0x461BCD PUSH1 0xE5 SHL DUP2 MSTORE PUSH1 0x4 ADD PUSH2 0x3FF SWAP1 PUSH2 0x1EC3 JUMP JUMPDEST PUSH1 0x2 PUSH1 0x0 SWAP1 DUP2 SSTORE CALLER DUP2 MSTORE PUSH1 0xD PUSH1 0x20 MSTORE PUSH1 0x40 SWAP1 KECCAK256 DUP1 SLOAD ISZERO ISZERO DUP1 PUSH2 0x9BA JUMPI POP PUSH1 0x0 DUP2 PUSH1 0x1 ADD SLOAD GT JUMPDEST PUSH2 0x9FC JUMPI PUSH1 0x40 MLOAD PUSH3 0x461BCD PUSH1 0xE5 SHL DUP2 MSTORE PUSH1 0x20 PUSH1 0x4 DUP3 ADD MSTORE PUSH1 0x13 PUSH1 0x24 DUP3 ADD MSTORE PUSH19 0x125394D551919250D251539517D05353D55395 PUSH1 0x6A SHL PUSH1 0x44 DUP3 ADD MSTORE PUSH1 0x64 ADD PUSH2 0x3FF JUMP JUMPDEST PUSH1 0x0 PUSH2 0xA07 CALLER PUSH2 0xF6E JUMP JUMPDEST SWAP1 POP PUSH1 0x0 DUP2 GT PUSH2 0xA52 JUMPI PUSH1 0x40 MLOAD PUSH3 0x461BCD PUSH1 0xE5 SHL DUP2 MSTORE PUSH1 0x20 PUSH1 0x4 DUP3 ADD MSTORE PUSH1 0x16 PUSH1 0x24 DUP3 ADD MSTORE PUSH22 0x494E53554646494349454E545F4C4951554944495459 PUSH1 0x50 SHL PUSH1 0x44 DUP3 ADD MSTORE PUSH1 0x64 ADD PUSH2 0x3FF JUMP JUMPDEST PUSH1 0x0 DUP1 DUP4 SSTORE PUSH1 0x1 DUP4 ADD DUP2 SWAP1 SSTORE PUSH1 0x3 SLOAD PUSH1 0x4 SLOAD PUSH1 0x5 SLOAD PUSH2 0xA80 SWAP3 PUSH1 0x1 PUSH1 0x1 PUSH1 0xA0 SHL SUB SWAP1 DUP2 AND SWAP3 DUP2 AND SWAP2 AND PUSH2 0x1B00 JUMP JUMPDEST SWAP1 POP PUSH2 0xA8D DUP2 CALLER DUP5 PUSH2 0x19CF JUMP JUMPDEST PUSH1 0x40 MLOAD DUP3 DUP2 MSTORE CALLER SWAP1 PUSH32 0x4A4C5F2DD702D2000740CCCF71DA029C75CF722B2CF2E3B1D50524C1820B2B82 SWAP1 PUSH1 0x20 ADD PUSH1 0x40 MLOAD DUP1 SWAP2 SUB SWAP1 LOG2 POP POP PUSH1 0x1 PUSH1 0x0 SSTORE POP POP JUMP JUMPDEST PUSH1 0xA SLOAD NUMBER LT ISZERO DUP1 ISZERO PUSH2 0xAEF JUMPI POP PUSH1 0x6 SLOAD PUSH1 0xB SLOAD LT DUP1 PUSH2 0xAEF JUMPI POP PUSH1 0x7 SLOAD PUSH1 0xC SLOAD LT JUMPDEST PUSH2 0xB32 JUMPI PUSH1 0x40 MLOAD PUSH3 0x461BCD PUSH1 0xE5 SHL DUP2 MSTORE PUSH1 0x20 PUSH1 0x4 DUP3 ADD MSTORE PUSH1 0x14 PUSH1 0x24 DUP3 ADD MSTORE PUSH20 0x1393D517D15391115117D0539117D19052531151 PUSH1 0x62 SHL PUSH1 0x44 DUP3 ADD MSTORE PUSH1 0x64 ADD PUSH2 0x3FF JUMP JUMPDEST PUSH1 0x2 PUSH1 0x0 SLOAD EQ ISZERO PUSH2 0xB55 JUMPI PUSH1 0x40 MLOAD PUSH3 0x461BCD PUSH1 0xE5 SHL DUP2 MSTORE PUSH1 0x4 ADD PUSH2 0x3FF SWAP1 PUSH2 0x1EC3 JUMP JUMPDEST PUSH1 0x2 PUSH1 0x0 SWAP1 DUP2 SSTORE CALLER DUP2 MSTORE PUSH1 0xD PUSH1 0x20 MSTORE PUSH1 0x40 SWAP1 KECCAK256 DUP1 SLOAD ISZERO ISZERO DUP1 PUSH2 0xB7B JUMPI POP PUSH1 0x0 DUP2 PUSH1 0x1 ADD SLOAD GT JUMPDEST PUSH2 0xBBD JUMPI PUSH1 0x40 MLOAD PUSH3 0x461BCD PUSH1 0xE5 SHL DUP2 MSTORE PUSH1 0x20 PUSH1 0x4 DUP3 ADD MSTORE PUSH1 0x13 PUSH1 0x24 DUP3 ADD MSTORE PUSH19 0x125394D551919250D251539517D05353D55395 PUSH1 0x6A SHL PUSH1 0x44 DUP3 ADD MSTORE PUSH1 0x64 ADD PUSH2 0x3FF JUMP JUMPDEST DUP1 SLOAD PUSH1 0x1 DUP3 ADD SLOAD DUP2 ISZERO PUSH2 0xBF5 JUMPI PUSH1 0xB SLOAD PUSH2 0xBD7 SWAP1 DUP4 PUSH2 0x1979 JUMP JUMPDEST PUSH1 0xB SSTORE PUSH1 0x0 DUP4 SSTORE PUSH1 0x4 SLOAD PUSH2 0xBF5 SWAP1 PUSH1 0x1 PUSH1 0x1 PUSH1 0xA0 SHL SUB AND CALLER DUP5 PUSH2 0x19CF JUMP JUMPDEST DUP1 ISZERO PUSH2 0xC29 JUMPI PUSH1 0xC SLOAD PUSH2 0xC08 SWAP1 DUP3 PUSH2 0x1979 JUMP JUMPDEST PUSH1 0xC SSTORE PUSH1 0x0 PUSH1 0x1 DUP5 ADD SSTORE PUSH1 0x5 SLOAD PUSH2 0xC29 SWAP1 PUSH1 0x1 PUSH1 0x1 PUSH1 0xA0 SHL SUB AND CALLER DUP4 PUSH2 0x19CF JUMP JUMPDEST PUSH1 0x40 DUP1 MLOAD DUP4 DUP2 MSTORE PUSH1 0x20 DUP2 ADD DUP4 SWAP1 MSTORE CALLER SWAP2 PUSH32 0x73F04AF9DCC582A923EC15D3EEA990FE34ADABFFF2879E28D44572E01A54ABB6 SWAP2 ADD PUSH1 0x40 MLOAD DUP1 SWAP2 SUB SWAP1 LOG2 POP POP PUSH1 0x1 PUSH1 0x0 SSTORE POP JUMP JUMPDEST PUSH1 0xA SLOAD NUMBER LT ISZERO DUP1 ISZERO PUSH2 0xC84 JUMPI POP PUSH1 0x6 SLOAD PUSH1 0xB SLOAD LT ISZERO JUMPDEST DUP1 ISZERO PUSH2 0xC94 JUMPI POP PUSH1 0x7 SLOAD PUSH1 0xC SLOAD LT ISZERO JUMPDEST PUSH2 0xCD7 JUMPI PUSH1 0x40 MLOAD PUSH3 0x461BCD PUSH1 0xE5 SHL DUP2 MSTORE PUSH1 0x20 PUSH1 0x4 DUP3 ADD MSTORE PUSH1 0x14 PUSH1 0x24 DUP3 ADD MSTORE PUSH20 0x1393D517D15391115117D0539117D0D054141151 PUSH1 0x62 SHL PUSH1 0x44 DUP3 ADD MSTORE PUSH1 0x64 ADD PUSH2 0x3FF JUMP JUMPDEST PUSH1 0x2 PUSH1 0x0 SLOAD EQ ISZERO PUSH2 0xCFA JUMPI PUSH1 0x40 MLOAD PUSH3 0x461BCD PUSH1 0xE5 SHL DUP2 MSTORE PUSH1 0x4 ADD PUSH2 0x3FF SWAP1 PUSH2 0x1EC3 JUMP JUMPDEST PUSH1 0x2 PUSH1 0x0 SSTORE PUSH1 0x1 SLOAD PUSH1 0x1 PUSH1 0x1 PUSH1 0xA0 SHL SUB AND CALLER EQ PUSH2 0xD29 JUMPI PUSH1 0x40 MLOAD PUSH3 0x461BCD PUSH1 0xE5 SHL DUP2 MSTORE PUSH1 0x4 ADD PUSH2 0x3FF SWAP1 PUSH2 0x1EA0 JUMP JUMPDEST PUSH1 0x3 SLOAD PUSH1 0x4 DUP1 SLOAD PUSH1 0x5 SLOAD PUSH1 0x40 MLOAD PUSH4 0xE6A43905 PUSH1 0xE0 SHL DUP2 MSTORE PUSH1 0x1 PUSH1 0x1 PUSH1 0xA0 SHL SUB SWAP3 DUP4 AND SWAP4 DUP2 ADD SWAP4 SWAP1 SWAP4 MSTORE DUP2 AND PUSH1 0x24 DUP4 ADD MSTORE PUSH1 0x0 SWAP3 AND SWAP1 PUSH4 0xE6A43905 SWAP1 PUSH1 0x44 ADD PUSH1 0x20 PUSH1 0x40 MLOAD DUP1 DUP4 SUB DUP2 DUP7 DUP1 EXTCODESIZE ISZERO DUP1 ISZERO PUSH2 0xD7F JUMPI PUSH1 0x0 DUP1 REVERT JUMPDEST POP GAS STATICCALL ISZERO DUP1 ISZERO PUSH2 0xD93 JUMPI RETURNDATASIZE PUSH1 0x0 DUP1 RETURNDATACOPY RETURNDATASIZE PUSH1 0x0 REVERT JUMPDEST POP POP POP POP PUSH1 0x40 MLOAD RETURNDATASIZE PUSH1 0x1F NOT PUSH1 0x1F DUP3 ADD AND DUP3 ADD DUP1 PUSH1 0x40 MSTORE POP DUP2 ADD SWAP1 PUSH2 0xDB7 SWAP2 SWAP1 PUSH2 0x1D44 JUMP JUMPDEST PUSH1 0x1 PUSH1 0x1 PUSH1 0xA0 SHL SUB AND EQ PUSH2 0xDFB JUMPI PUSH1 0x40 MLOAD PUSH3 0x461BCD PUSH1 0xE5 SHL DUP2 MSTORE PUSH1 0x20 PUSH1 0x4 DUP3 ADD MSTORE PUSH1 0xB PUSH1 0x24 DUP3 ADD MSTORE PUSH11 0x504149525F455849535453 PUSH1 0xA8 SHL PUSH1 0x44 DUP3 ADD MSTORE PUSH1 0x64 ADD PUSH2 0x3FF JUMP JUMPDEST PUSH1 0x3 SLOAD PUSH1 0x4 DUP1 SLOAD PUSH1 0x5 SLOAD PUSH1 0x40 MLOAD PUSH4 0x64E329CB PUSH1 0xE1 SHL DUP2 MSTORE PUSH1 0x1 PUSH1 0x1 PUSH1 0xA0 SHL SUB SWAP3 DUP4 AND SWAP4 DUP2 ADD SWAP4 SWAP1 SWAP4 MSTORE DUP2 AND PUSH1 0x24 DUP4 ADD MSTORE SWAP1 SWAP2 AND SWAP1 PUSH4 0xC9C65396 SWAP1 PUSH1 0x44 ADD PUSH1 0x20 PUSH1 0x40 MLOAD DUP1 DUP4 SUB DUP2 PUSH1 0x0 DUP8 DUP1 EXTCODESIZE ISZERO DUP1 ISZERO PUSH2 0xE52 JUMPI PUSH1 0x0 DUP1 REVERT JUMPDEST POP GAS CALL ISZERO DUP1 ISZERO PUSH2 0xE66 JUMPI RETURNDATASIZE PUSH1 0x0 DUP1 RETURNDATACOPY RETURNDATASIZE PUSH1 0x0 REVERT JUMPDEST POP POP POP POP PUSH1 0x40 MLOAD RETURNDATASIZE PUSH1 0x1F NOT PUSH1 0x1F DUP3 ADD AND DUP3 ADD DUP1 PUSH1 0x40 MSTORE POP DUP2 ADD SWAP1 PUSH2 0xE8A SWAP2 SWAP1 PUSH2 0x1D44 JUMP JUMPDEST POP PUSH1 0x3 SLOAD PUSH1 0x4 SLOAD PUSH1 0x5 SLOAD PUSH1 0x0 SWAP3 PUSH2 0xEB1 SWAP3 PUSH1 0x1 PUSH1 0x1 PUSH1 0xA0 SHL SUB SWAP2 DUP3 AND SWAP3 SWAP1 DUP3 AND SWAP2 AND PUSH2 0x1B00 JUMP JUMPDEST PUSH1 0x4 SLOAD PUSH1 0xB SLOAD SWAP2 SWAP3 POP PUSH2 0xED1 SWAP2 PUSH1 0x1 PUSH1 0x1 PUSH1 0xA0 SHL SUB SWAP1 SWAP2 AND SWAP1 DUP4 SWAP1 PUSH2 0x19CF JUMP JUMPDEST PUSH1 0x5 SLOAD PUSH1 0xC SLOAD PUSH2 0xEEC SWAP2 PUSH1 0x1 PUSH1 0x1 PUSH1 0xA0 SHL SUB AND SWAP1 DUP4 SWAP1 PUSH2 0x19CF JUMP JUMPDEST PUSH1 0x40 MLOAD PUSH4 0x35313C21 PUSH1 0xE1 SHL DUP2 MSTORE ADDRESS PUSH1 0x4 DUP3 ADD MSTORE PUSH1 0x1 PUSH1 0x1 PUSH1 0xA0 SHL SUB DUP3 AND SWAP1 PUSH4 0x6A627842 SWAP1 PUSH1 0x24 ADD PUSH1 0x20 PUSH1 0x40 MLOAD DUP1 DUP4 SUB DUP2 PUSH1 0x0 DUP8 DUP1 EXTCODESIZE ISZERO DUP1 ISZERO PUSH2 0xF2D JUMPI PUSH1 0x0 DUP1 REVERT JUMPDEST POP GAS CALL ISZERO DUP1 ISZERO PUSH2 0xF41 JUMPI RETURNDATASIZE PUSH1 0x0 DUP1 RETURNDATACOPY RETURNDATASIZE PUSH1 0x0 REVERT JUMPDEST POP POP POP POP PUSH1 0x40 MLOAD RETURNDATASIZE PUSH1 0x1F NOT PUSH1 0x1F DUP3 ADD AND DUP3 ADD DUP1 PUSH1 0x40 MSTORE POP DUP2 ADD SWAP1 PUSH2 0xF65 SWAP2 SWAP1 PUSH2 0x1E23 JUMP JUMPDEST POP POP PUSH1 0x1 PUSH1 0x0 SSTORE JUMP JUMPDEST PUSH1 0x0 PUSH1 0xB SLOAD PUSH1 0x0 EQ DUP1 PUSH2 0xF81 JUMPI POP PUSH1 0xC SLOAD ISZERO JUMPDEST ISZERO PUSH2 0xF8E JUMPI POP PUSH1 0x0 SWAP2 SWAP1 POP JUMP JUMPDEST PUSH1 0x1 PUSH1 0x1 PUSH1 0xA0 SHL SUB DUP3 AND PUSH1 0x0 SWAP1 DUP2 MSTORE PUSH1 0xD PUSH1 0x20 SWAP1 DUP2 MSTORE PUSH1 0x40 DUP1 DUP4 KECCAK256 DUP2 MLOAD DUP1 DUP4 ADD SWAP1 SWAP3 MSTORE DUP1 SLOAD DUP1 DUP4 MSTORE PUSH1 0x1 SWAP1 SWAP2 ADD SLOAD SWAP3 DUP3 ADD DUP4 SWAP1 MSTORE PUSH1 0xC SLOAD SWAP2 SWAP4 SWAP1 SWAP3 SWAP2 PUSH2 0xFD5 SWAP1 PUSH1 0x2 PUSH2 0x189C JUMP JUMPDEST PUSH2 0x1001 PUSH2 0xFED PUSH1 0xB SLOAD DUP6 PUSH2 0x189C SWAP1 SWAP2 SWAP1 PUSH4 0xFFFFFFFF AND JUMP JUMPDEST PUSH1 0xC SLOAD PUSH2 0xFFB SWAP1 DUP8 SWAP1 PUSH2 0x189C JUMP JUMPDEST SWAP1 PUSH2 0x1B8D JUMP JUMPDEST PUSH2 0x100B SWAP2 SWAP1 PUSH2 0x1F12 JUMP JUMPDEST SWAP1 POP PUSH1 0x0 PUSH2 0x1025 PUSH1 0x2 PUSH1 0xB SLOAD PUSH2 0x189C SWAP1 SWAP2 SWAP1 PUSH4 0xFFFFFFFF AND JUMP JUMPDEST PUSH2 0x104B PUSH2 0x103D PUSH1 0xC SLOAD DUP8 PUSH2 0x189C SWAP1 SWAP2 SWAP1 PUSH4 0xFFFFFFFF AND JUMP JUMPDEST PUSH1 0xB SLOAD PUSH2 0xFFB SWAP1 DUP8 SWAP1 PUSH2 0x189C JUMP JUMPDEST PUSH2 0x1055 SWAP2 SWAP1 PUSH2 0x1F12 JUMP JUMPDEST SWAP1 POP PUSH1 0x0 PUSH2 0x1066 PUSH2 0x4AF DUP5 DUP5 PUSH2 0x189C JUMP JUMPDEST SWAP1 POP PUSH1 0x0 PUSH2 0x1072 PUSH2 0x477 JUMP JUMPDEST SWAP1 POP DUP1 PUSH2 0x108B PUSH2 0x1084 DUP3 PUSH2 0x3E8 PUSH2 0x1979 JUMP JUMPDEST DUP5 SWAP1 PUSH2 0x189C JUMP JUMPDEST PUSH2 0x1095 SWAP2 SWAP1 PUSH2 0x1F12 JUMP JUMPDEST SWAP10 SWAP9 POP POP POP POP POP POP POP POP POP JUMP JUMPDEST PUSH1 0xA SLOAD NUMBER LT PUSH2 0x10C3 JUMPI PUSH1 0x40 MLOAD PUSH3 0x461BCD PUSH1 0xE5 SHL DUP2 MSTORE PUSH1 0x4 ADD PUSH2 0x3FF SWAP1 PUSH2 0x1E77 JUMP JUMPDEST PUSH1 0x2 PUSH1 0x0 SLOAD EQ ISZERO PUSH2 0x10E6 JUMPI PUSH1 0x40 MLOAD PUSH3 0x461BCD PUSH1 0xE5 SHL DUP2 MSTORE PUSH1 0x4 ADD PUSH2 0x3FF SWAP1 PUSH2 0x1EC3 JUMP JUMPDEST PUSH1 0x2 PUSH1 0x0 SWAP1 DUP2 SSTORE DUP1 PUSH2 0x10F8 DUP7 DUP7 PUSH2 0x17BB JUMP JUMPDEST PUSH1 0x4 SLOAD SWAP2 SWAP4 POP SWAP2 POP PUSH1 0x1 PUSH1 0x1 PUSH1 0xA0 SHL SUB DUP1 DUP5 AND SWAP2 AND EQ DUP1 ISZERO PUSH2 0x1127 JUMPI POP PUSH1 0x5 SLOAD PUSH1 0x1 PUSH1 0x1 PUSH1 0xA0 SHL SUB DUP3 DUP2 AND SWAP2 AND EQ JUMPDEST PUSH2 0x1163 JUMPI PUSH1 0x40 MLOAD PUSH3 0x461BCD PUSH1 0xE5 SHL DUP2 MSTORE PUSH1 0x20 PUSH1 0x4 DUP3 ADD MSTORE PUSH1 0xD PUSH1 0x24 DUP3 ADD MSTORE PUSH13 0x24A72B20A624A22FAA27A5A2A7 PUSH1 0x99 SHL PUSH1 0x44 DUP3 ADD MSTORE PUSH1 0x64 ADD PUSH2 0x3FF JUMP JUMPDEST PUSH1 0x0 DUP7 PUSH1 0x1 PUSH1 0x1 PUSH1 0xA0 SHL SUB AND DUP4 PUSH1 0x1 PUSH1 0x1 PUSH1 0xA0 SHL SUB AND EQ PUSH2 0x1184 JUMPI DUP4 PUSH2 0x1186 JUMP JUMPDEST DUP5 JUMPDEST SWAP1 POP PUSH1 0x0 DUP8 PUSH1 0x1 PUSH1 0x1 PUSH1 0xA0 SHL SUB AND DUP5 PUSH1 0x1 PUSH1 0x1 PUSH1 0xA0 SHL SUB AND EQ PUSH2 0x11A9 JUMPI DUP6 PUSH2 0x11AB JUMP JUMPDEST DUP5 JUMPDEST SWAP1 POP PUSH1 0x0 DUP3 GT DUP1 PUSH2 0x11BC JUMPI POP PUSH1 0x0 DUP2 GT JUMPDEST PUSH2 0x11FE JUMPI PUSH1 0x40 MLOAD PUSH3 0x461BCD PUSH1 0xE5 SHL DUP2 MSTORE PUSH1 0x20 PUSH1 0x4 DUP3 ADD MSTORE PUSH1 0x13 PUSH1 0x24 DUP3 ADD MSTORE PUSH19 0x1253959053125117D6915493D7D05353D55395 PUSH1 0x6A SHL PUSH1 0x44 DUP3 ADD MSTORE PUSH1 0x64 ADD PUSH2 0x3FF JUMP JUMPDEST CALLER PUSH1 0x0 SWAP1 DUP2 MSTORE PUSH1 0xD PUSH1 0x20 MSTORE PUSH1 0x40 SWAP1 KECCAK256 DUP3 ISZERO PUSH2 0x12B0 JUMPI PUSH1 0x8 SLOAD PUSH1 0xB SLOAD LT PUSH2 0x1257 JUMPI PUSH1 0x40 MLOAD PUSH3 0x461BCD PUSH1 0xE5 SHL DUP2 MSTORE PUSH1 0x20 PUSH1 0x4 DUP3 ADD MSTORE PUSH1 0xE PUSH1 0x24 DUP3 ADD MSTORE PUSH14 0x105353D553950C17D0D054141151 PUSH1 0x92 SHL PUSH1 0x44 DUP3 ADD MSTORE PUSH1 0x64 ADD PUSH2 0x3FF JUMP JUMPDEST PUSH1 0x0 PUSH2 0x1270 PUSH1 0xB SLOAD PUSH1 0x8 SLOAD PUSH2 0x1979 SWAP1 SWAP2 SWAP1 PUSH4 0xFFFFFFFF AND JUMP JUMPDEST SWAP1 POP DUP1 DUP5 LT PUSH2 0x127F JUMPI DUP1 PUSH2 0x1281 JUMP JUMPDEST DUP4 JUMPDEST PUSH1 0xB SLOAD SWAP1 SWAP5 POP PUSH2 0x1291 SWAP1 DUP6 PUSH2 0x1B8D JUMP JUMPDEST PUSH1 0xB SSTORE DUP2 SLOAD PUSH2 0x12A0 SWAP1 DUP6 PUSH2 0x1B8D JUMP JUMPDEST DUP3 SSTORE PUSH2 0x12AE DUP7 CALLER ADDRESS DUP8 PUSH2 0x1BE2 JUMP JUMPDEST POP JUMPDEST DUP2 ISZERO PUSH2 0x1359 JUMPI PUSH1 0x9 SLOAD PUSH1 0xC SLOAD LT PUSH2 0x12FA JUMPI PUSH1 0x40 MLOAD PUSH3 0x461BCD PUSH1 0xE5 SHL DUP2 MSTORE PUSH1 0x20 PUSH1 0x4 DUP3 ADD MSTORE PUSH1 0xE PUSH1 0x24 DUP3 ADD MSTORE PUSH14 0x105353D553950C57D0D054141151 PUSH1 0x92 SHL PUSH1 0x44 DUP3 ADD MSTORE PUSH1 0x64 ADD PUSH2 0x3FF JUMP JUMPDEST PUSH1 0x0 PUSH2 0x1313 PUSH1 0xC SLOAD PUSH1 0x9 SLOAD PUSH2 0x1979 SWAP1 SWAP2 SWAP1 PUSH4 0xFFFFFFFF AND JUMP JUMPDEST SWAP1 POP DUP1 DUP4 LT PUSH2 0x1322 JUMPI DUP1 PUSH2 0x1324 JUMP JUMPDEST DUP3 JUMPDEST PUSH1 0xC SLOAD SWAP1 SWAP4 POP PUSH2 0x1334 SWAP1 DUP5 PUSH2 0x1B8D JUMP JUMPDEST PUSH1 0xC SSTORE PUSH1 0x1 DUP3 ADD SLOAD PUSH2 0x1346 SWAP1 DUP5 PUSH2 0x1B8D JUMP JUMPDEST PUSH1 0x1 DUP4 ADD SSTORE PUSH2 0x1357 DUP6 CALLER ADDRESS DUP7 PUSH2 0x1BE2 JUMP JUMPDEST POP JUMPDEST PUSH1 0x40 DUP1 MLOAD DUP5 DUP2 MSTORE PUSH1 0x20 DUP2 ADD DUP5 SWAP1 MSTORE CALLER SWAP2 PUSH32 0x9344F1A0460E7D82A14A16B325B7B5F30A0E9AEC0F2DE30B9CA95066BDC0C27E SWAP2 ADD PUSH1 0x40 MLOAD DUP1 SWAP2 SUB SWAP1 LOG2 POP POP PUSH1 0x1 PUSH1 0x0 SSTORE POP POP POP POP POP POP POP JUMP JUMPDEST PUSH1 0x1 SLOAD PUSH1 0x1 PUSH1 0x1 PUSH1 0xA0 SHL SUB AND CALLER EQ PUSH2 0x13CE JUMPI PUSH1 0x40 MLOAD PUSH3 0x461BCD PUSH1 0xE5 SHL DUP2 MSTORE PUSH1 0x4 ADD PUSH2 0x3FF SWAP1 PUSH2 0x1EA0 JUMP JUMPDEST PUSH1 0x2 DUP1 SLOAD PUSH1 0x1 PUSH1 0x1 PUSH1 0xA0 SHL SUB NOT AND PUSH1 0x1 PUSH1 0x1 PUSH1 0xA0 SHL SUB DUP4 AND SWAP1 DUP2 OR SWAP1 SWAP2 SSTORE PUSH1 0x40 MLOAD PUSH32 0x8CC40B9ABCA4A505A92028908F9D913D621D18112C69412806506F02333F26B4 SWAP1 PUSH1 0x0 SWAP1 LOG2 POP JUMP JUMPDEST PUSH1 0xA SLOAD NUMBER LT PUSH2 0x1439 JUMPI PUSH1 0x40 MLOAD PUSH3 0x461BCD PUSH1 0xE5 SHL DUP2 MSTORE PUSH1 0x4 ADD PUSH2 0x3FF SWAP1 PUSH2 0x1E77 JUMP JUMPDEST PUSH1 0x1 SLOAD PUSH1 0x1 PUSH1 0x1 PUSH1 0xA0 SHL SUB AND CALLER EQ PUSH2 0x1463 JUMPI PUSH1 0x40 MLOAD PUSH3 0x461BCD PUSH1 0xE5 SHL DUP2 MSTORE PUSH1 0x4 ADD PUSH2 0x3FF SWAP1 PUSH2 0x1EA0 JUMP JUMPDEST PUSH1 0x7 SLOAD DUP2 GT PUSH2 0x14A6 JUMPI PUSH1 0x40 MLOAD PUSH3 0x461BCD PUSH1 0xE5 SHL DUP2 MSTORE PUSH1 0x20 PUSH1 0x4 DUP3 ADD MSTORE PUSH1 0xF PUSH1 0x24 DUP3 ADD MSTORE PUSH15 0x494E56414C49445F414D4F554E5431 PUSH1 0x88 SHL PUSH1 0x44 DUP3 ADD MSTORE PUSH1 0x64 ADD PUSH2 0x3FF JUMP JUMPDEST PUSH1 0x9 DUP2 SWAP1 SSTORE PUSH1 0x8 SLOAD PUSH1 0x40 DUP1 MLOAD SWAP2 DUP3 MSTORE PUSH1 0x20 DUP3 ADD DUP4 SWAP1 MSTORE PUSH32 0xDD8EC8EC954D8414EB0AC025624E54C0FE982A670E6CC4E35D33BA4A540A02EC SWAP2 ADD PUSH2 0x46C JUMP JUMPDEST PUSH1 0xA SLOAD NUMBER LT PUSH2 0x1505 JUMPI PUSH1 0x40 MLOAD PUSH3 0x461BCD PUSH1 0xE5 SHL DUP2 MSTORE PUSH1 0x4 ADD PUSH2 0x3FF SWAP1 PUSH2 0x1E77 JUMP JUMPDEST PUSH1 0x1 SLOAD PUSH1 0x1 PUSH1 0x1 PUSH1 0xA0 SHL SUB AND CALLER EQ PUSH2 0x152F JUMPI PUSH1 0x40 MLOAD PUSH3 0x461BCD PUSH1 0xE5 SHL DUP2 MSTORE PUSH1 0x4 ADD PUSH2 0x3FF SWAP1 PUSH2 0x1EA0 JUMP JUMPDEST PUSH1 0x6 DUP2 SWAP1 SSTORE PUSH1 0x7 SLOAD PUSH1 0x40 DUP1 MLOAD DUP4 DUP2 MSTORE PUSH1 0x20 DUP2 ADD SWAP3 SWAP1 SWAP3 MSTORE PUSH32 0xC3A4AC962AC3E2E4575E0CBE8B94448B0EE562C95636379E269812134DB8B7FE SWAP2 ADD PUSH2 0x46C JUMP JUMPDEST PUSH1 0xA SLOAD NUMBER LT PUSH2 0x158F JUMPI PUSH1 0x40 MLOAD PUSH3 0x461BCD PUSH1 0xE5 SHL DUP2 MSTORE PUSH1 0x4 ADD PUSH2 0x3FF SWAP1 PUSH2 0x1E77 JUMP JUMPDEST PUSH1 0x1 SLOAD PUSH1 0x1 PUSH1 0x1 PUSH1 0xA0 SHL SUB AND CALLER EQ PUSH2 0x15B9 JUMPI PUSH1 0x40 MLOAD PUSH3 0x461BCD PUSH1 0xE5 SHL DUP2 MSTORE PUSH1 0x4 ADD PUSH2 0x3FF SWAP1 PUSH2 0x1EA0 JUMP JUMPDEST NUMBER DUP2 GT PUSH2 0x15FC JUMPI PUSH1 0x40 MLOAD PUSH3 0x461BCD PUSH1 0xE5 SHL DUP2 MSTORE PUSH1 0x20 PUSH1 0x4 DUP3 ADD MSTORE PUSH1 0x11 PUSH1 0x24 DUP3 ADD MSTORE PUSH17 0x494E56414C49445F454E445F424C4F434B PUSH1 0x78 SHL PUSH1 0x44 DUP3 ADD MSTORE PUSH1 0x64 ADD PUSH2 0x3FF JUMP JUMPDEST PUSH1 0xA DUP2 SWAP1 SSTORE PUSH1 0x40 MLOAD DUP2 DUP2 MSTORE PUSH32 0x972575658363B3E7C472AB3A6A918726742C853B732F6A4A2763E2E3A94C977 SWAP1 PUSH1 0x20 ADD PUSH2 0x46C JUMP JUMPDEST PUSH1 0x3 SLOAD PUSH1 0x4 SLOAD PUSH1 0x5 SLOAD PUSH1 0x0 SWAP3 DUP4 SWAP3 PUSH2 0x1659 SWAP3 PUSH1 0x1 PUSH1 0x1 PUSH1 0xA0 SHL SUB SWAP3 DUP4 AND SWAP3 SWAP2 DUP3 AND SWAP2 AND PUSH2 0x1B00 JUMP JUMPDEST SWAP1 POP PUSH1 0x1 PUSH1 0x1 PUSH1 0xA0 SHL SUB DUP2 AND PUSH2 0x1671 JUMPI PUSH1 0x0 SWAP2 POP POP SWAP1 JUMP JUMPDEST PUSH1 0x40 MLOAD PUSH4 0x70A08231 PUSH1 0xE0 SHL DUP2 MSTORE ADDRESS PUSH1 0x4 DUP3 ADD MSTORE PUSH1 0x1 PUSH1 0x1 PUSH1 0xA0 SHL SUB DUP3 AND SWAP1 PUSH4 0x70A08231 SWAP1 PUSH1 0x24 ADD PUSH1 0x20 PUSH1 0x40 MLOAD DUP1 DUP4 SUB DUP2 DUP7 DUP1 EXTCODESIZE ISZERO DUP1 ISZERO PUSH2 0x16B0 JUMPI PUSH1 0x0 DUP1 REVERT JUMPDEST POP GAS STATICCALL ISZERO DUP1 ISZERO PUSH2 0x16C4 JUMPI RETURNDATASIZE PUSH1 0x0 DUP1 RETURNDATACOPY RETURNDATASIZE PUSH1 0x0 REVERT JUMPDEST POP POP POP POP PUSH1 0x40 MLOAD RETURNDATASIZE PUSH1 0x1F NOT PUSH1 0x1F DUP3 ADD AND DUP3 ADD DUP1 PUSH1 0x40 MSTORE POP DUP2 ADD SWAP1 PUSH2 0x16E8 SWAP2 SWAP1 PUSH2 0x1E23 JUMP JUMPDEST SWAP2 POP POP SWAP1 JUMP JUMPDEST PUSH1 0xA SLOAD NUMBER LT PUSH2 0x170F JUMPI PUSH1 0x40 MLOAD PUSH3 0x461BCD PUSH1 0xE5 SHL DUP2 MSTORE PUSH1 0x4 ADD PUSH2 0x3FF SWAP1 PUSH2 0x1E77 JUMP JUMPDEST PUSH1 0x1 SLOAD PUSH1 0x1 PUSH1 0x1 PUSH1 0xA0 SHL SUB AND CALLER EQ PUSH2 0x1739 JUMPI PUSH1 0x40 MLOAD PUSH3 0x461BCD PUSH1 0xE5 SHL DUP2 MSTORE PUSH1 0x4 ADD PUSH2 0x3FF SWAP1 PUSH2 0x1EA0 JUMP JUMPDEST PUSH1 0x6 SLOAD DUP2 GT PUSH2 0x177C JUMPI PUSH1 0x40 MLOAD PUSH3 0x461BCD PUSH1 0xE5 SHL DUP2 MSTORE PUSH1 0x20 PUSH1 0x4 DUP3 ADD MSTORE PUSH1 0xF PUSH1 0x24 DUP3 ADD MSTORE PUSH15 0x494E56414C49445F414D4F554E543 PUSH1 0x8C SHL PUSH1 0x44 DUP3 ADD MSTORE PUSH1 0x64 ADD PUSH2 0x3FF JUMP JUMPDEST PUSH1 0x8 DUP2 SWAP1 SSTORE PUSH1 0x9 SLOAD PUSH1 0x40 DUP1 MLOAD DUP4 DUP2 MSTORE PUSH1 0x20 DUP2 ADD SWAP3 SWAP1 SWAP3 MSTORE PUSH32 0xDD8EC8EC954D8414EB0AC025624E54C0FE982A670E6CC4E35D33BA4A540A02EC SWAP2 ADD PUSH2 0x46C JUMP JUMPDEST PUSH1 0x0 DUP1 DUP3 PUSH1 0x1 PUSH1 0x1 PUSH1 0xA0 SHL SUB AND DUP5 PUSH1 0x1 PUSH1 0x1 PUSH1 0xA0 SHL SUB AND EQ ISZERO PUSH2 0x1820 JUMPI PUSH1 0x40 MLOAD PUSH3 0x461BCD PUSH1 0xE5 SHL DUP2 MSTORE PUSH1 0x20 PUSH1 0x4 DUP3 ADD MSTORE PUSH1 0x1B PUSH1 0x24 DUP3 ADD MSTORE PUSH32 0x48656C7065723A204944454E544943414C5F4144445245535345530000000000 PUSH1 0x44 DUP3 ADD MSTORE PUSH1 0x64 ADD PUSH2 0x3FF JUMP JUMPDEST DUP3 PUSH1 0x1 PUSH1 0x1 PUSH1 0xA0 SHL SUB AND DUP5 PUSH1 0x1 PUSH1 0x1 PUSH1 0xA0 SHL SUB AND LT PUSH2 0x1840 JUMPI DUP3 DUP5 PUSH2 0x1843 JUMP JUMPDEST DUP4 DUP4 JUMPDEST SWAP1 SWAP3 POP SWAP1 POP PUSH1 0x1 PUSH1 0x1 PUSH1 0xA0 SHL SUB DUP3 AND PUSH2 0x1895 JUMPI PUSH1 0x40 MLOAD PUSH3 0x461BCD PUSH1 0xE5 SHL DUP2 MSTORE PUSH1 0x20 PUSH1 0x4 DUP3 ADD MSTORE PUSH1 0x14 PUSH1 0x24 DUP3 ADD MSTORE PUSH20 0x48656C7065723A205A45524F5F41444452455353 PUSH1 0x60 SHL PUSH1 0x44 DUP3 ADD MSTORE PUSH1 0x64 ADD PUSH2 0x3FF JUMP JUMPDEST SWAP3 POP SWAP3 SWAP1 POP JUMP JUMPDEST PUSH1 0x0 DUP2 ISZERO DUP1 PUSH2 0x18C0 JUMPI POP DUP3 DUP3 PUSH2 0x18B2 DUP2 DUP4 PUSH2 0x1F34 JUMP JUMPDEST SWAP3 POP PUSH2 0x18BE SWAP1 DUP4 PUSH2 0x1F12 JUMP JUMPDEST EQ JUMPDEST PUSH2 0x1903 JUMPI PUSH1 0x40 MLOAD PUSH3 0x461BCD PUSH1 0xE5 SHL DUP2 MSTORE PUSH1 0x20 PUSH1 0x4 DUP3 ADD MSTORE PUSH1 0x14 PUSH1 0x24 DUP3 ADD MSTORE PUSH20 0x64732D6D6174682D6D756C2D6F766572666C6F77 PUSH1 0x60 SHL PUSH1 0x44 DUP3 ADD MSTORE PUSH1 0x64 ADD PUSH2 0x3FF JUMP JUMPDEST SWAP3 SWAP2 POP POP JUMP JUMPDEST PUSH1 0x0 PUSH1 0x3 DUP3 GT ISZERO PUSH2 0x196A JUMPI POP DUP1 PUSH1 0x0 PUSH2 0x1923 PUSH1 0x2 DUP4 PUSH2 0x1F12 JUMP JUMPDEST PUSH2 0x192E SWAP1 PUSH1 0x1 PUSH2 0x1EFA JUMP JUMPDEST SWAP1 POP JUMPDEST DUP2 DUP2 LT ISZERO PUSH2 0x1964 JUMPI SWAP1 POP DUP1 PUSH1 0x2 DUP2 PUSH2 0x1949 DUP2 DUP7 PUSH2 0x1F12 JUMP JUMPDEST PUSH2 0x1953 SWAP2 SWAP1 PUSH2 0x1EFA JUMP JUMPDEST PUSH2 0x195D SWAP2 SWAP1 PUSH2 0x1F12 JUMP JUMPDEST SWAP1 POP PUSH2 0x1931 JUMP JUMPDEST POP SWAP2 SWAP1 POP JUMP JUMPDEST DUP2 ISZERO PUSH2 0x1974 JUMPI POP PUSH1 0x1 JUMPDEST SWAP2 SWAP1 POP JUMP JUMPDEST PUSH1 0x0 DUP3 PUSH2 0x1986 DUP4 DUP3 PUSH2 0x1F53 JUMP JUMPDEST SWAP2 POP DUP2 GT ISZERO PUSH2 0x1903 JUMPI PUSH1 0x40 MLOAD PUSH3 0x461BCD PUSH1 0xE5 SHL DUP2 MSTORE PUSH1 0x20 PUSH1 0x4 DUP3 ADD MSTORE PUSH1 0x15 PUSH1 0x24 DUP3 ADD MSTORE PUSH21 0x64732D6D6174682D7375622D756E646572666C6F77 PUSH1 0x58 SHL PUSH1 0x44 DUP3 ADD MSTORE PUSH1 0x64 ADD PUSH2 0x3FF JUMP JUMPDEST PUSH1 0x40 DUP1 MLOAD PUSH1 0x1 PUSH1 0x1 PUSH1 0xA0 SHL SUB DUP5 DUP2 AND PUSH1 0x24 DUP4 ADD MSTORE PUSH1 0x44 DUP1 DUP4 ADD DUP6 SWAP1 MSTORE DUP4 MLOAD DUP1 DUP5 SUB SWAP1 SWAP2 ADD DUP2 MSTORE PUSH1 0x64 SWAP1 SWAP3 ADD DUP4 MSTORE PUSH1 0x20 DUP3 ADD DUP1 MLOAD PUSH1 0x1 PUSH1 0x1 PUSH1 0xE0 SHL SUB AND PUSH4 0xA9059CBB PUSH1 0xE0 SHL OR SWAP1 MSTORE SWAP2 MLOAD PUSH1 0x0 SWAP3 DUP4 SWAP3 SWAP1 DUP8 AND SWAP2 PUSH2 0x1A2B SWAP2 SWAP1 PUSH2 0x1E3C JUMP JUMPDEST PUSH1 0x0 PUSH1 0x40 MLOAD DUP1 DUP4 SUB DUP2 PUSH1 0x0 DUP7 GAS CALL SWAP2 POP POP RETURNDATASIZE DUP1 PUSH1 0x0 DUP2 EQ PUSH2 0x1A68 JUMPI PUSH1 0x40 MLOAD SWAP2 POP PUSH1 0x1F NOT PUSH1 0x3F RETURNDATASIZE ADD AND DUP3 ADD PUSH1 0x40 MSTORE RETURNDATASIZE DUP3 MSTORE RETURNDATASIZE PUSH1 0x0 PUSH1 0x20 DUP5 ADD RETURNDATACOPY PUSH2 0x1A6D JUMP JUMPDEST PUSH1 0x60 SWAP2 POP JUMPDEST POP SWAP2 POP SWAP2 POP DUP2 DUP1 ISZERO PUSH2 0x1A97 JUMPI POP DUP1 MLOAD ISZERO DUP1 PUSH2 0x1A97 JUMPI POP DUP1 DUP1 PUSH1 0x20 ADD SWAP1 MLOAD DUP2 ADD SWAP1 PUSH2 0x1A97 SWAP2 SWAP1 PUSH2 0x1DE8 JUMP JUMPDEST PUSH2 0x1AF9 JUMPI PUSH1 0x40 MLOAD PUSH3 0x461BCD PUSH1 0xE5 SHL DUP2 MSTORE PUSH1 0x20 PUSH1 0x4 DUP3 ADD MSTORE PUSH1 0x2D PUSH1 0x24 DUP3 ADD MSTORE PUSH32 0x5472616E7366657248656C7065723A3A736166655472616E736665723A207472 PUSH1 0x44 DUP3 ADD MSTORE PUSH13 0x185B9CD9995C8819985A5B1959 PUSH1 0x9A SHL PUSH1 0x64 DUP3 ADD MSTORE PUSH1 0x84 ADD PUSH2 0x3FF JUMP JUMPDEST POP POP POP POP POP JUMP JUMPDEST PUSH1 0x40 MLOAD PUSH4 0xE6A43905 PUSH1 0xE0 SHL DUP2 MSTORE PUSH1 0x1 PUSH1 0x1 PUSH1 0xA0 SHL SUB DUP4 DUP2 AND PUSH1 0x4 DUP4 ADD MSTORE DUP3 DUP2 AND PUSH1 0x24 DUP4 ADD MSTORE PUSH1 0x0 SWAP2 SWAP1 DUP6 AND SWAP1 PUSH4 0xE6A43905 SWAP1 PUSH1 0x44 ADD PUSH1 0x20 PUSH1 0x40 MLOAD DUP1 DUP4 SUB DUP2 DUP7 DUP1 EXTCODESIZE ISZERO DUP1 ISZERO PUSH2 0x1B4D JUMPI PUSH1 0x0 DUP1 REVERT JUMPDEST POP GAS STATICCALL ISZERO DUP1 ISZERO PUSH2 0x1B61 JUMPI RETURNDATASIZE PUSH1 0x0 DUP1 RETURNDATACOPY RETURNDATASIZE PUSH1 0x0 REVERT JUMPDEST POP POP POP POP PUSH1 0x40 MLOAD RETURNDATASIZE PUSH1 0x1F NOT PUSH1 0x1F DUP3 ADD AND DUP3 ADD DUP1 PUSH1 0x40 MSTORE POP DUP2 ADD SWAP1 PUSH2 0x1B85 SWAP2 SWAP1 PUSH2 0x1D44 JUMP JUMPDEST SWAP5 SWAP4 POP POP POP POP JUMP JUMPDEST PUSH1 0x0 DUP3 PUSH2 0x1B9A DUP4 DUP3 PUSH2 0x1EFA JUMP JUMPDEST SWAP2 POP DUP2 LT ISZERO PUSH2 0x1903 JUMPI PUSH1 0x40 MLOAD PUSH3 0x461BCD PUSH1 0xE5 SHL DUP2 MSTORE PUSH1 0x20 PUSH1 0x4 DUP3 ADD MSTORE PUSH1 0x14 PUSH1 0x24 DUP3 ADD MSTORE PUSH20 0x64732D6D6174682D6164642D6F766572666C6F77 PUSH1 0x60 SHL PUSH1 0x44 DUP3 ADD MSTORE PUSH1 0x64 ADD PUSH2 0x3FF JUMP JUMPDEST PUSH1 0x40 DUP1 MLOAD PUSH1 0x1 PUSH1 0x1 PUSH1 0xA0 SHL SUB DUP6 DUP2 AND PUSH1 0x24 DUP4 ADD MSTORE DUP5 DUP2 AND PUSH1 0x44 DUP4 ADD MSTORE PUSH1 0x64 DUP1 DUP4 ADD DUP6 SWAP1 MSTORE DUP4 MLOAD DUP1 DUP5 SUB SWAP1 SWAP2 ADD DUP2 MSTORE PUSH1 0x84 SWAP1 SWAP3 ADD DUP4 MSTORE PUSH1 0x20 DUP3 ADD DUP1 MLOAD PUSH1 0x1 PUSH1 0x1 PUSH1 0xE0 SHL SUB AND PUSH4 0x23B872DD PUSH1 0xE0 SHL OR SWAP1 MSTORE SWAP2 MLOAD PUSH1 0x0 SWAP3 DUP4 SWAP3 SWAP1 DUP9 AND SWAP2 PUSH2 0x1C46 SWAP2 SWAP1 PUSH2 0x1E3C JUMP JUMPDEST PUSH1 0x0 PUSH1 0x40 MLOAD DUP1 DUP4 SUB DUP2 PUSH1 0x0 DUP7 GAS CALL SWAP2 POP POP RETURNDATASIZE DUP1 PUSH1 0x0 DUP2 EQ PUSH2 0x1C83 JUMPI PUSH1 0x40 MLOAD SWAP2 POP PUSH1 0x1F NOT PUSH1 0x3F RETURNDATASIZE ADD AND DUP3 ADD PUSH1 0x40 MSTORE RETURNDATASIZE DUP3 MSTORE RETURNDATASIZE PUSH1 0x0 PUSH1 0x20 DUP5 ADD RETURNDATACOPY PUSH2 0x1C88 JUMP JUMPDEST PUSH1 0x60 SWAP2 POP JUMPDEST POP SWAP2 POP SWAP2 POP DUP2 DUP1 ISZERO PUSH2 0x1CB2 JUMPI POP DUP1 MLOAD ISZERO DUP1 PUSH2 0x1CB2 JUMPI POP DUP1 DUP1 PUSH1 0x20 ADD SWAP1 MLOAD DUP2 ADD SWAP1 PUSH2 0x1CB2 SWAP2 SWAP1 PUSH2 0x1DE8 JUMP JUMPDEST PUSH2 0x1D18 JUMPI PUSH1 0x40 MLOAD PUSH3 0x461BCD PUSH1 0xE5 SHL DUP2 MSTORE PUSH1 0x20 PUSH1 0x4 DUP3 ADD MSTORE PUSH1 0x31 PUSH1 0x24 DUP3 ADD MSTORE PUSH32 0x5472616E7366657248656C7065723A3A7472616E7366657246726F6D3A207472 PUSH1 0x44 DUP3 ADD MSTORE PUSH17 0x185B9CD9995C919C9BDB4819985A5B1959 PUSH1 0x7A SHL PUSH1 0x64 DUP3 ADD MSTORE PUSH1 0x84 ADD PUSH2 0x3FF JUMP JUMPDEST POP POP POP POP POP POP JUMP JUMPDEST PUSH1 0x0 PUSH1 0x20 DUP3 DUP5 SUB SLT ISZERO PUSH2 0x1D32 JUMPI PUSH1 0x0 DUP1 REVERT JUMPDEST DUP2 CALLDATALOAD PUSH2 0x1D3D DUP2 PUSH2 0x1F80 JUMP JUMPDEST SWAP4 SWAP3 POP POP POP JUMP JUMPDEST PUSH1 0x0 PUSH1 0x20 DUP3 DUP5 SUB SLT ISZERO PUSH2 0x1D56 JUMPI PUSH1 0x0 DUP1 REVERT JUMPDEST DUP2 MLOAD PUSH2 0x1D3D DUP2 PUSH2 0x1F80 JUMP JUMPDEST PUSH1 0x0 DUP1 PUSH1 0x0 PUSH1 0x60 DUP5 DUP7 SUB SLT ISZERO PUSH2 0x1D76 JUMPI PUSH1 0x0 DUP1 REVERT JUMPDEST DUP4 CALLDATALOAD PUSH2 0x1D81 DUP2 PUSH2 0x1F80 JUMP JUMPDEST SWAP3 POP PUSH1 0x20 DUP5 ADD CALLDATALOAD PUSH2 0x1D91 DUP2 PUSH2 0x1F80 JUMP JUMPDEST SWAP3 SWAP6 SWAP3 SWAP5 POP POP POP PUSH1 0x40 SWAP2 SWAP1 SWAP2 ADD CALLDATALOAD SWAP1 JUMP JUMPDEST PUSH1 0x0 DUP1 PUSH1 0x0 DUP1 PUSH1 0x80 DUP6 DUP8 SUB SLT ISZERO PUSH2 0x1DB8 JUMPI PUSH1 0x0 DUP1 REVERT JUMPDEST DUP5 CALLDATALOAD PUSH2 0x1DC3 DUP2 PUSH2 0x1F80 JUMP JUMPDEST SWAP4 POP PUSH1 0x20 DUP6 ADD CALLDATALOAD PUSH2 0x1DD3 DUP2 PUSH2 0x1F80 JUMP JUMPDEST SWAP4 SWAP7 SWAP4 SWAP6 POP POP POP POP PUSH1 0x40 DUP3 ADD CALLDATALOAD SWAP2 PUSH1 0x60 ADD CALLDATALOAD SWAP1 JUMP JUMPDEST PUSH1 0x0 PUSH1 0x20 DUP3 DUP5 SUB SLT ISZERO PUSH2 0x1DFA JUMPI PUSH1 0x0 DUP1 REVERT JUMPDEST DUP2 MLOAD DUP1 ISZERO ISZERO DUP2 EQ PUSH2 0x1D3D JUMPI PUSH1 0x0 DUP1 REVERT JUMPDEST PUSH1 0x0 PUSH1 0x20 DUP3 DUP5 SUB SLT ISZERO PUSH2 0x1E1C JUMPI PUSH1 0x0 DUP1 REVERT JUMPDEST POP CALLDATALOAD SWAP2 SWAP1 POP JUMP JUMPDEST PUSH1 0x0 PUSH1 0x20 DUP3 DUP5 SUB SLT ISZERO PUSH2 0x1E35 JUMPI PUSH1 0x0 DUP1 REVERT JUMPDEST POP MLOAD SWAP2 SWAP1 POP JUMP JUMPDEST PUSH1 0x0 DUP3 MLOAD PUSH1 0x0 JUMPDEST DUP2 DUP2 LT ISZERO PUSH2 0x1E5D JUMPI PUSH1 0x20 DUP2 DUP7 ADD DUP2 ADD MLOAD DUP6 DUP4 ADD MSTORE ADD PUSH2 0x1E43 JUMP JUMPDEST DUP2 DUP2 GT ISZERO PUSH2 0x1E6C JUMPI PUSH1 0x0 DUP3 DUP6 ADD MSTORE JUMPDEST POP SWAP2 SWAP1 SWAP2 ADD SWAP3 SWAP2 POP POP JUMP JUMPDEST PUSH1 0x20 DUP1 DUP3 MSTORE PUSH1 0xF SWAP1 DUP3 ADD MSTORE PUSH15 0x1093D3D514D514905417D153911151 PUSH1 0x8A SHL PUSH1 0x40 DUP3 ADD MSTORE PUSH1 0x60 ADD SWAP1 JUMP JUMPDEST PUSH1 0x20 DUP1 DUP3 MSTORE PUSH1 0x9 SWAP1 DUP3 ADD MSTORE PUSH9 0x3737BA1030B236B4B7 PUSH1 0xB9 SHL PUSH1 0x40 DUP3 ADD MSTORE PUSH1 0x60 ADD SWAP1 JUMP JUMPDEST PUSH1 0x20 DUP1 DUP3 MSTORE PUSH1 0x1F SWAP1 DUP3 ADD MSTORE PUSH32 0x5265656E7472616E637947756172643A207265656E7472616E742063616C6C00 PUSH1 0x40 DUP3 ADD MSTORE PUSH1 0x60 ADD SWAP1 JUMP JUMPDEST PUSH1 0x0 DUP3 NOT DUP3 GT ISZERO PUSH2 0x1F0D JUMPI PUSH2 0x1F0D PUSH2 0x1F6A JUMP JUMPDEST POP ADD SWAP1 JUMP JUMPDEST PUSH1 0x0 DUP3 PUSH2 0x1F2F JUMPI PUSH4 0x4E487B71 PUSH1 0xE0 SHL PUSH1 0x0 MSTORE PUSH1 0x12 PUSH1 0x4 MSTORE PUSH1 0x24 PUSH1 0x0 REVERT JUMPDEST POP DIV SWAP1 JUMP JUMPDEST PUSH1 0x0 DUP2 PUSH1 0x0 NOT DIV DUP4 GT DUP3 ISZERO ISZERO AND ISZERO PUSH2 0x1F4E JUMPI PUSH2 0x1F4E PUSH2 0x1F6A JUMP JUMPDEST POP MUL SWAP1 JUMP JUMPDEST PUSH1 0x0 DUP3 DUP3 LT ISZERO PUSH2 0x1F65 JUMPI PUSH2 0x1F65 PUSH2 0x1F6A JUMP JUMPDEST POP SUB SWAP1 JUMP JUMPDEST PUSH4 0x4E487B71 PUSH1 0xE0 SHL PUSH1 0x0 MSTORE PUSH1 0x11 PUSH1 0x4 MSTORE PUSH1 0x24 PUSH1 0x0 REVERT JUMPDEST PUSH1 0x1 PUSH1 0x1 PUSH1 0xA0 SHL SUB DUP2 AND DUP2 EQ PUSH2 0x1F95 JUMPI PUSH1 0x0 DUP1 REVERT JUMPDEST POP JUMP INVALID LOG2 PUSH5 0x6970667358 0x22 SLT KECCAK256 PUSH4 0x8B051147 0xD4 0xA9 0x5F DUP16 COINBASE SWAP16 SWAP5 0x4E SIGNEXTEND 0xA7 0xAF LOG2 0xD5 0xD4 0xAC PUSH1 0xC7 BLOCKHASH 0xD9 SELFBALANCE 0xE8 0xA5 0xDD COINBASE 0xF7 PUSH23 0x4C64736F6C634300080700330000000000000000000000 "
		},
		"gasEstimates": {
			"creation": {
				"codeDepositCost": "1628400",
				"executionCost": "infinite",
				"totalCost": "infinite"
			},
			"external": {
				"END_BLOCK()": "2384",
				"HARD_CAP_AMOUNT0()": "2341",
				"HARD_CAP_AMOUNT1()": "2341",
				"MINIMUM_LIQUIDITY()": "284",
				"MINUM_AMOUNT0()": "2339",
				"MINUM_AMOUNT1()": "2364",
				"addProvision(address,address,uint256,uint256)": "infinite",
				"admin()": "2414",
				"adminCandidate()": "2438",
				"candidateConfirm()": "56568",
				"claim()": "infinite",
				"factory()": "2371",
				"getExactLiquidity(address)": "infinite",
				"getLiquidityBalance()": "infinite",
				"getTotalLiquidity()": "infinite",
				"getUserInfo(address)": "4853",
				"mintLiquidity()": "infinite",
				"refund()": "infinite",
				"setAdminCandidate(address)": "27889",
				"setEndBlock(uint256)": "27752",
				"setHardCapAmount0(uint256)": "32279",
				"setHardCapAmount1(uint256)": "32233",
				"setMinumAmount0(uint256)": "30157",
				"setMinumAmount1(uint256)": "30123",
				"token0()": "2373",
				"token1()": "2437",
				"totalAmount0()": "2340",
				"totalAmount1()": "2363",
				"withdrawExtraFunds(address,address,uint256)": "infinite"
			}
		},
		"methodIdentifiers": {
			"END_BLOCK()": "cd3ec1d6",
			"HARD_CAP_AMOUNT0()": "654d07a2",
			"HARD_CAP_AMOUNT1()": "30ab8ab9",
			"MINIMUM_LIQUIDITY()": "ba9a7a56",
			"MINUM_AMOUNT0()": "d32339a5",
			"MINUM_AMOUNT1()": "1931cf0e",
			"addProvision(address,address,uint256,uint256)": "92ea1991",
			"admin()": "f851a440",
			"adminCandidate()": "3accfa6c",
			"candidateConfirm()": "3f023230",
			"claim()": "4e71d92d",
			"factory()": "c45a0155",
			"getExactLiquidity(address)": "82b1c48d",
			"getLiquidityBalance()": "f2e99ff6",
			"getTotalLiquidity()": "35c7e925",
			"getUserInfo(address)": "6386c1c7",
			"mintLiquidity()": "5e8c2c18",
			"refund()": "590e1ae3",
			"setAdminCandidate(address)": "96de7aa0",
			"setEndBlock(uint256)": "c713aa94",
			"setHardCapAmount0(uint256)": "fc1466e6",
			"setHardCapAmount1(uint256)": "a581d649",
			"setMinumAmount0(uint256)": "c2ab2041",
			"setMinumAmount1(uint256)": "2ed8c580",
			"token0()": "0dfe1681",
			"token1()": "d21220a7",
			"totalAmount0()": "50e0f5b7",
			"totalAmount1()": "35c4b49e",
			"withdrawExtraFunds(address,address,uint256)": "4b7e9963"
		}
	},
	"abi": [
		{
			"inputs": [
				{
					"internalType": "address",
					"name": "_factory",
					"type": "address"
				},
				{
					"internalType": "address",
					"name": "_tokenA",
					"type": "address"
				},
				{
					"internalType": "address",
					"name": "_tokenB",
					"type": "address"
				},
				{
					"internalType": "uint256",
					"name": "_minumAmountA",
					"type": "uint256"
				},
				{
					"internalType": "uint256",
					"name": "_minumAmountB",
					"type": "uint256"
				},
				{
					"internalType": "uint256",
					"name": "_hardCapAmountA",
					"type": "uint256"
				},
				{
					"internalType": "uint256",
					"name": "_hardCapAmountB",
					"type": "uint256"
				},
				{
					"internalType": "uint256",
					"name": "_endBlock",
					"type": "uint256"
				}
			],
			"stateMutability": "nonpayable",
			"type": "constructor"
		},
		{
			"anonymous": false,
			"inputs": [
				{
					"indexed": true,
					"internalType": "address",
					"name": "oldAdmin",
					"type": "address"
				},
				{
					"indexed": true,
					"internalType": "address",
					"name": "newAdmin",
					"type": "address"
				}
			],
			"name": "AdminChanged",
			"type": "event"
		},
		{
			"anonymous": false,
			"inputs": [
				{
					"indexed": true,
					"internalType": "address",
					"name": "newAdmin",
					"type": "address"
				}
			],
			"name": "Candidate",
			"type": "event"
		},
		{
			"anonymous": false,
			"inputs": [
				{
					"indexed": false,
					"internalType": "uint256",
					"name": "endBlock",
					"type": "uint256"
				}
			],
			"name": "EndBlockUpdated",
			"type": "event"
		},
		{
			"anonymous": false,
			"inputs": [
				{
					"indexed": false,
					"internalType": "uint256",
					"name": "amount0",
					"type": "uint256"
				},
				{
					"indexed": false,
					"internalType": "uint256",
					"name": "amount1",
					"type": "uint256"
				}
			],
			"name": "HardCapAmountUpdated",
			"type": "event"
		},
		{
			"anonymous": false,
			"inputs": [
				{
					"indexed": true,
					"internalType": "address",
					"name": "to",
					"type": "address"
				},
				{
					"indexed": false,
					"internalType": "uint256",
					"name": "amount",
					"type": "uint256"
				}
			],
			"name": "LiquidityClaimed",
			"type": "event"
		},
		{
			"anonymous": false,
			"inputs": [
				{
					"indexed": false,
					"internalType": "uint256",
					"name": "amount0",
					"type": "uint256"
				},
				{
					"indexed": false,
					"internalType": "uint256",
					"name": "amount1",
					"type": "uint256"
				}
			],
			"name": "MinumAmountUpdated",
			"type": "event"
		},
		{
			"anonymous": false,
			"inputs": [
				{
					"indexed": true,
					"internalType": "address",
					"name": "user",
					"type": "address"
				},
				{
					"indexed": false,
					"internalType": "uint256",
					"name": "amount0",
					"type": "uint256"
				},
				{
					"indexed": false,
					"internalType": "uint256",
					"name": "amount1",
					"type": "uint256"
				}
			],
			"name": "Provided",
			"type": "event"
		},
		{
			"anonymous": false,
			"inputs": [
				{
					"indexed": true,
					"internalType": "address",
					"name": "to",
					"type": "address"
				},
				{
					"indexed": false,
					"internalType": "uint256",
					"name": "amount0",
					"type": "uint256"
				},
				{
					"indexed": false,
					"internalType": "uint256",
					"name": "amount1",
					"type": "uint256"
				}
			],
			"name": "Refund",
			"type": "event"
		},
		{
			"anonymous": false,
			"inputs": [
				{
					"indexed": true,
					"internalType": "address",
					"name": "token",
					"type": "address"
				},
				{
					"indexed": true,
					"internalType": "address",
					"name": "to",
					"type": "address"
				},
				{
					"indexed": false,
					"internalType": "uint256",
					"name": "amount",
					"type": "uint256"
				}
			],
			"name": "WithdrawExtraFunds",
			"type": "event"
		},
		{
			"inputs": [],
			"name": "END_BLOCK",
			"outputs": [
				{
					"internalType": "uint256",
					"name": "",
					"type": "uint256"
				}
			],
			"stateMutability": "view",
			"type": "function"
		},
		{
			"inputs": [],
			"name": "HARD_CAP_AMOUNT0",
			"outputs": [
				{
					"internalType": "uint256",
					"name": "",
					"type": "uint256"
				}
			],
			"stateMutability": "view",
			"type": "function"
		},
		{
			"inputs": [],
			"name": "HARD_CAP_AMOUNT1",
			"outputs": [
				{
					"internalType": "uint256",
					"name": "",
					"type": "uint256"
				}
			],
			"stateMutability": "view",
			"type": "function"
		},
		{
			"inputs": [],
			"name": "MINIMUM_LIQUIDITY",
			"outputs": [
				{
					"internalType": "uint256",
					"name": "",
					"type": "uint256"
				}
			],
			"stateMutability": "view",
			"type": "function"
		},
		{
			"inputs": [],
			"name": "MINUM_AMOUNT0",
			"outputs": [
				{
					"internalType": "uint256",
					"name": "",
					"type": "uint256"
				}
			],
			"stateMutability": "view",
			"type": "function"
		},
		{
			"inputs": [],
			"name": "MINUM_AMOUNT1",
			"outputs": [
				{
					"internalType": "uint256",
					"name": "",
					"type": "uint256"
				}
			],
			"stateMutability": "view",
			"type": "function"
		},
		{
			"inputs": [
				{
					"internalType": "address",
					"name": "tokenA",
					"type": "address"
				},
				{
					"internalType": "address",
					"name": "tokenB",
					"type": "address"
				},
				{
					"internalType": "uint256",
					"name": "amountA",
					"type": "uint256"
				},
				{
					"internalType": "uint256",
					"name": "amountB",
					"type": "uint256"
				}
			],
			"name": "addProvision",
			"outputs": [],
			"stateMutability": "nonpayable",
			"type": "function"
		},
		{
			"inputs": [],
			"name": "admin",
			"outputs": [
				{
					"internalType": "address",
					"name": "",
					"type": "address"
				}
			],
			"stateMutability": "view",
			"type": "function"
		},
		{
			"inputs": [],
			"name": "adminCandidate",
			"outputs": [
				{
					"internalType": "address",
					"name": "",
					"type": "address"
				}
			],
			"stateMutability": "view",
			"type": "function"
		},
		{
			"inputs": [],
			"name": "candidateConfirm",
			"outputs": [],
			"stateMutability": "nonpayable",
			"type": "function"
		},
		{
			"inputs": [],
			"name": "claim",
			"outputs": [],
			"stateMutability": "nonpayable",
			"type": "function"
		},
		{
			"inputs": [],
			"name": "factory",
			"outputs": [
				{
					"internalType": "address",
					"name": "",
					"type": "address"
				}
			],
			"stateMutability": "view",
			"type": "function"
		},
		{
			"inputs": [
				{
					"internalType": "address",
					"name": "user",
					"type": "address"
				}
			],
			"name": "getExactLiquidity",
			"outputs": [
				{
					"internalType": "uint256",
					"name": "exactLiquidity",
					"type": "uint256"
				}
			],
			"stateMutability": "view",
			"type": "function"
		},
		{
			"inputs": [],
			"name": "getLiquidityBalance",
			"outputs": [
				{
					"internalType": "uint256",
					"name": "balance",
					"type": "uint256"
				}
			],
			"stateMutability": "view",
			"type": "function"
		},
		{
			"inputs": [],
			"name": "getTotalLiquidity",
			"outputs": [
				{
					"internalType": "uint256",
					"name": "totalLiquidity",
					"type": "uint256"
				}
			],
			"stateMutability": "view",
			"type": "function"
		},
		{
			"inputs": [
				{
					"internalType": "address",
					"name": "user",
					"type": "address"
				}
			],
			"name": "getUserInfo",
			"outputs": [
				{
					"internalType": "uint256",
					"name": "amount0",
					"type": "uint256"
				},
				{
					"internalType": "uint256",
					"name": "amount1",
					"type": "uint256"
				}
			],
			"stateMutability": "view",
			"type": "function"
		},
		{
			"inputs": [],
			"name": "mintLiquidity",
			"outputs": [],
			"stateMutability": "nonpayable",
			"type": "function"
		},
		{
			"inputs": [],
			"name": "refund",
			"outputs": [],
			"stateMutability": "nonpayable",
			"type": "function"
		},
		{
			"inputs": [
				{
					"internalType": "address",
					"name": "_candidate",
					"type": "address"
				}
			],
			"name": "setAdminCandidate",
			"outputs": [],
			"stateMutability": "nonpayable",
			"type": "function"
		},
		{
			"inputs": [
				{
					"internalType": "uint256",
					"name": "endBlock",
					"type": "uint256"
				}
			],
			"name": "setEndBlock",
			"outputs": [],
			"stateMutability": "nonpayable",
			"type": "function"
		},
		{
			"inputs": [
				{
					"internalType": "uint256",
					"name": "amount0",
					"type": "uint256"
				}
			],
			"name": "setHardCapAmount0",
			"outputs": [],
			"stateMutability": "nonpayable",
			"type": "function"
		},
		{
			"inputs": [
				{
					"internalType": "uint256",
					"name": "amount1",
					"type": "uint256"
				}
			],
			"name": "setHardCapAmount1",
			"outputs": [],
			"stateMutability": "nonpayable",
			"type": "function"
		},
		{
			"inputs": [
				{
					"internalType": "uint256",
					"name": "amount0",
					"type": "uint256"
				}
			],
			"name": "setMinumAmount0",
			"outputs": [],
			"stateMutability": "nonpayable",
			"type": "function"
		},
		{
			"inputs": [
				{
					"internalType": "uint256",
					"name": "amount1",
					"type": "uint256"
				}
			],
			"name": "setMinumAmount1",
			"outputs": [],
			"stateMutability": "nonpayable",
			"type": "function"
		},
		{
			"inputs": [],
			"name": "token0",
			"outputs": [
				{
					"internalType": "address",
					"name": "",
					"type": "address"
				}
			],
			"stateMutability": "view",
			"type": "function"
		},
		{
			"inputs": [],
			"name": "token1",
			"outputs": [
				{
					"internalType": "address",
					"name": "",
					"type": "address"
				}
			],
			"stateMutability": "view",
			"type": "function"
		},
		{
			"inputs": [],
			"name": "totalAmount0",
			"outputs": [
				{
					"internalType": "uint256",
					"name": "",
					"type": "uint256"
				}
			],
			"stateMutability": "view",
			"type": "function"
		},
		{
			"inputs": [],
			"name": "totalAmount1",
			"outputs": [
				{
					"internalType": "uint256",
					"name": "",
					"type": "uint256"
				}
			],
			"stateMutability": "view",
			"type": "function"
		},
		{
			"inputs": [
				{
					"internalType": "address",
					"name": "token",
					"type": "address"
				},
				{
					"internalType": "address",
					"name": "to",
					"type": "address"
				},
				{
					"internalType": "uint256",
					"name": "amount",
					"type": "uint256"
				}
			],
			"name": "withdrawExtraFunds",
			"outputs": [],
			"stateMutability": "nonpayable",
			"type": "function"
		}
	]
}