{
	"data": {
		"bytecode": {
			"linkReferences": {},
			"object": "60806040523480156200001157600080fd5b506040516200355c3803806200355c833981016040819052620000349162000083565b600080546001600160a01b039384166001600160a01b03199182161790915560018054929093169116179055620000bb565b80516001600160a01b03811681146200007e57600080fd5b919050565b600080604083850312156200009757600080fd5b620000a28362000066565b9150620000b26020840162000066565b90509250929050565b61349180620000cb6000396000f3fe60806040526004361061010d5760003560e01c80639be7614d11610095578063cd1bd0d911610064578063cd1bd0d9146102f4578063d06ca61f14610307578063dcff1b9414610327578063e8e3370014610347578063f85b7c8b1461036757600080fd5b80639be7614d14610281578063b1ea829214610294578063baa2abde146102b4578063c45a0155146102d457600080fd5b8063419591ed116100dc578063419591ed146101e8578063686589671461022057806385f8c259146101335780638803dbee1461024e578063937ca0da1461026e57600080fd5b8063054d50d4146101335780631f00ca741461016657806338ed173914610193578063403bf1f2146101b357600080fd5b3661012e576001546001600160a01b0316331461012c5761012c6133eb565b005b600080fd5b34801561013f57600080fd5b5061015361014e3660046131ce565b610387565b6040519081526020015b60405180910390f35b34801561017257600080fd5b506101866101813660046130f0565b61039c565b60405161015d9190613235565b34801561019f57600080fd5b506101866101ae36600461315b565b6103bf565b3480156101bf57600080fd5b506101d36101ce366004612ed4565b610579565b6040805192835260208301919091520161015d565b3480156101f457600080fd5b50600154610208906001600160a01b031681565b6040516001600160a01b03909116815260200161015d565b61023361022e366004612fb9565b61063d565b6040805193845260208401929092529082015260600161015d565b34801561025a57600080fd5b5061018661026936600461315b565b610c0e565b61023361027c366004612ed4565b610cb7565b61018661028f366004613089565b610ec9565b3480156102a057600080fd5b506101536102af366004612f32565b6111d7565b3480156102c057600080fd5b506101d36102cf366004612de6565b61130d565b3480156102e057600080fd5b50600054610208906001600160a01b031681565b610186610302366004613089565b61153e565b34801561031357600080fd5b506101866103223660046130f0565b6117da565b34801561033357600080fd5b5061018661034236600461315b565b6117f4565b34801561035357600080fd5b50610233610362366004612e58565b611a1f565b34801561037357600080fd5b5061018661038236600461315b565b611b19565b6000610394848484611c28565b949350505050565b6000546060906103b6906001600160a01b03168484611d2c565b90505b92915050565b606081428110156103eb5760405162461bcd60e51b81526004016103e2906132de565b60405180910390fd5b6000546040805160208089028281018201909352888252610435936001600160a01b0316928c92918b918b91829190850190849080828437600092019190915250611eb992505050565b915086826001845161044791906133a2565b8151811061045757610457613417565b6020026020010151101561047d5760405162461bcd60e51b81526004016103e290613307565b61052f8686600081811061049357610493613417565b90506020020160208101906104a89190612da5565b60008054339161050f916001600160a01b0316908b908b90816104cd576104cd613417565b90506020020160208101906104e29190612da5565b8b8b60018181106104f5576104f5613417565b905060200201602081019061050a9190612da5565b612026565b8560008151811061052257610522613417565b60200260200101516120ab565b61056e828787808060200260200160405190810160405280939291908181526020018383602002808284376000920191909152508992506121e9915050565b509695505050505050565b600080824281101561059d5760405162461bcd60e51b81526004016103e2906132de565b6001546105b9908a906001600160a01b03168a8a8a308a61130d565b90935091506105c9898685612399565b600154604051632e1a7d4d60e01b8152600481018490526001600160a01b0390911690632e1a7d4d90602401600060405180830381600087803b15801561060f57600080fd5b505af1158015610623573d6000803e3d6000fd5b5050505061063185836124ca565b50965096945050505050565b600080600083428110156106635760405162461bcd60e51b81526004016103e2906132de565b6001548a516001600160a01b03909116908b9060009061068557610685613417565b60200260200101516001600160a01b0316146106b35760405162461bcd60e51b81526004016103e290613279565b600080546106cb906001600160a01b03168b8d611d2c565b905034816000815181106106e1576106e1613417565b602002602001015111156107075760405162461bcd60e51b81526004016103e2906132a7565b60015481516001600160a01b039091169063d0e30db090839060009061072f5761072f613417565b60200260200101516040518263ffffffff1660e01b81526004016000604051808303818588803b15801561076257600080fd5b505af1158015610776573d6000803e3d6000fd5b5050505050600160009054906101000a90046001600160a01b03166001600160a01b031663a9059cbb6107f160008054906101000a90046001600160a01b03168e6000815181106107c9576107c9613417565b60200260200101518f6001815181106107e4576107e4613417565b6020026020010151612026565b8360008151811061080457610804613417565b60200260200101516040518363ffffffff1660e01b815260040161083d9291906001600160a01b03929092168252602082015260400190565b602060405180830381600087803b15801561085757600080fd5b505af115801561086b573d6000803e3d6000fd5b505050506040513d601f19601f8201168201806040525081019061088f919061301b565b61089b5761089b6133eb565b6108a6818c896121e9565b88816000815181106108ba576108ba613417565b602002602001015111156109265760405162461bcd60e51b815260206004820152602d60248201527f6e6f7420616c6c6f7720626967676572207468616e206e61746976654375727260448201526c0cadcc6f2a6eec2e092dc9ac2f609b1b60648201526084016103e2565b60008b60018d5161093791906133a2565b8151811061094757610947613417565b6020026020010151905060008260008151811061096657610966613417565b60200260200101513461097991906133a2565b90506109ea82600160009054906101000a90046001600160a01b031685600187516109a491906133a2565b815181106109b4576109b4613417565b60200260200101518487600189516109cc91906133a2565b815181106109dc576109dc613417565b60200260200101518f6125c5565b60008054600154939a5091985091610a10916001600160a01b0390811691869116612026565b9050610a1e8333838b6120ab565b600160009054906101000a90046001600160a01b03166001600160a01b031663d0e30db0886040518263ffffffff1660e01b81526004016000604051808303818588803b158015610a6e57600080fd5b505af1158015610a82573d6000803e3d6000fd5b505060015460405163a9059cbb60e01b81526001600160a01b038681166004830152602482018d9052909116935063a9059cbb92506044019050602060405180830381600087803b158015610ad657600080fd5b505af1158015610aea573d6000803e3d6000fd5b505050506040513d601f19601f82011682018060405250810190610b0e919061301b565b610b1a57610b1a6133eb565b6040516335313c2160e11b81526001600160a01b038b81166004830152821690636a62784290602401602060405180830381600087803b158015610b5d57600080fd5b505af1158015610b71573d6000803e3d6000fd5b505050506040513d601f19601f82011682018060405250810190610b959190613070565b955083600081518110610baa57610baa613417565b602002602001015187610bbd9190613349565b341115610bfd57610bfd3385600081518110610bdb57610bdb613417565b602002602001015189610bee9190613349565b610bf890346133a2565b6124ca565b505050505096509650969350505050565b60608142811015610c315760405162461bcd60e51b81526004016103e2906132de565b6000546040805160208089028281018201909352888252610c7b936001600160a01b0316928c92918b918b91829190850190849080828437600092019190915250611d2c92505050565b91508682600081518110610c9157610c91613417565b6020026020010151111561047d5760405162461bcd60e51b81526004016103e2906132a7565b60008060008342811015610cdd5760405162461bcd60e51b81526004016103e2906132de565b600154610cf8908b906001600160a01b03168b348c8c6125c5565b6000805460015493975091955091610d1e916001600160a01b03908116918e9116612026565b9050610d2c8b3383886120ab565b600160009054906101000a90046001600160a01b03166001600160a01b031663d0e30db0856040518263ffffffff1660e01b81526004016000604051808303818588803b158015610d7c57600080fd5b505af1158015610d90573d6000803e3d6000fd5b505060015460405163a9059cbb60e01b81526001600160a01b038681166004830152602482018a9052909116935063a9059cbb92506044019050602060405180830381600087803b158015610de457600080fd5b505af1158015610df8573d6000803e3d6000fd5b505050506040513d601f19601f82011682018060405250810190610e1c919061301b565b610e2857610e286133eb565b6040516335313c2160e11b81526001600160a01b038881166004830152821690636a62784290602401602060405180830381600087803b158015610e6b57600080fd5b505af1158015610e7f573d6000803e3d6000fd5b505050506040513d601f19601f82011682018060405250810190610ea39190613070565b925083341115610ebb57610ebb33610bf886346133a2565b505096509650969350505050565b60608142811015610eec5760405162461bcd60e51b81526004016103e2906132de565b6001546001600160a01b03168686600081610f0957610f09613417565b9050602002016020810190610f1e9190612da5565b6001600160a01b031614610f445760405162461bcd60e51b81526004016103e290613279565b6000546040805160208089028281018201909352888252610f8e936001600160a01b0316928b92918b918b91829190850190849080828437600092019190915250611d2c92505050565b91503482600081518110610fa457610fa4613417565b60200260200101511115610fca5760405162461bcd60e51b81526004016103e2906132a7565b60015482516001600160a01b039091169063d0e30db0908490600090610ff257610ff2613417565b60200260200101516040518263ffffffff1660e01b81526004016000604051808303818588803b15801561102557600080fd5b505af1158015611039573d6000803e3d6000fd5b5050600154600080546001600160a01b03928316955063a9059cbb94506110989350909116908a908a908161107057611070613417565b90506020020160208101906110859190612da5565b8a8a60018181106104f5576104f5613417565b846000815181106110ab576110ab613417565b60200260200101516040518363ffffffff1660e01b81526004016110e49291906001600160a01b03929092168252602082015260400190565b602060405180830381600087803b1580156110fe57600080fd5b505af1158015611112573d6000803e3d6000fd5b505050506040513d601f19601f82011682018060405250810190611136919061301b565b611142576111426133eb565b611181828787808060200260200160405190810160405280939291908181526020018383602002808284376000920191909152508992506121e9915050565b8160008151811061119457611194613417565b60200260200101513411156111cd576111cd33836000815181106111ba576111ba613417565b602002602001015134610bf891906133a2565b5095945050505050565b600081428110156111fa5760405162461bcd60e51b81526004016103e2906132de565b60008a8a600081811061120f5761120f613417565b90506020020160208101906112249190612da5565b905060008b8b6112356001826133a2565b81811061124457611244613417565b90506020020160208101906112599190612da5565b9050600061126b8a8a8f8f8b8b610c0e565b905060008160008151811061128257611282613417565b60200260200101518c61129591906133a2565b90506112f3838584600186516112ab91906133a2565b815181106112bb576112bb613417565b60200260200101518486600188516112d391906133a2565b815181106112e3576112e3613417565b60200260200101518e8e8e611a1f565b909150905080965050505050505098975050505050505050565b60008082428110156113315760405162461bcd60e51b81526004016103e2906132de565b60008054611349906001600160a01b03168c8c612026565b6040516323b872dd60e01b81523360048201526001600160a01b03821660248201819052604482018c90529192506323b872dd90606401602060405180830381600087803b15801561139a57600080fd5b505af11580156113ae573d6000803e3d6000fd5b505050506040513d601f19601f820116820180604052508101906113d2919061301b565b5060405163226bf2d160e21b81526001600160a01b03878116600483015260009182918416906389afcb44906024016040805180830381600087803b15801561141a57600080fd5b505af115801561142e573d6000803e3d6000fd5b505050506040513d601f19601f820116820180604052508101906114529190613137565b9150915060006114628e8e612817565b5090508d6001600160a01b0316816001600160a01b031614611485578183611488565b82825b90975095508a8710156114dd5760405162461bcd60e51b815260206004820152601d60248201527f526f757465723a20494e53554646494349454e545f305f414d4f554e5400000060448201526064016103e2565b8986101561152d5760405162461bcd60e51b815260206004820152601d60248201527f526f757465723a20494e53554646494349454e545f315f414d4f554e5400000060448201526064016103e2565b505050505097509795505050505050565b606081428110156115615760405162461bcd60e51b81526004016103e2906132de565b6001546001600160a01b0316868660008161157e5761157e613417565b90506020020160208101906115939190612da5565b6001600160a01b0316146115b95760405162461bcd60e51b81526004016103e290613279565b6000546040805160208089028281018201909352888252611603936001600160a01b0316923492918b918b91829190850190849080828437600092019190915250611eb992505050565b915086826001845161161591906133a2565b8151811061162557611625613417565b6020026020010151101561164b5760405162461bcd60e51b81526004016103e290613307565b60015482516001600160a01b039091169063d0e30db090849060009061167357611673613417565b60200260200101516040518263ffffffff1660e01b81526004016000604051808303818588803b1580156116a657600080fd5b505af11580156116ba573d6000803e3d6000fd5b5050600154600080546001600160a01b03928316955063a9059cbb94506116f19350909116908a908a908161107057611070613417565b8460008151811061170457611704613417565b60200260200101516040518363ffffffff1660e01b815260040161173d9291906001600160a01b03929092168252602082015260400190565b602060405180830381600087803b15801561175757600080fd5b505af115801561176b573d6000803e3d6000fd5b505050506040513d601f19601f8201168201806040525081019061178f919061301b565b61179b5761179b6133eb565b6111cd828787808060200260200160405190810160405280939291908181526020018383602002808284376000920191909152508992506121e9915050565b6000546060906103b6906001600160a01b03168484611eb9565b606081428110156118175760405162461bcd60e51b81526004016103e2906132de565b600180546001600160a01b0316908790879061183390826133a2565b81811061184257611842613417565b90506020020160208101906118579190612da5565b6001600160a01b03161461187d5760405162461bcd60e51b81526004016103e290613279565b60005460408051602080890282810182019093528882526118c7936001600160a01b0316928c92918b918b91829190850190849080828437600092019190915250611eb992505050565b91508682600184516118d991906133a2565b815181106118e9576118e9613417565b6020026020010151101561190f5760405162461bcd60e51b81526004016103e290613307565b6119258686600081811061049357610493613417565b611964828787808060200260200160405190810160405280939291908181526020018383602002808284376000920191909152503092506121e9915050565b6001805483516001600160a01b0390911691632e1a7d4d918591611987916133a2565b8151811061199757611997613417565b60200260200101516040518263ffffffff1660e01b81526004016119bd91815260200190565b600060405180830381600087803b1580156119d757600080fd5b505af11580156119eb573d6000803e3d6000fd5b5050505061056e848360018551611a0291906133a2565b81518110611a1257611a12613417565b60200260200101516124ca565b60008060008342811015611a455760405162461bcd60e51b81526004016103e2906132de565b611a538c8c8c8c8c8c6125c5565b6000805492965090945090611a72906001600160a01b03168e8e612026565b9050611a808d3383886120ab565b611a8c8c3383876120ab565b6040516335313c2160e11b81526001600160a01b038881166004830152821690636a62784290602401602060405180830381600087803b158015611acf57600080fd5b505af1158015611ae3573d6000803e3d6000fd5b505050506040513d601f19601f82011682018060405250810190611b079190613070565b92505050985098509895505050505050565b60608142811015611b3c5760405162461bcd60e51b81526004016103e2906132de565b600180546001600160a01b03169087908790611b5890826133a2565b818110611b6757611b67613417565b9050602002016020810190611b7c9190612da5565b6001600160a01b031614611ba25760405162461bcd60e51b81526004016103e290613279565b6000546040805160208089028281018201909352888252611bec936001600160a01b0316928c92918b918b91829190850190849080828437600092019190915250611d2c92505050565b91508682600081518110611c0257611c02613417565b6020026020010151111561190f5760405162461bcd60e51b81526004016103e2906132a7565b6000808411611c835760405162461bcd60e51b815260206004820152602160248201527f48656c7065723a20494e53554646494349454e545f494e5055545f414d4f554e6044820152601560fa1b60648201526084016103e2565b600083118015611c935750600082115b611cdf5760405162461bcd60e51b815260206004820152601e60248201527f48656c7065723a20494e53554646494349454e545f4c4951554944495459000060448201526064016103e2565b6000611ced856103e56128f8565b90506000611cfb82856128f8565b90506000611d1583611d0f886103e86128f8565b9061295f565b9050611d218183613361565b979650505050505050565b6060600282511015611d775760405162461bcd60e51b8152602060048201526014602482015273090cad8e0cae47440929cac82989288bea082a8960631b60448201526064016103e2565b815167ffffffffffffffff811115611d9157611d9161342d565b604051908082528060200260200182016040528015611dba578160200160208202803683370190505b509050828160018351611dcd91906133a2565b81518110611ddd57611ddd613417565b602002602001018181525050600060018351611df991906133a2565b90505b8015611eb157600080611e4c8786611e156001876133a2565b81518110611e2557611e25613417565b6020026020010151878681518110611e3f57611e3f613417565b60200260200101516129b4565b91509150611e74848481518110611e6557611e65613417565b60200260200101518383612a8b565b84611e806001866133a2565b81518110611e9057611e90613417565b60200260200101818152505050508080611ea9906133b9565b915050611dfc565b509392505050565b6060600282511015611f045760405162461bcd60e51b8152602060048201526014602482015273090cad8e0cae47440929cac82989288bea082a8960631b60448201526064016103e2565b815167ffffffffffffffff811115611f1e57611f1e61342d565b604051908082528060200260200182016040528015611f47578160200160208202803683370190505b5090508281600081518110611f5e57611f5e613417565b60200260200101818152505060005b60018351611f7b91906133a2565b811015611eb157600080611fc187868581518110611f9b57611f9b613417565b602002602001015187866001611fb19190613349565b81518110611e3f57611e3f613417565b91509150611fe9848481518110611fda57611fda613417565b60200260200101518383611c28565b84611ff5856001613349565b8151811061200557612005613417565b6020026020010181815250505050808061201e906133d0565b915050611f6d565b60405163e6a4390560e01b81526001600160a01b03838116600483015282811660248301526000919085169063e6a439059060440160206040518083038186803b15801561207357600080fd5b505afa158015612087573d6000803e3d6000fd5b505050506040513d601f19601f820116820180604052508101906103949190612dc9565b604080516001600160a01b0385811660248301528481166044830152606480830185905283518084039091018152608490920183526020820180516001600160e01b03166323b872dd60e01b179052915160009283929088169161210f91906131fa565b6000604051808303816000865af19150503d806000811461214c576040519150601f19603f3d011682016040523d82523d6000602084013e612151565b606091505b509150915081801561217b57508051158061217b57508080602001905181019061217b919061301b565b6121e15760405162461bcd60e51b815260206004820152603160248201527f5472616e7366657248656c7065723a3a7472616e7366657246726f6d3a207472604482015270185b9cd9995c919c9bdb4819985a5b1959607a1b60648201526084016103e2565b505050505050565b60005b600183516121fa91906133a2565b8110156123935760008084838151811061221657612216613417565b60200260200101518584600161222c9190613349565b8151811061223c5761223c613417565b60200260200101519150915060006122548383612817565b509050600087612265866001613349565b8151811061227557612275613417565b60200260200101519050600080836001600160a01b0316866001600160a01b0316146122a3578260006122a7565b6000835b91509150600060028a516122bb91906133a2565b88106122c757886122f4565b6000546122f4906001600160a01b0316878c6122e48c6002613349565b815181106107e4576107e4613417565b60005490915061230e906001600160a01b03168888612026565b6040516336cd320560e11b815260048101859052602481018490526001600160a01b0383811660448301529190911690636d9a640a90606401600060405180830381600087803b15801561236157600080fd5b505af1158015612375573d6000803e3d6000fd5b5050505050505050505050808061238b906133d0565b9150506121ec565b50505050565b604080516001600160a01b038481166024830152604480830185905283518084039091018152606490920183526020820180516001600160e01b031663a9059cbb60e01b17905291516000928392908716916123f591906131fa565b6000604051808303816000865af19150503d8060008114612432576040519150601f19603f3d011682016040523d82523d6000602084013e612437565b606091505b5091509150818015612461575080511580612461575080806020019051810190612461919061301b565b6124c35760405162461bcd60e51b815260206004820152602d60248201527f5472616e7366657248656c7065723a3a736166655472616e736665723a20747260448201526c185b9cd9995c8819985a5b1959609a1b60648201526084016103e2565b5050505050565b604080516000808252602082019092526001600160a01b0384169083906040516124f491906131fa565b60006040518083038185875af1925050503d8060008114612531576040519150601f19603f3d011682016040523d82523d6000602084013e612536565b606091505b50509050806125c05760405162461bcd60e51b815260206004820152604a60248201527f5472616e7366657248656c7065723a3a736166655472616e736665724e61746960448201527f766543757272656e63793a204e617469766543757272656e6379207472616e7360648201526919995c8819985a5b195960b21b608482015260a4016103e2565b505050565b6000805460405163e6a4390560e01b81526001600160a01b03898116600483015288811660248301528392839291169063e6a439059060440160206040518083038186803b15801561261657600080fd5b505afa15801561262a573d6000803e3d6000fd5b505050506040513d601f19601f8201168201806040525081019061264e9190612dc9565b6001600160a01b031614156126e6576000546040516364e329cb60e11b81526001600160a01b038a8116600483015289811660248301529091169063c9c6539690604401602060405180830381600087803b1580156126ac57600080fd5b505af11580156126c0573d6000803e3d6000fd5b505050506040513d601f19601f820116820180604052508101906126e49190612dc9565b505b600080548190612700906001600160a01b03168b8b6129b4565b91509150816000148015612712575080155b156127225787935086925061280a565b600061272f898484612b8a565b905087811161279357858110156127885760405162461bcd60e51b815260206004820152601d60248201527f526f757465723a20494e53554646494349454e545f315f414d4f554e5400000060448201526064016103e2565b889450925082612808565b60006127a0898486612b8a565b9050898111156127b2576127b26133eb565b878110156128025760405162461bcd60e51b815260206004820152601d60248201527f526f757465723a20494e53554646494349454e545f305f414d4f554e5400000060448201526064016103e2565b94508793505b505b5050965096945050505050565b600080826001600160a01b0316846001600160a01b0316141561287c5760405162461bcd60e51b815260206004820152601b60248201527f48656c7065723a204944454e544943414c5f414444524553534553000000000060448201526064016103e2565b826001600160a01b0316846001600160a01b03161061289c57828461289f565b83835b90925090506001600160a01b0382166128f15760405162461bcd60e51b815260206004820152601460248201527348656c7065723a205a45524f5f4144445245535360601b60448201526064016103e2565b9250929050565b600081158061291c5750828261290e8183613383565b925061291a9083613361565b145b6103b95760405162461bcd60e51b815260206004820152601460248201527364732d6d6174682d6d756c2d6f766572666c6f7760601b60448201526064016103e2565b60008261296c8382613349565b91508110156103b95760405162461bcd60e51b815260206004820152601460248201527364732d6d6174682d6164642d6f766572666c6f7760601b60448201526064016103e2565b60008060006129c38585612817565b5090506000806129d4888888612026565b6001600160a01b0316630902f1ac6040518163ffffffff1660e01b8152600401604080518083038186803b158015612a0b57600080fd5b505afa158015612a1f573d6000803e3d6000fd5b505050506040513d601f19601f82011682018060405250810190612a43919061303d565b6001600160701b031691506001600160701b03169150826001600160a01b0316876001600160a01b031614612a79578082612a7c565b81815b90999098509650505050505050565b6000808411612ae75760405162461bcd60e51b815260206004820152602260248201527f48656c7065723a20494e53554646494349454e545f4f55545055545f414d4f55604482015261139560f21b60648201526084016103e2565b600083118015612af75750600082115b612b435760405162461bcd60e51b815260206004820152601e60248201527f48656c7065723a20494e53554646494349454e545f4c4951554944495459000060448201526064016103e2565b6000612b5b6103e8612b5586886128f8565b906128f8565b90506000612b6f6103e5612b558689612c3b565b9050612b806001611d0f8385613361565b9695505050505050565b6000808411612bd15760405162461bcd60e51b8152602060048201526013602482015272125394d551919250d251539517d05353d55395606a1b60448201526064016103e2565b600083118015612be15750600082115b612c265760405162461bcd60e51b8152602060048201526016602482015275494e53554646494349454e545f4c495155494449545960501b60448201526064016103e2565b82612c3185846128f8565b6103949190613361565b600082612c4883826133a2565b91508111156103b95760405162461bcd60e51b815260206004820152601560248201527464732d6d6174682d7375622d756e646572666c6f7760581b60448201526064016103e2565b8035612c9c81613443565b919050565b60008083601f840112612cb357600080fd5b50813567ffffffffffffffff811115612ccb57600080fd5b6020830191508360208260051b85010111156128f157600080fd5b600082601f830112612cf757600080fd5b8135602067ffffffffffffffff80831115612d1457612d1461342d565b8260051b604051601f19603f83011681018181108482111715612d3957612d3961342d565b60405284815283810192508684018288018501891015612d5857600080fd5b600092505b85831015612d8257612d6e81612c91565b845292840192600192909201918401612d5d565b50979650505050505050565b80516001600160701b0381168114612c9c57600080fd5b600060208284031215612db757600080fd5b8135612dc281613443565b9392505050565b600060208284031215612ddb57600080fd5b8151612dc281613443565b600080600080600080600060e0888a031215612e0157600080fd5b8735612e0c81613443565b96506020880135612e1c81613443565b955060408801359450606088013593506080880135925060a0880135612e4181613443565b8092505060c0880135905092959891949750929550565b600080600080600080600080610100898b031215612e7557600080fd5b8835612e8081613443565b97506020890135612e9081613443565b965060408901359550606089013594506080890135935060a0890135925060c0890135612ebc81613443565b8092505060e089013590509295985092959890939650565b60008060008060008060c08789031215612eed57600080fd5b8635612ef881613443565b95506020870135945060408701359350606087013592506080870135612f1d81613443565b8092505060a087013590509295509295509295565b60008060008060008060008060e0898b031215612f4e57600080fd5b883567ffffffffffffffff811115612f6557600080fd5b612f718b828c01612ca1565b9099509750506020890135955060408901359450606089013593506080890135925060a0890135612fa181613443565b8092505060c089013590509295985092959890939650565b60008060008060008060c08789031215612fd257600080fd5b863567ffffffffffffffff811115612fe957600080fd5b612ff589828a01612ce6565b9650506020870135945060408701359350606087013592506080870135612f1d81613443565b60006020828403121561302d57600080fd5b81518015158114612dc257600080fd5b6000806040838503121561305057600080fd5b61305983612d8e565b915061306760208401612d8e565b90509250929050565b60006020828403121561308257600080fd5b5051919050565b6000806000806000608086880312156130a157600080fd5b85359450602086013567ffffffffffffffff8111156130bf57600080fd5b6130cb88828901612ca1565b90955093505060408601356130df81613443565b949793965091946060013592915050565b6000806040838503121561310357600080fd5b82359150602083013567ffffffffffffffff81111561312157600080fd5b61312d85828601612ce6565b9150509250929050565b6000806040838503121561314a57600080fd5b505080516020909101519092909150565b60008060008060008060a0878903121561317457600080fd5b8635955060208701359450604087013567ffffffffffffffff81111561319957600080fd5b6131a589828a01612ca1565b90955093505060608701356131b981613443565b80925050608087013590509295509295509295565b6000806000606084860312156131e357600080fd5b505081359360208301359350604090920135919050565b6000825160005b8181101561321b5760208186018101518583015201613201565b8181111561322a576000828501525b509190910192915050565b6020808252825182820181905260009190848201906040850190845b8181101561326d57835183529284019291840191600101613251565b50909695505050505050565b6020808252601490820152730a4deeae8cae47440929cac82989288bea082a8960631b604082015260600190565b6020808252601e908201527f526f757465723a204558434553534956455f494e5055545f414d4f554e540000604082015260600190565b6020808252600f908201526e149bdd5d195c8e8811561412549151608a1b604082015260600190565b60208082526022908201527f526f757465723a20494e53554646494349454e545f4f55545055545f414d4f55604082015261139560f21b606082015260800190565b6000821982111561335c5761335c613401565b500190565b60008261337e57634e487b7160e01b600052601260045260246000fd5b500490565b600081600019048311821515161561339d5761339d613401565b500290565b6000828210156133b4576133b4613401565b500390565b6000816133c8576133c8613401565b506000190190565b60006000198214156133e4576133e4613401565b5060010190565b634e487b7160e01b600052600160045260246000fd5b634e487b7160e01b600052601160045260246000fd5b634e487b7160e01b600052603260045260246000fd5b634e487b7160e01b600052604160045260246000fd5b6001600160a01b038116811461345857600080fd5b5056fea264697066735822122083e2b98514ccea73df36711c05436e0c8b4afee9bd814831b836b44594ce254664736f6c63430008070033",
			"opcodes": "PUSH1 0x80 PUSH1 0x40 MSTORE CALLVALUE DUP1 ISZERO PUSH3 0x11 JUMPI PUSH1 0x0 DUP1 REVERT JUMPDEST POP PUSH1 0x40 MLOAD PUSH3 0x355C CODESIZE SUB DUP1 PUSH3 0x355C DUP4 CODECOPY DUP2 ADD PUSH1 0x40 DUP2 SWAP1 MSTORE PUSH3 0x34 SWAP2 PUSH3 0x83 JUMP JUMPDEST PUSH1 0x0 DUP1 SLOAD PUSH1 0x1 PUSH1 0x1 PUSH1 0xA0 SHL SUB SWAP4 DUP5 AND PUSH1 0x1 PUSH1 0x1 PUSH1 0xA0 SHL SUB NOT SWAP2 DUP3 AND OR SWAP1 SWAP2 SSTORE PUSH1 0x1 DUP1 SLOAD SWAP3 SWAP1 SWAP4 AND SWAP2 AND OR SWAP1 SSTORE PUSH3 0xBB JUMP JUMPDEST DUP1 MLOAD PUSH1 0x1 PUSH1 0x1 PUSH1 0xA0 SHL SUB DUP2 AND DUP2 EQ PUSH3 0x7E JUMPI PUSH1 0x0 DUP1 REVERT JUMPDEST SWAP2 SWAP1 POP JUMP JUMPDEST PUSH1 0x0 DUP1 PUSH1 0x40 DUP4 DUP6 SUB SLT ISZERO PUSH3 0x97 JUMPI PUSH1 0x0 DUP1 REVERT JUMPDEST PUSH3 0xA2 DUP4 PUSH3 0x66 JUMP JUMPDEST SWAP2 POP PUSH3 0xB2 PUSH1 0x20 DUP5 ADD PUSH3 0x66 JUMP JUMPDEST SWAP1 POP SWAP3 POP SWAP3 SWAP1 POP JUMP JUMPDEST PUSH2 0x3491 DUP1 PUSH3 0xCB PUSH1 0x0 CODECOPY PUSH1 0x0 RETURN INVALID PUSH1 0x80 PUSH1 0x40 MSTORE PUSH1 0x4 CALLDATASIZE LT PUSH2 0x10D JUMPI PUSH1 0x0 CALLDATALOAD PUSH1 0xE0 SHR DUP1 PUSH4 0x9BE7614D GT PUSH2 0x95 JUMPI DUP1 PUSH4 0xCD1BD0D9 GT PUSH2 0x64 JUMPI DUP1 PUSH4 0xCD1BD0D9 EQ PUSH2 0x2F4 JUMPI DUP1 PUSH4 0xD06CA61F EQ PUSH2 0x307 JUMPI DUP1 PUSH4 0xDCFF1B94 EQ PUSH2 0x327 JUMPI DUP1 PUSH4 0xE8E33700 EQ PUSH2 0x347 JUMPI DUP1 PUSH4 0xF85B7C8B EQ PUSH2 0x367 JUMPI PUSH1 0x0 DUP1 REVERT JUMPDEST DUP1 PUSH4 0x9BE7614D EQ PUSH2 0x281 JUMPI DUP1 PUSH4 0xB1EA8292 EQ PUSH2 0x294 JUMPI DUP1 PUSH4 0xBAA2ABDE EQ PUSH2 0x2B4 JUMPI DUP1 PUSH4 0xC45A0155 EQ PUSH2 0x2D4 JUMPI PUSH1 0x0 DUP1 REVERT JUMPDEST DUP1 PUSH4 0x419591ED GT PUSH2 0xDC JUMPI DUP1 PUSH4 0x419591ED EQ PUSH2 0x1E8 JUMPI DUP1 PUSH4 0x68658967 EQ PUSH2 0x220 JUMPI DUP1 PUSH4 0x85F8C259 EQ PUSH2 0x133 JUMPI DUP1 PUSH4 0x8803DBEE EQ PUSH2 0x24E JUMPI DUP1 PUSH4 0x937CA0DA EQ PUSH2 0x26E JUMPI PUSH1 0x0 DUP1 REVERT JUMPDEST DUP1 PUSH4 0x54D50D4 EQ PUSH2 0x133 JUMPI DUP1 PUSH4 0x1F00CA74 EQ PUSH2 0x166 JUMPI DUP1 PUSH4 0x38ED1739 EQ PUSH2 0x193 JUMPI DUP1 PUSH4 0x403BF1F2 EQ PUSH2 0x1B3 JUMPI PUSH1 0x0 DUP1 REVERT JUMPDEST CALLDATASIZE PUSH2 0x12E JUMPI PUSH1 0x1 SLOAD PUSH1 0x1 PUSH1 0x1 PUSH1 0xA0 SHL SUB AND CALLER EQ PUSH2 0x12C JUMPI PUSH2 0x12C PUSH2 0x33EB JUMP JUMPDEST STOP JUMPDEST PUSH1 0x0 DUP1 REVERT JUMPDEST CALLVALUE DUP1 ISZERO PUSH2 0x13F JUMPI PUSH1 0x0 DUP1 REVERT JUMPDEST POP PUSH2 0x153 PUSH2 0x14E CALLDATASIZE PUSH1 0x4 PUSH2 0x31CE JUMP JUMPDEST PUSH2 0x387 JUMP JUMPDEST PUSH1 0x40 MLOAD SWAP1 DUP2 MSTORE PUSH1 0x20 ADD JUMPDEST PUSH1 0x40 MLOAD DUP1 SWAP2 SUB SWAP1 RETURN JUMPDEST CALLVALUE DUP1 ISZERO PUSH2 0x172 JUMPI PUSH1 0x0 DUP1 REVERT JUMPDEST POP PUSH2 0x186 PUSH2 0x181 CALLDATASIZE PUSH1 0x4 PUSH2 0x30F0 JUMP JUMPDEST PUSH2 0x39C JUMP JUMPDEST PUSH1 0x40 MLOAD PUSH2 0x15D SWAP2 SWAP1 PUSH2 0x3235 JUMP JUMPDEST CALLVALUE DUP1 ISZERO PUSH2 0x19F JUMPI PUSH1 0x0 DUP1 REVERT JUMPDEST POP PUSH2 0x186 PUSH2 0x1AE CALLDATASIZE PUSH1 0x4 PUSH2 0x315B JUMP JUMPDEST PUSH2 0x3BF JUMP JUMPDEST CALLVALUE DUP1 ISZERO PUSH2 0x1BF JUMPI PUSH1 0x0 DUP1 REVERT JUMPDEST POP PUSH2 0x1D3 PUSH2 0x1CE CALLDATASIZE PUSH1 0x4 PUSH2 0x2ED4 JUMP JUMPDEST PUSH2 0x579 JUMP JUMPDEST PUSH1 0x40 DUP1 MLOAD SWAP3 DUP4 MSTORE PUSH1 0x20 DUP4 ADD SWAP2 SWAP1 SWAP2 MSTORE ADD PUSH2 0x15D JUMP JUMPDEST CALLVALUE DUP1 ISZERO PUSH2 0x1F4 JUMPI PUSH1 0x0 DUP1 REVERT JUMPDEST POP PUSH1 0x1 SLOAD PUSH2 0x208 SWAP1 PUSH1 0x1 PUSH1 0x1 PUSH1 0xA0 SHL SUB AND DUP2 JUMP JUMPDEST PUSH1 0x40 MLOAD PUSH1 0x1 PUSH1 0x1 PUSH1 0xA0 SHL SUB SWAP1 SWAP2 AND DUP2 MSTORE PUSH1 0x20 ADD PUSH2 0x15D JUMP JUMPDEST PUSH2 0x233 PUSH2 0x22E CALLDATASIZE PUSH1 0x4 PUSH2 0x2FB9 JUMP JUMPDEST PUSH2 0x63D JUMP JUMPDEST PUSH1 0x40 DUP1 MLOAD SWAP4 DUP5 MSTORE PUSH1 0x20 DUP5 ADD SWAP3 SWAP1 SWAP3 MSTORE SWAP1 DUP3 ADD MSTORE PUSH1 0x60 ADD PUSH2 0x15D JUMP JUMPDEST CALLVALUE DUP1 ISZERO PUSH2 0x25A JUMPI PUSH1 0x0 DUP1 REVERT JUMPDEST POP PUSH2 0x186 PUSH2 0x269 CALLDATASIZE PUSH1 0x4 PUSH2 0x315B JUMP JUMPDEST PUSH2 0xC0E JUMP JUMPDEST PUSH2 0x233 PUSH2 0x27C CALLDATASIZE PUSH1 0x4 PUSH2 0x2ED4 JUMP JUMPDEST PUSH2 0xCB7 JUMP JUMPDEST PUSH2 0x186 PUSH2 0x28F CALLDATASIZE PUSH1 0x4 PUSH2 0x3089 JUMP JUMPDEST PUSH2 0xEC9 JUMP JUMPDEST CALLVALUE DUP1 ISZERO PUSH2 0x2A0 JUMPI PUSH1 0x0 DUP1 REVERT JUMPDEST POP PUSH2 0x153 PUSH2 0x2AF CALLDATASIZE PUSH1 0x4 PUSH2 0x2F32 JUMP JUMPDEST PUSH2 0x11D7 JUMP JUMPDEST CALLVALUE DUP1 ISZERO PUSH2 0x2C0 JUMPI PUSH1 0x0 DUP1 REVERT JUMPDEST POP PUSH2 0x1D3 PUSH2 0x2CF CALLDATASIZE PUSH1 0x4 PUSH2 0x2DE6 JUMP JUMPDEST PUSH2 0x130D JUMP JUMPDEST CALLVALUE DUP1 ISZERO PUSH2 0x2E0 JUMPI PUSH1 0x0 DUP1 REVERT JUMPDEST POP PUSH1 0x0 SLOAD PUSH2 0x208 SWAP1 PUSH1 0x1 PUSH1 0x1 PUSH1 0xA0 SHL SUB AND DUP2 JUMP JUMPDEST PUSH2 0x186 PUSH2 0x302 CALLDATASIZE PUSH1 0x4 PUSH2 0x3089 JUMP JUMPDEST PUSH2 0x153E JUMP JUMPDEST CALLVALUE DUP1 ISZERO PUSH2 0x313 JUMPI PUSH1 0x0 DUP1 REVERT JUMPDEST POP PUSH2 0x186 PUSH2 0x322 CALLDATASIZE PUSH1 0x4 PUSH2 0x30F0 JUMP JUMPDEST PUSH2 0x17DA JUMP JUMPDEST CALLVALUE DUP1 ISZERO PUSH2 0x333 JUMPI PUSH1 0x0 DUP1 REVERT JUMPDEST POP PUSH2 0x186 PUSH2 0x342 CALLDATASIZE PUSH1 0x4 PUSH2 0x315B JUMP JUMPDEST PUSH2 0x17F4 JUMP JUMPDEST CALLVALUE DUP1 ISZERO PUSH2 0x353 JUMPI PUSH1 0x0 DUP1 REVERT JUMPDEST POP PUSH2 0x233 PUSH2 0x362 CALLDATASIZE PUSH1 0x4 PUSH2 0x2E58 JUMP JUMPDEST PUSH2 0x1A1F JUMP JUMPDEST CALLVALUE DUP1 ISZERO PUSH2 0x373 JUMPI PUSH1 0x0 DUP1 REVERT JUMPDEST POP PUSH2 0x186 PUSH2 0x382 CALLDATASIZE PUSH1 0x4 PUSH2 0x315B JUMP JUMPDEST PUSH2 0x1B19 JUMP JUMPDEST PUSH1 0x0 PUSH2 0x394 DUP5 DUP5 DUP5 PUSH2 0x1C28 JUMP JUMPDEST SWAP5 SWAP4 POP POP POP POP JUMP JUMPDEST PUSH1 0x0 SLOAD PUSH1 0x60 SWAP1 PUSH2 0x3B6 SWAP1 PUSH1 0x1 PUSH1 0x1 PUSH1 0xA0 SHL SUB AND DUP5 DUP5 PUSH2 0x1D2C JUMP JUMPDEST SWAP1 POP JUMPDEST SWAP3 SWAP2 POP POP JUMP JUMPDEST PUSH1 0x60 DUP2 TIMESTAMP DUP2 LT ISZERO PUSH2 0x3EB JUMPI PUSH1 0x40 MLOAD PUSH3 0x461BCD PUSH1 0xE5 SHL DUP2 MSTORE PUSH1 0x4 ADD PUSH2 0x3E2 SWAP1 PUSH2 0x32DE JUMP JUMPDEST PUSH1 0x40 MLOAD DUP1 SWAP2 SUB SWAP1 REVERT JUMPDEST PUSH1 0x0 SLOAD PUSH1 0x40 DUP1 MLOAD PUSH1 0x20 DUP1 DUP10 MUL DUP3 DUP2 ADD DUP3 ADD SWAP1 SWAP4 MSTORE DUP9 DUP3 MSTORE PUSH2 0x435 SWAP4 PUSH1 0x1 PUSH1 0x1 PUSH1 0xA0 SHL SUB AND SWAP3 DUP13 SWAP3 SWAP2 DUP12 SWAP2 DUP12 SWAP2 DUP3 SWAP2 SWAP1 DUP6 ADD SWAP1 DUP5 SWAP1 DUP1 DUP3 DUP5 CALLDATACOPY PUSH1 0x0 SWAP3 ADD SWAP2 SWAP1 SWAP2 MSTORE POP PUSH2 0x1EB9 SWAP3 POP POP POP JUMP JUMPDEST SWAP2 POP DUP7 DUP3 PUSH1 0x1 DUP5 MLOAD PUSH2 0x447 SWAP2 SWAP1 PUSH2 0x33A2 JUMP JUMPDEST DUP2 MLOAD DUP2 LT PUSH2 0x457 JUMPI PUSH2 0x457 PUSH2 0x3417 JUMP JUMPDEST PUSH1 0x20 MUL PUSH1 0x20 ADD ADD MLOAD LT ISZERO PUSH2 0x47D JUMPI PUSH1 0x40 MLOAD PUSH3 0x461BCD PUSH1 0xE5 SHL DUP2 MSTORE PUSH1 0x4 ADD PUSH2 0x3E2 SWAP1 PUSH2 0x3307 JUMP JUMPDEST PUSH2 0x52F DUP7 DUP7 PUSH1 0x0 DUP2 DUP2 LT PUSH2 0x493 JUMPI PUSH2 0x493 PUSH2 0x3417 JUMP JUMPDEST SWAP1 POP PUSH1 0x20 MUL ADD PUSH1 0x20 DUP2 ADD SWAP1 PUSH2 0x4A8 SWAP2 SWAP1 PUSH2 0x2DA5 JUMP JUMPDEST PUSH1 0x0 DUP1 SLOAD CALLER SWAP2 PUSH2 0x50F SWAP2 PUSH1 0x1 PUSH1 0x1 PUSH1 0xA0 SHL SUB AND SWAP1 DUP12 SWAP1 DUP12 SWAP1 DUP2 PUSH2 0x4CD JUMPI PUSH2 0x4CD PUSH2 0x3417 JUMP JUMPDEST SWAP1 POP PUSH1 0x20 MUL ADD PUSH1 0x20 DUP2 ADD SWAP1 PUSH2 0x4E2 SWAP2 SWAP1 PUSH2 0x2DA5 JUMP JUMPDEST DUP12 DUP12 PUSH1 0x1 DUP2 DUP2 LT PUSH2 0x4F5 JUMPI PUSH2 0x4F5 PUSH2 0x3417 JUMP JUMPDEST SWAP1 POP PUSH1 0x20 MUL ADD PUSH1 0x20 DUP2 ADD SWAP1 PUSH2 0x50A SWAP2 SWAP1 PUSH2 0x2DA5 JUMP JUMPDEST PUSH2 0x2026 JUMP JUMPDEST DUP6 PUSH1 0x0 DUP2 MLOAD DUP2 LT PUSH2 0x522 JUMPI PUSH2 0x522 PUSH2 0x3417 JUMP JUMPDEST PUSH1 0x20 MUL PUSH1 0x20 ADD ADD MLOAD PUSH2 0x20AB JUMP JUMPDEST PUSH2 0x56E DUP3 DUP8 DUP8 DUP1 DUP1 PUSH1 0x20 MUL PUSH1 0x20 ADD PUSH1 0x40 MLOAD SWAP1 DUP2 ADD PUSH1 0x40 MSTORE DUP1 SWAP4 SWAP3 SWAP2 SWAP1 DUP2 DUP2 MSTORE PUSH1 0x20 ADD DUP4 DUP4 PUSH1 0x20 MUL DUP1 DUP3 DUP5 CALLDATACOPY PUSH1 0x0 SWAP3 ADD SWAP2 SWAP1 SWAP2 MSTORE POP DUP10 SWAP3 POP PUSH2 0x21E9 SWAP2 POP POP JUMP JUMPDEST POP SWAP7 SWAP6 POP POP POP POP POP POP JUMP JUMPDEST PUSH1 0x0 DUP1 DUP3 TIMESTAMP DUP2 LT ISZERO PUSH2 0x59D JUMPI PUSH1 0x40 MLOAD PUSH3 0x461BCD PUSH1 0xE5 SHL DUP2 MSTORE PUSH1 0x4 ADD PUSH2 0x3E2 SWAP1 PUSH2 0x32DE JUMP JUMPDEST PUSH1 0x1 SLOAD PUSH2 0x5B9 SWAP1 DUP11 SWAP1 PUSH1 0x1 PUSH1 0x1 PUSH1 0xA0 SHL SUB AND DUP11 DUP11 DUP11 ADDRESS DUP11 PUSH2 0x130D JUMP JUMPDEST SWAP1 SWAP4 POP SWAP2 POP PUSH2 0x5C9 DUP10 DUP7 DUP6 PUSH2 0x2399 JUMP JUMPDEST PUSH1 0x1 SLOAD PUSH1 0x40 MLOAD PUSH4 0x2E1A7D4D PUSH1 0xE0 SHL DUP2 MSTORE PUSH1 0x4 DUP2 ADD DUP5 SWAP1 MSTORE PUSH1 0x1 PUSH1 0x1 PUSH1 0xA0 SHL SUB SWAP1 SWAP2 AND SWAP1 PUSH4 0x2E1A7D4D SWAP1 PUSH1 0x24 ADD PUSH1 0x0 PUSH1 0x40 MLOAD DUP1 DUP4 SUB DUP2 PUSH1 0x0 DUP8 DUP1 EXTCODESIZE ISZERO DUP1 ISZERO PUSH2 0x60F JUMPI PUSH1 0x0 DUP1 REVERT JUMPDEST POP GAS CALL ISZERO DUP1 ISZERO PUSH2 0x623 JUMPI RETURNDATASIZE PUSH1 0x0 DUP1 RETURNDATACOPY RETURNDATASIZE PUSH1 0x0 REVERT JUMPDEST POP POP POP POP PUSH2 0x631 DUP6 DUP4 PUSH2 0x24CA JUMP JUMPDEST POP SWAP7 POP SWAP7 SWAP5 POP POP POP POP POP JUMP JUMPDEST PUSH1 0x0 DUP1 PUSH1 0x0 DUP4 TIMESTAMP DUP2 LT ISZERO PUSH2 0x663 JUMPI PUSH1 0x40 MLOAD PUSH3 0x461BCD PUSH1 0xE5 SHL DUP2 MSTORE PUSH1 0x4 ADD PUSH2 0x3E2 SWAP1 PUSH2 0x32DE JUMP JUMPDEST PUSH1 0x1 SLOAD DUP11 MLOAD PUSH1 0x1 PUSH1 0x1 PUSH1 0xA0 SHL SUB SWAP1 SWAP2 AND SWAP1 DUP12 SWAP1 PUSH1 0x0 SWAP1 PUSH2 0x685 JUMPI PUSH2 0x685 PUSH2 0x3417 JUMP JUMPDEST PUSH1 0x20 MUL PUSH1 0x20 ADD ADD MLOAD PUSH1 0x1 PUSH1 0x1 PUSH1 0xA0 SHL SUB AND EQ PUSH2 0x6B3 JUMPI PUSH1 0x40 MLOAD PUSH3 0x461BCD PUSH1 0xE5 SHL DUP2 MSTORE PUSH1 0x4 ADD PUSH2 0x3E2 SWAP1 PUSH2 0x3279 JUMP JUMPDEST PUSH1 0x0 DUP1 SLOAD PUSH2 0x6CB SWAP1 PUSH1 0x1 PUSH1 0x1 PUSH1 0xA0 SHL SUB AND DUP12 DUP14 PUSH2 0x1D2C JUMP JUMPDEST SWAP1 POP CALLVALUE DUP2 PUSH1 0x0 DUP2 MLOAD DUP2 LT PUSH2 0x6E1 JUMPI PUSH2 0x6E1 PUSH2 0x3417 JUMP JUMPDEST PUSH1 0x20 MUL PUSH1 0x20 ADD ADD MLOAD GT ISZERO PUSH2 0x707 JUMPI PUSH1 0x40 MLOAD PUSH3 0x461BCD PUSH1 0xE5 SHL DUP2 MSTORE PUSH1 0x4 ADD PUSH2 0x3E2 SWAP1 PUSH2 0x32A7 JUMP JUMPDEST PUSH1 0x1 SLOAD DUP2 MLOAD PUSH1 0x1 PUSH1 0x1 PUSH1 0xA0 SHL SUB SWAP1 SWAP2 AND SWAP1 PUSH4 0xD0E30DB0 SWAP1 DUP4 SWAP1 PUSH1 0x0 SWAP1 PUSH2 0x72F JUMPI PUSH2 0x72F PUSH2 0x3417 JUMP JUMPDEST PUSH1 0x20 MUL PUSH1 0x20 ADD ADD MLOAD PUSH1 0x40 MLOAD DUP3 PUSH4 0xFFFFFFFF AND PUSH1 0xE0 SHL DUP2 MSTORE PUSH1 0x4 ADD PUSH1 0x0 PUSH1 0x40 MLOAD DUP1 DUP4 SUB DUP2 DUP6 DUP9 DUP1 EXTCODESIZE ISZERO DUP1 ISZERO PUSH2 0x762 JUMPI PUSH1 0x0 DUP1 REVERT JUMPDEST POP GAS CALL ISZERO DUP1 ISZERO PUSH2 0x776 JUMPI RETURNDATASIZE PUSH1 0x0 DUP1 RETURNDATACOPY RETURNDATASIZE PUSH1 0x0 REVERT JUMPDEST POP POP POP POP POP PUSH1 0x1 PUSH1 0x0 SWAP1 SLOAD SWAP1 PUSH2 0x100 EXP SWAP1 DIV PUSH1 0x1 PUSH1 0x1 PUSH1 0xA0 SHL SUB AND PUSH1 0x1 PUSH1 0x1 PUSH1 0xA0 SHL SUB AND PUSH4 0xA9059CBB PUSH2 0x7F1 PUSH1 0x0 DUP1 SLOAD SWAP1 PUSH2 0x100 EXP SWAP1 DIV PUSH1 0x1 PUSH1 0x1 PUSH1 0xA0 SHL SUB AND DUP15 PUSH1 0x0 DUP2 MLOAD DUP2 LT PUSH2 0x7C9 JUMPI PUSH2 0x7C9 PUSH2 0x3417 JUMP JUMPDEST PUSH1 0x20 MUL PUSH1 0x20 ADD ADD MLOAD DUP16 PUSH1 0x1 DUP2 MLOAD DUP2 LT PUSH2 0x7E4 JUMPI PUSH2 0x7E4 PUSH2 0x3417 JUMP JUMPDEST PUSH1 0x20 MUL PUSH1 0x20 ADD ADD MLOAD PUSH2 0x2026 JUMP JUMPDEST DUP4 PUSH1 0x0 DUP2 MLOAD DUP2 LT PUSH2 0x804 JUMPI PUSH2 0x804 PUSH2 0x3417 JUMP JUMPDEST PUSH1 0x20 MUL PUSH1 0x20 ADD ADD MLOAD PUSH1 0x40 MLOAD DUP4 PUSH4 0xFFFFFFFF AND PUSH1 0xE0 SHL DUP2 MSTORE PUSH1 0x4 ADD PUSH2 0x83D SWAP3 SWAP2 SWAP1 PUSH1 0x1 PUSH1 0x1 PUSH1 0xA0 SHL SUB SWAP3 SWAP1 SWAP3 AND DUP3 MSTORE PUSH1 0x20 DUP3 ADD MSTORE PUSH1 0x40 ADD SWAP1 JUMP JUMPDEST PUSH1 0x20 PUSH1 0x40 MLOAD DUP1 DUP4 SUB DUP2 PUSH1 0x0 DUP8 DUP1 EXTCODESIZE ISZERO DUP1 ISZERO PUSH2 0x857 JUMPI PUSH1 0x0 DUP1 REVERT JUMPDEST POP GAS CALL ISZERO DUP1 ISZERO PUSH2 0x86B JUMPI RETURNDATASIZE PUSH1 0x0 DUP1 RETURNDATACOPY RETURNDATASIZE PUSH1 0x0 REVERT JUMPDEST POP POP POP POP PUSH1 0x40 MLOAD RETURNDATASIZE PUSH1 0x1F NOT PUSH1 0x1F DUP3 ADD AND DUP3 ADD DUP1 PUSH1 0x40 MSTORE POP DUP2 ADD SWAP1 PUSH2 0x88F SWAP2 SWAP1 PUSH2 0x301B JUMP JUMPDEST PUSH2 0x89B JUMPI PUSH2 0x89B PUSH2 0x33EB JUMP JUMPDEST PUSH2 0x8A6 DUP2 DUP13 DUP10 PUSH2 0x21E9 JUMP JUMPDEST DUP9 DUP2 PUSH1 0x0 DUP2 MLOAD DUP2 LT PUSH2 0x8BA JUMPI PUSH2 0x8BA PUSH2 0x3417 JUMP JUMPDEST PUSH1 0x20 MUL PUSH1 0x20 ADD ADD MLOAD GT ISZERO PUSH2 0x926 JUMPI PUSH1 0x40 MLOAD PUSH3 0x461BCD PUSH1 0xE5 SHL DUP2 MSTORE PUSH1 0x20 PUSH1 0x4 DUP3 ADD MSTORE PUSH1 0x2D PUSH1 0x24 DUP3 ADD MSTORE PUSH32 0x6E6F7420616C6C6F7720626967676572207468616E206E617469766543757272 PUSH1 0x44 DUP3 ADD MSTORE PUSH13 0xCADCC6F2A6EEC2E092DC9AC2F PUSH1 0x9B SHL PUSH1 0x64 DUP3 ADD MSTORE PUSH1 0x84 ADD PUSH2 0x3E2 JUMP JUMPDEST PUSH1 0x0 DUP12 PUSH1 0x1 DUP14 MLOAD PUSH2 0x937 SWAP2 SWAP1 PUSH2 0x33A2 JUMP JUMPDEST DUP2 MLOAD DUP2 LT PUSH2 0x947 JUMPI PUSH2 0x947 PUSH2 0x3417 JUMP JUMPDEST PUSH1 0x20 MUL PUSH1 0x20 ADD ADD MLOAD SWAP1 POP PUSH1 0x0 DUP3 PUSH1 0x0 DUP2 MLOAD DUP2 LT PUSH2 0x966 JUMPI PUSH2 0x966 PUSH2 0x3417 JUMP JUMPDEST PUSH1 0x20 MUL PUSH1 0x20 ADD ADD MLOAD CALLVALUE PUSH2 0x979 SWAP2 SWAP1 PUSH2 0x33A2 JUMP JUMPDEST SWAP1 POP PUSH2 0x9EA DUP3 PUSH1 0x1 PUSH1 0x0 SWAP1 SLOAD SWAP1 PUSH2 0x100 EXP SWAP1 DIV PUSH1 0x1 PUSH1 0x1 PUSH1 0xA0 SHL SUB AND DUP6 PUSH1 0x1 DUP8 MLOAD PUSH2 0x9A4 SWAP2 SWAP1 PUSH2 0x33A2 JUMP JUMPDEST DUP2 MLOAD DUP2 LT PUSH2 0x9B4 JUMPI PUSH2 0x9B4 PUSH2 0x3417 JUMP JUMPDEST PUSH1 0x20 MUL PUSH1 0x20 ADD ADD MLOAD DUP5 DUP8 PUSH1 0x1 DUP10 MLOAD PUSH2 0x9CC SWAP2 SWAP1 PUSH2 0x33A2 JUMP JUMPDEST DUP2 MLOAD DUP2 LT PUSH2 0x9DC JUMPI PUSH2 0x9DC PUSH2 0x3417 JUMP JUMPDEST PUSH1 0x20 MUL PUSH1 0x20 ADD ADD MLOAD DUP16 PUSH2 0x25C5 JUMP JUMPDEST PUSH1 0x0 DUP1 SLOAD PUSH1 0x1 SLOAD SWAP4 SWAP11 POP SWAP2 SWAP9 POP SWAP2 PUSH2 0xA10 SWAP2 PUSH1 0x1 PUSH1 0x1 PUSH1 0xA0 SHL SUB SWAP1 DUP2 AND SWAP2 DUP7 SWAP2 AND PUSH2 0x2026 JUMP JUMPDEST SWAP1 POP PUSH2 0xA1E DUP4 CALLER DUP4 DUP12 PUSH2 0x20AB JUMP JUMPDEST PUSH1 0x1 PUSH1 0x0 SWAP1 SLOAD SWAP1 PUSH2 0x100 EXP SWAP1 DIV PUSH1 0x1 PUSH1 0x1 PUSH1 0xA0 SHL SUB AND PUSH1 0x1 PUSH1 0x1 PUSH1 0xA0 SHL SUB AND PUSH4 0xD0E30DB0 DUP9 PUSH1 0x40 MLOAD DUP3 PUSH4 0xFFFFFFFF AND PUSH1 0xE0 SHL DUP2 MSTORE PUSH1 0x4 ADD PUSH1 0x0 PUSH1 0x40 MLOAD DUP1 DUP4 SUB DUP2 DUP6 DUP9 DUP1 EXTCODESIZE ISZERO DUP1 ISZERO PUSH2 0xA6E JUMPI PUSH1 0x0 DUP1 REVERT JUMPDEST POP GAS CALL ISZERO DUP1 ISZERO PUSH2 0xA82 JUMPI RETURNDATASIZE PUSH1 0x0 DUP1 RETURNDATACOPY RETURNDATASIZE PUSH1 0x0 REVERT JUMPDEST POP POP PUSH1 0x1 SLOAD PUSH1 0x40 MLOAD PUSH4 0xA9059CBB PUSH1 0xE0 SHL DUP2 MSTORE PUSH1 0x1 PUSH1 0x1 PUSH1 0xA0 SHL SUB DUP7 DUP2 AND PUSH1 0x4 DUP4 ADD MSTORE PUSH1 0x24 DUP3 ADD DUP14 SWAP1 MSTORE SWAP1 SWAP2 AND SWAP4 POP PUSH4 0xA9059CBB SWAP3 POP PUSH1 0x44 ADD SWAP1 POP PUSH1 0x20 PUSH1 0x40 MLOAD DUP1 DUP4 SUB DUP2 PUSH1 0x0 DUP8 DUP1 EXTCODESIZE ISZERO DUP1 ISZERO PUSH2 0xAD6 JUMPI PUSH1 0x0 DUP1 REVERT JUMPDEST POP GAS CALL ISZERO DUP1 ISZERO PUSH2 0xAEA JUMPI RETURNDATASIZE PUSH1 0x0 DUP1 RETURNDATACOPY RETURNDATASIZE PUSH1 0x0 REVERT JUMPDEST POP POP POP POP PUSH1 0x40 MLOAD RETURNDATASIZE PUSH1 0x1F NOT PUSH1 0x1F DUP3 ADD AND DUP3 ADD DUP1 PUSH1 0x40 MSTORE POP DUP2 ADD SWAP1 PUSH2 0xB0E SWAP2 SWAP1 PUSH2 0x301B JUMP JUMPDEST PUSH2 0xB1A JUMPI PUSH2 0xB1A PUSH2 0x33EB JUMP JUMPDEST PUSH1 0x40 MLOAD PUSH4 0x35313C21 PUSH1 0xE1 SHL DUP2 MSTORE PUSH1 0x1 PUSH1 0x1 PUSH1 0xA0 SHL SUB DUP12 DUP2 AND PUSH1 0x4 DUP4 ADD MSTORE DUP3 AND SWAP1 PUSH4 0x6A627842 SWAP1 PUSH1 0x24 ADD PUSH1 0x20 PUSH1 0x40 MLOAD DUP1 DUP4 SUB DUP2 PUSH1 0x0 DUP8 DUP1 EXTCODESIZE ISZERO DUP1 ISZERO PUSH2 0xB5D JUMPI PUSH1 0x0 DUP1 REVERT JUMPDEST POP GAS CALL ISZERO DUP1 ISZERO PUSH2 0xB71 JUMPI RETURNDATASIZE PUSH1 0x0 DUP1 RETURNDATACOPY RETURNDATASIZE PUSH1 0x0 REVERT JUMPDEST POP POP POP POP PUSH1 0x40 MLOAD RETURNDATASIZE PUSH1 0x1F NOT PUSH1 0x1F DUP3 ADD AND DUP3 ADD DUP1 PUSH1 0x40 MSTORE POP DUP2 ADD SWAP1 PUSH2 0xB95 SWAP2 SWAP1 PUSH2 0x3070 JUMP JUMPDEST SWAP6 POP DUP4 PUSH1 0x0 DUP2 MLOAD DUP2 LT PUSH2 0xBAA JUMPI PUSH2 0xBAA PUSH2 0x3417 JUMP JUMPDEST PUSH1 0x20 MUL PUSH1 0x20 ADD ADD MLOAD DUP8 PUSH2 0xBBD SWAP2 SWAP1 PUSH2 0x3349 JUMP JUMPDEST CALLVALUE GT ISZERO PUSH2 0xBFD JUMPI PUSH2 0xBFD CALLER DUP6 PUSH1 0x0 DUP2 MLOAD DUP2 LT PUSH2 0xBDB JUMPI PUSH2 0xBDB PUSH2 0x3417 JUMP JUMPDEST PUSH1 0x20 MUL PUSH1 0x20 ADD ADD MLOAD DUP10 PUSH2 0xBEE SWAP2 SWAP1 PUSH2 0x3349 JUMP JUMPDEST PUSH2 0xBF8 SWAP1 CALLVALUE PUSH2 0x33A2 JUMP JUMPDEST PUSH2 0x24CA JUMP JUMPDEST POP POP POP POP POP SWAP7 POP SWAP7 POP SWAP7 SWAP4 POP POP POP POP JUMP JUMPDEST PUSH1 0x60 DUP2 TIMESTAMP DUP2 LT ISZERO PUSH2 0xC31 JUMPI PUSH1 0x40 MLOAD PUSH3 0x461BCD PUSH1 0xE5 SHL DUP2 MSTORE PUSH1 0x4 ADD PUSH2 0x3E2 SWAP1 PUSH2 0x32DE JUMP JUMPDEST PUSH1 0x0 SLOAD PUSH1 0x40 DUP1 MLOAD PUSH1 0x20 DUP1 DUP10 MUL DUP3 DUP2 ADD DUP3 ADD SWAP1 SWAP4 MSTORE DUP9 DUP3 MSTORE PUSH2 0xC7B SWAP4 PUSH1 0x1 PUSH1 0x1 PUSH1 0xA0 SHL SUB AND SWAP3 DUP13 SWAP3 SWAP2 DUP12 SWAP2 DUP12 SWAP2 DUP3 SWAP2 SWAP1 DUP6 ADD SWAP1 DUP5 SWAP1 DUP1 DUP3 DUP5 CALLDATACOPY PUSH1 0x0 SWAP3 ADD SWAP2 SWAP1 SWAP2 MSTORE POP PUSH2 0x1D2C SWAP3 POP POP POP JUMP JUMPDEST SWAP2 POP DUP7 DUP3 PUSH1 0x0 DUP2 MLOAD DUP2 LT PUSH2 0xC91 JUMPI PUSH2 0xC91 PUSH2 0x3417 JUMP JUMPDEST PUSH1 0x20 MUL PUSH1 0x20 ADD ADD MLOAD GT ISZERO PUSH2 0x47D JUMPI PUSH1 0x40 MLOAD PUSH3 0x461BCD PUSH1 0xE5 SHL DUP2 MSTORE PUSH1 0x4 ADD PUSH2 0x3E2 SWAP1 PUSH2 0x32A7 JUMP JUMPDEST PUSH1 0x0 DUP1 PUSH1 0x0 DUP4 TIMESTAMP DUP2 LT ISZERO PUSH2 0xCDD JUMPI PUSH1 0x40 MLOAD PUSH3 0x461BCD PUSH1 0xE5 SHL DUP2 MSTORE PUSH1 0x4 ADD PUSH2 0x3E2 SWAP1 PUSH2 0x32DE JUMP JUMPDEST PUSH1 0x1 SLOAD PUSH2 0xCF8 SWAP1 DUP12 SWAP1 PUSH1 0x1 PUSH1 0x1 PUSH1 0xA0 SHL SUB AND DUP12 CALLVALUE DUP13 DUP13 PUSH2 0x25C5 JUMP JUMPDEST PUSH1 0x0 DUP1 SLOAD PUSH1 0x1 SLOAD SWAP4 SWAP8 POP SWAP2 SWAP6 POP SWAP2 PUSH2 0xD1E SWAP2 PUSH1 0x1 PUSH1 0x1 PUSH1 0xA0 SHL SUB SWAP1 DUP2 AND SWAP2 DUP15 SWAP2 AND PUSH2 0x2026 JUMP JUMPDEST SWAP1 POP PUSH2 0xD2C DUP12 CALLER DUP4 DUP9 PUSH2 0x20AB JUMP JUMPDEST PUSH1 0x1 PUSH1 0x0 SWAP1 SLOAD SWAP1 PUSH2 0x100 EXP SWAP1 DIV PUSH1 0x1 PUSH1 0x1 PUSH1 0xA0 SHL SUB AND PUSH1 0x1 PUSH1 0x1 PUSH1 0xA0 SHL SUB AND PUSH4 0xD0E30DB0 DUP6 PUSH1 0x40 MLOAD DUP3 PUSH4 0xFFFFFFFF AND PUSH1 0xE0 SHL DUP2 MSTORE PUSH1 0x4 ADD PUSH1 0x0 PUSH1 0x40 MLOAD DUP1 DUP4 SUB DUP2 DUP6 DUP9 DUP1 EXTCODESIZE ISZERO DUP1 ISZERO PUSH2 0xD7C JUMPI PUSH1 0x0 DUP1 REVERT JUMPDEST POP GAS CALL ISZERO DUP1 ISZERO PUSH2 0xD90 JUMPI RETURNDATASIZE PUSH1 0x0 DUP1 RETURNDATACOPY RETURNDATASIZE PUSH1 0x0 REVERT JUMPDEST POP POP PUSH1 0x1 SLOAD PUSH1 0x40 MLOAD PUSH4 0xA9059CBB PUSH1 0xE0 SHL DUP2 MSTORE PUSH1 0x1 PUSH1 0x1 PUSH1 0xA0 SHL SUB DUP7 DUP2 AND PUSH1 0x4 DUP4 ADD MSTORE PUSH1 0x24 DUP3 ADD DUP11 SWAP1 MSTORE SWAP1 SWAP2 AND SWAP4 POP PUSH4 0xA9059CBB SWAP3 POP PUSH1 0x44 ADD SWAP1 POP PUSH1 0x20 PUSH1 0x40 MLOAD DUP1 DUP4 SUB DUP2 PUSH1 0x0 DUP8 DUP1 EXTCODESIZE ISZERO DUP1 ISZERO PUSH2 0xDE4 JUMPI PUSH1 0x0 DUP1 REVERT JUMPDEST POP GAS CALL ISZERO DUP1 ISZERO PUSH2 0xDF8 JUMPI RETURNDATASIZE PUSH1 0x0 DUP1 RETURNDATACOPY RETURNDATASIZE PUSH1 0x0 REVERT JUMPDEST POP POP POP POP PUSH1 0x40 MLOAD RETURNDATASIZE PUSH1 0x1F NOT PUSH1 0x1F DUP3 ADD AND DUP3 ADD DUP1 PUSH1 0x40 MSTORE POP DUP2 ADD SWAP1 PUSH2 0xE1C SWAP2 SWAP1 PUSH2 0x301B JUMP JUMPDEST PUSH2 0xE28 JUMPI PUSH2 0xE28 PUSH2 0x33EB JUMP JUMPDEST PUSH1 0x40 MLOAD PUSH4 0x35313C21 PUSH1 0xE1 SHL DUP2 MSTORE PUSH1 0x1 PUSH1 0x1 PUSH1 0xA0 SHL SUB DUP9 DUP2 AND PUSH1 0x4 DUP4 ADD MSTORE DUP3 AND SWAP1 PUSH4 0x6A627842 SWAP1 PUSH1 0x24 ADD PUSH1 0x20 PUSH1 0x40 MLOAD DUP1 DUP4 SUB DUP2 PUSH1 0x0 DUP8 DUP1 EXTCODESIZE ISZERO DUP1 ISZERO PUSH2 0xE6B JUMPI PUSH1 0x0 DUP1 REVERT JUMPDEST POP GAS CALL ISZERO DUP1 ISZERO PUSH2 0xE7F JUMPI RETURNDATASIZE PUSH1 0x0 DUP1 RETURNDATACOPY RETURNDATASIZE PUSH1 0x0 REVERT JUMPDEST POP POP POP POP PUSH1 0x40 MLOAD RETURNDATASIZE PUSH1 0x1F NOT PUSH1 0x1F DUP3 ADD AND DUP3 ADD DUP1 PUSH1 0x40 MSTORE POP DUP2 ADD SWAP1 PUSH2 0xEA3 SWAP2 SWAP1 PUSH2 0x3070 JUMP JUMPDEST SWAP3 POP DUP4 CALLVALUE GT ISZERO PUSH2 0xEBB JUMPI PUSH2 0xEBB CALLER PUSH2 0xBF8 DUP7 CALLVALUE PUSH2 0x33A2 JUMP JUMPDEST POP POP SWAP7 POP SWAP7 POP SWAP7 SWAP4 POP POP POP POP JUMP JUMPDEST PUSH1 0x60 DUP2 TIMESTAMP DUP2 LT ISZERO PUSH2 0xEEC JUMPI PUSH1 0x40 MLOAD PUSH3 0x461BCD PUSH1 0xE5 SHL DUP2 MSTORE PUSH1 0x4 ADD PUSH2 0x3E2 SWAP1 PUSH2 0x32DE JUMP JUMPDEST PUSH1 0x1 SLOAD PUSH1 0x1 PUSH1 0x1 PUSH1 0xA0 SHL SUB AND DUP7 DUP7 PUSH1 0x0 DUP2 PUSH2 0xF09 JUMPI PUSH2 0xF09 PUSH2 0x3417 JUMP JUMPDEST SWAP1 POP PUSH1 0x20 MUL ADD PUSH1 0x20 DUP2 ADD SWAP1 PUSH2 0xF1E SWAP2 SWAP1 PUSH2 0x2DA5 JUMP JUMPDEST PUSH1 0x1 PUSH1 0x1 PUSH1 0xA0 SHL SUB AND EQ PUSH2 0xF44 JUMPI PUSH1 0x40 MLOAD PUSH3 0x461BCD PUSH1 0xE5 SHL DUP2 MSTORE PUSH1 0x4 ADD PUSH2 0x3E2 SWAP1 PUSH2 0x3279 JUMP JUMPDEST PUSH1 0x0 SLOAD PUSH1 0x40 DUP1 MLOAD PUSH1 0x20 DUP1 DUP10 MUL DUP3 DUP2 ADD DUP3 ADD SWAP1 SWAP4 MSTORE DUP9 DUP3 MSTORE PUSH2 0xF8E SWAP4 PUSH1 0x1 PUSH1 0x1 PUSH1 0xA0 SHL SUB AND SWAP3 DUP12 SWAP3 SWAP2 DUP12 SWAP2 DUP12 SWAP2 DUP3 SWAP2 SWAP1 DUP6 ADD SWAP1 DUP5 SWAP1 DUP1 DUP3 DUP5 CALLDATACOPY PUSH1 0x0 SWAP3 ADD SWAP2 SWAP1 SWAP2 MSTORE POP PUSH2 0x1D2C SWAP3 POP POP POP JUMP JUMPDEST SWAP2 POP CALLVALUE DUP3 PUSH1 0x0 DUP2 MLOAD DUP2 LT PUSH2 0xFA4 JUMPI PUSH2 0xFA4 PUSH2 0x3417 JUMP JUMPDEST PUSH1 0x20 MUL PUSH1 0x20 ADD ADD MLOAD GT ISZERO PUSH2 0xFCA JUMPI PUSH1 0x40 MLOAD PUSH3 0x461BCD PUSH1 0xE5 SHL DUP2 MSTORE PUSH1 0x4 ADD PUSH2 0x3E2 SWAP1 PUSH2 0x32A7 JUMP JUMPDEST PUSH1 0x1 SLOAD DUP3 MLOAD PUSH1 0x1 PUSH1 0x1 PUSH1 0xA0 SHL SUB SWAP1 SWAP2 AND SWAP1 PUSH4 0xD0E30DB0 SWAP1 DUP5 SWAP1 PUSH1 0x0 SWAP1 PUSH2 0xFF2 JUMPI PUSH2 0xFF2 PUSH2 0x3417 JUMP JUMPDEST PUSH1 0x20 MUL PUSH1 0x20 ADD ADD MLOAD PUSH1 0x40 MLOAD DUP3 PUSH4 0xFFFFFFFF AND PUSH1 0xE0 SHL DUP2 MSTORE PUSH1 0x4 ADD PUSH1 0x0 PUSH1 0x40 MLOAD DUP1 DUP4 SUB DUP2 DUP6 DUP9 DUP1 EXTCODESIZE ISZERO DUP1 ISZERO PUSH2 0x1025 JUMPI PUSH1 0x0 DUP1 REVERT JUMPDEST POP GAS CALL ISZERO DUP1 ISZERO PUSH2 0x1039 JUMPI RETURNDATASIZE PUSH1 0x0 DUP1 RETURNDATACOPY RETURNDATASIZE PUSH1 0x0 REVERT JUMPDEST POP POP PUSH1 0x1 SLOAD PUSH1 0x0 DUP1 SLOAD PUSH1 0x1 PUSH1 0x1 PUSH1 0xA0 SHL SUB SWAP3 DUP4 AND SWAP6 POP PUSH4 0xA9059CBB SWAP5 POP PUSH2 0x1098 SWAP4 POP SWAP1 SWAP2 AND SWAP1 DUP11 SWAP1 DUP11 SWAP1 DUP2 PUSH2 0x1070 JUMPI PUSH2 0x1070 PUSH2 0x3417 JUMP JUMPDEST SWAP1 POP PUSH1 0x20 MUL ADD PUSH1 0x20 DUP2 ADD SWAP1 PUSH2 0x1085 SWAP2 SWAP1 PUSH2 0x2DA5 JUMP JUMPDEST DUP11 DUP11 PUSH1 0x1 DUP2 DUP2 LT PUSH2 0x4F5 JUMPI PUSH2 0x4F5 PUSH2 0x3417 JUMP JUMPDEST DUP5 PUSH1 0x0 DUP2 MLOAD DUP2 LT PUSH2 0x10AB JUMPI PUSH2 0x10AB PUSH2 0x3417 JUMP JUMPDEST PUSH1 0x20 MUL PUSH1 0x20 ADD ADD MLOAD PUSH1 0x40 MLOAD DUP4 PUSH4 0xFFFFFFFF AND PUSH1 0xE0 SHL DUP2 MSTORE PUSH1 0x4 ADD PUSH2 0x10E4 SWAP3 SWAP2 SWAP1 PUSH1 0x1 PUSH1 0x1 PUSH1 0xA0 SHL SUB SWAP3 SWAP1 SWAP3 AND DUP3 MSTORE PUSH1 0x20 DUP3 ADD MSTORE PUSH1 0x40 ADD SWAP1 JUMP JUMPDEST PUSH1 0x20 PUSH1 0x40 MLOAD DUP1 DUP4 SUB DUP2 PUSH1 0x0 DUP8 DUP1 EXTCODESIZE ISZERO DUP1 ISZERO PUSH2 0x10FE JUMPI PUSH1 0x0 DUP1 REVERT JUMPDEST POP GAS CALL ISZERO DUP1 ISZERO PUSH2 0x1112 JUMPI RETURNDATASIZE PUSH1 0x0 DUP1 RETURNDATACOPY RETURNDATASIZE PUSH1 0x0 REVERT JUMPDEST POP POP POP POP PUSH1 0x40 MLOAD RETURNDATASIZE PUSH1 0x1F NOT PUSH1 0x1F DUP3 ADD AND DUP3 ADD DUP1 PUSH1 0x40 MSTORE POP DUP2 ADD SWAP1 PUSH2 0x1136 SWAP2 SWAP1 PUSH2 0x301B JUMP JUMPDEST PUSH2 0x1142 JUMPI PUSH2 0x1142 PUSH2 0x33EB JUMP JUMPDEST PUSH2 0x1181 DUP3 DUP8 DUP8 DUP1 DUP1 PUSH1 0x20 MUL PUSH1 0x20 ADD PUSH1 0x40 MLOAD SWAP1 DUP2 ADD PUSH1 0x40 MSTORE DUP1 SWAP4 SWAP3 SWAP2 SWAP1 DUP2 DUP2 MSTORE PUSH1 0x20 ADD DUP4 DUP4 PUSH1 0x20 MUL DUP1 DUP3 DUP5 CALLDATACOPY PUSH1 0x0 SWAP3 ADD SWAP2 SWAP1 SWAP2 MSTORE POP DUP10 SWAP3 POP PUSH2 0x21E9 SWAP2 POP POP JUMP JUMPDEST DUP2 PUSH1 0x0 DUP2 MLOAD DUP2 LT PUSH2 0x1194 JUMPI PUSH2 0x1194 PUSH2 0x3417 JUMP JUMPDEST PUSH1 0x20 MUL PUSH1 0x20 ADD ADD MLOAD CALLVALUE GT ISZERO PUSH2 0x11CD JUMPI PUSH2 0x11CD CALLER DUP4 PUSH1 0x0 DUP2 MLOAD DUP2 LT PUSH2 0x11BA JUMPI PUSH2 0x11BA PUSH2 0x3417 JUMP JUMPDEST PUSH1 0x20 MUL PUSH1 0x20 ADD ADD MLOAD CALLVALUE PUSH2 0xBF8 SWAP2 SWAP1 PUSH2 0x33A2 JUMP JUMPDEST POP SWAP6 SWAP5 POP POP POP POP POP JUMP JUMPDEST PUSH1 0x0 DUP2 TIMESTAMP DUP2 LT ISZERO PUSH2 0x11FA JUMPI PUSH1 0x40 MLOAD PUSH3 0x461BCD PUSH1 0xE5 SHL DUP2 MSTORE PUSH1 0x4 ADD PUSH2 0x3E2 SWAP1 PUSH2 0x32DE JUMP JUMPDEST PUSH1 0x0 DUP11 DUP11 PUSH1 0x0 DUP2 DUP2 LT PUSH2 0x120F JUMPI PUSH2 0x120F PUSH2 0x3417 JUMP JUMPDEST SWAP1 POP PUSH1 0x20 MUL ADD PUSH1 0x20 DUP2 ADD SWAP1 PUSH2 0x1224 SWAP2 SWAP1 PUSH2 0x2DA5 JUMP JUMPDEST SWAP1 POP PUSH1 0x0 DUP12 DUP12 PUSH2 0x1235 PUSH1 0x1 DUP3 PUSH2 0x33A2 JUMP JUMPDEST DUP2 DUP2 LT PUSH2 0x1244 JUMPI PUSH2 0x1244 PUSH2 0x3417 JUMP JUMPDEST SWAP1 POP PUSH1 0x20 MUL ADD PUSH1 0x20 DUP2 ADD SWAP1 PUSH2 0x1259 SWAP2 SWAP1 PUSH2 0x2DA5 JUMP JUMPDEST SWAP1 POP PUSH1 0x0 PUSH2 0x126B DUP11 DUP11 DUP16 DUP16 DUP12 DUP12 PUSH2 0xC0E JUMP JUMPDEST SWAP1 POP PUSH1 0x0 DUP2 PUSH1 0x0 DUP2 MLOAD DUP2 LT PUSH2 0x1282 JUMPI PUSH2 0x1282 PUSH2 0x3417 JUMP JUMPDEST PUSH1 0x20 MUL PUSH1 0x20 ADD ADD MLOAD DUP13 PUSH2 0x1295 SWAP2 SWAP1 PUSH2 0x33A2 JUMP JUMPDEST SWAP1 POP PUSH2 0x12F3 DUP4 DUP6 DUP5 PUSH1 0x1 DUP7 MLOAD PUSH2 0x12AB SWAP2 SWAP1 PUSH2 0x33A2 JUMP JUMPDEST DUP2 MLOAD DUP2 LT PUSH2 0x12BB JUMPI PUSH2 0x12BB PUSH2 0x3417 JUMP JUMPDEST PUSH1 0x20 MUL PUSH1 0x20 ADD ADD MLOAD DUP5 DUP7 PUSH1 0x1 DUP9 MLOAD PUSH2 0x12D3 SWAP2 SWAP1 PUSH2 0x33A2 JUMP JUMPDEST DUP2 MLOAD DUP2 LT PUSH2 0x12E3 JUMPI PUSH2 0x12E3 PUSH2 0x3417 JUMP JUMPDEST PUSH1 0x20 MUL PUSH1 0x20 ADD ADD MLOAD DUP15 DUP15 DUP15 PUSH2 0x1A1F JUMP JUMPDEST SWAP1 SWAP2 POP SWAP1 POP DUP1 SWAP7 POP POP POP POP POP POP POP SWAP9 SWAP8 POP POP POP POP POP POP POP POP JUMP JUMPDEST PUSH1 0x0 DUP1 DUP3 TIMESTAMP DUP2 LT ISZERO PUSH2 0x1331 JUMPI PUSH1 0x40 MLOAD PUSH3 0x461BCD PUSH1 0xE5 SHL DUP2 MSTORE PUSH1 0x4 ADD PUSH2 0x3E2 SWAP1 PUSH2 0x32DE JUMP JUMPDEST PUSH1 0x0 DUP1 SLOAD PUSH2 0x1349 SWAP1 PUSH1 0x1 PUSH1 0x1 PUSH1 0xA0 SHL SUB AND DUP13 DUP13 PUSH2 0x2026 JUMP JUMPDEST PUSH1 0x40 MLOAD PUSH4 0x23B872DD PUSH1 0xE0 SHL DUP2 MSTORE CALLER PUSH1 0x4 DUP3 ADD MSTORE PUSH1 0x1 PUSH1 0x1 PUSH1 0xA0 SHL SUB DUP3 AND PUSH1 0x24 DUP3 ADD DUP2 SWAP1 MSTORE PUSH1 0x44 DUP3 ADD DUP13 SWAP1 MSTORE SWAP2 SWAP3 POP PUSH4 0x23B872DD SWAP1 PUSH1 0x64 ADD PUSH1 0x20 PUSH1 0x40 MLOAD DUP1 DUP4 SUB DUP2 PUSH1 0x0 DUP8 DUP1 EXTCODESIZE ISZERO DUP1 ISZERO PUSH2 0x139A JUMPI PUSH1 0x0 DUP1 REVERT JUMPDEST POP GAS CALL ISZERO DUP1 ISZERO PUSH2 0x13AE JUMPI RETURNDATASIZE PUSH1 0x0 DUP1 RETURNDATACOPY RETURNDATASIZE PUSH1 0x0 REVERT JUMPDEST POP POP POP POP PUSH1 0x40 MLOAD RETURNDATASIZE PUSH1 0x1F NOT PUSH1 0x1F DUP3 ADD AND DUP3 ADD DUP1 PUSH1 0x40 MSTORE POP DUP2 ADD SWAP1 PUSH2 0x13D2 SWAP2 SWAP1 PUSH2 0x301B JUMP JUMPDEST POP PUSH1 0x40 MLOAD PUSH4 0x226BF2D1 PUSH1 0xE2 SHL DUP2 MSTORE PUSH1 0x1 PUSH1 0x1 PUSH1 0xA0 SHL SUB DUP8 DUP2 AND PUSH1 0x4 DUP4 ADD MSTORE PUSH1 0x0 SWAP2 DUP3 SWAP2 DUP5 AND SWAP1 PUSH4 0x89AFCB44 SWAP1 PUSH1 0x24 ADD PUSH1 0x40 DUP1 MLOAD DUP1 DUP4 SUB DUP2 PUSH1 0x0 DUP8 DUP1 EXTCODESIZE ISZERO DUP1 ISZERO PUSH2 0x141A JUMPI PUSH1 0x0 DUP1 REVERT JUMPDEST POP GAS CALL ISZERO DUP1 ISZERO PUSH2 0x142E JUMPI RETURNDATASIZE PUSH1 0x0 DUP1 RETURNDATACOPY RETURNDATASIZE PUSH1 0x0 REVERT JUMPDEST POP POP POP POP PUSH1 0x40 MLOAD RETURNDATASIZE PUSH1 0x1F NOT PUSH1 0x1F DUP3 ADD AND DUP3 ADD DUP1 PUSH1 0x40 MSTORE POP DUP2 ADD SWAP1 PUSH2 0x1452 SWAP2 SWAP1 PUSH2 0x3137 JUMP JUMPDEST SWAP2 POP SWAP2 POP PUSH1 0x0 PUSH2 0x1462 DUP15 DUP15 PUSH2 0x2817 JUMP JUMPDEST POP SWAP1 POP DUP14 PUSH1 0x1 PUSH1 0x1 PUSH1 0xA0 SHL SUB AND DUP2 PUSH1 0x1 PUSH1 0x1 PUSH1 0xA0 SHL SUB AND EQ PUSH2 0x1485 JUMPI DUP2 DUP4 PUSH2 0x1488 JUMP JUMPDEST DUP3 DUP3 JUMPDEST SWAP1 SWAP8 POP SWAP6 POP DUP11 DUP8 LT ISZERO PUSH2 0x14DD JUMPI PUSH1 0x40 MLOAD PUSH3 0x461BCD PUSH1 0xE5 SHL DUP2 MSTORE PUSH1 0x20 PUSH1 0x4 DUP3 ADD MSTORE PUSH1 0x1D PUSH1 0x24 DUP3 ADD MSTORE PUSH32 0x526F757465723A20494E53554646494349454E545F305F414D4F554E54000000 PUSH1 0x44 DUP3 ADD MSTORE PUSH1 0x64 ADD PUSH2 0x3E2 JUMP JUMPDEST DUP10 DUP7 LT ISZERO PUSH2 0x152D JUMPI PUSH1 0x40 MLOAD PUSH3 0x461BCD PUSH1 0xE5 SHL DUP2 MSTORE PUSH1 0x20 PUSH1 0x4 DUP3 ADD MSTORE PUSH1 0x1D PUSH1 0x24 DUP3 ADD MSTORE PUSH32 0x526F757465723A20494E53554646494349454E545F315F414D4F554E54000000 PUSH1 0x44 DUP3 ADD MSTORE PUSH1 0x64 ADD PUSH2 0x3E2 JUMP JUMPDEST POP POP POP POP POP SWAP8 POP SWAP8 SWAP6 POP POP POP POP POP POP JUMP JUMPDEST PUSH1 0x60 DUP2 TIMESTAMP DUP2 LT ISZERO PUSH2 0x1561 JUMPI PUSH1 0x40 MLOAD PUSH3 0x461BCD PUSH1 0xE5 SHL DUP2 MSTORE PUSH1 0x4 ADD PUSH2 0x3E2 SWAP1 PUSH2 0x32DE JUMP JUMPDEST PUSH1 0x1 SLOAD PUSH1 0x1 PUSH1 0x1 PUSH1 0xA0 SHL SUB AND DUP7 DUP7 PUSH1 0x0 DUP2 PUSH2 0x157E JUMPI PUSH2 0x157E PUSH2 0x3417 JUMP JUMPDEST SWAP1 POP PUSH1 0x20 MUL ADD PUSH1 0x20 DUP2 ADD SWAP1 PUSH2 0x1593 SWAP2 SWAP1 PUSH2 0x2DA5 JUMP JUMPDEST PUSH1 0x1 PUSH1 0x1 PUSH1 0xA0 SHL SUB AND EQ PUSH2 0x15B9 JUMPI PUSH1 0x40 MLOAD PUSH3 0x461BCD PUSH1 0xE5 SHL DUP2 MSTORE PUSH1 0x4 ADD PUSH2 0x3E2 SWAP1 PUSH2 0x3279 JUMP JUMPDEST PUSH1 0x0 SLOAD PUSH1 0x40 DUP1 MLOAD PUSH1 0x20 DUP1 DUP10 MUL DUP3 DUP2 ADD DUP3 ADD SWAP1 SWAP4 MSTORE DUP9 DUP3 MSTORE PUSH2 0x1603 SWAP4 PUSH1 0x1 PUSH1 0x1 PUSH1 0xA0 SHL SUB AND SWAP3 CALLVALUE SWAP3 SWAP2 DUP12 SWAP2 DUP12 SWAP2 DUP3 SWAP2 SWAP1 DUP6 ADD SWAP1 DUP5 SWAP1 DUP1 DUP3 DUP5 CALLDATACOPY PUSH1 0x0 SWAP3 ADD SWAP2 SWAP1 SWAP2 MSTORE POP PUSH2 0x1EB9 SWAP3 POP POP POP JUMP JUMPDEST SWAP2 POP DUP7 DUP3 PUSH1 0x1 DUP5 MLOAD PUSH2 0x1615 SWAP2 SWAP1 PUSH2 0x33A2 JUMP JUMPDEST DUP2 MLOAD DUP2 LT PUSH2 0x1625 JUMPI PUSH2 0x1625 PUSH2 0x3417 JUMP JUMPDEST PUSH1 0x20 MUL PUSH1 0x20 ADD ADD MLOAD LT ISZERO PUSH2 0x164B JUMPI PUSH1 0x40 MLOAD PUSH3 0x461BCD PUSH1 0xE5 SHL DUP2 MSTORE PUSH1 0x4 ADD PUSH2 0x3E2 SWAP1 PUSH2 0x3307 JUMP JUMPDEST PUSH1 0x1 SLOAD DUP3 MLOAD PUSH1 0x1 PUSH1 0x1 PUSH1 0xA0 SHL SUB SWAP1 SWAP2 AND SWAP1 PUSH4 0xD0E30DB0 SWAP1 DUP5 SWAP1 PUSH1 0x0 SWAP1 PUSH2 0x1673 JUMPI PUSH2 0x1673 PUSH2 0x3417 JUMP JUMPDEST PUSH1 0x20 MUL PUSH1 0x20 ADD ADD MLOAD PUSH1 0x40 MLOAD DUP3 PUSH4 0xFFFFFFFF AND PUSH1 0xE0 SHL DUP2 MSTORE PUSH1 0x4 ADD PUSH1 0x0 PUSH1 0x40 MLOAD DUP1 DUP4 SUB DUP2 DUP6 DUP9 DUP1 EXTCODESIZE ISZERO DUP1 ISZERO PUSH2 0x16A6 JUMPI PUSH1 0x0 DUP1 REVERT JUMPDEST POP GAS CALL ISZERO DUP1 ISZERO PUSH2 0x16BA JUMPI RETURNDATASIZE PUSH1 0x0 DUP1 RETURNDATACOPY RETURNDATASIZE PUSH1 0x0 REVERT JUMPDEST POP POP PUSH1 0x1 SLOAD PUSH1 0x0 DUP1 SLOAD PUSH1 0x1 PUSH1 0x1 PUSH1 0xA0 SHL SUB SWAP3 DUP4 AND SWAP6 POP PUSH4 0xA9059CBB SWAP5 POP PUSH2 0x16F1 SWAP4 POP SWAP1 SWAP2 AND SWAP1 DUP11 SWAP1 DUP11 SWAP1 DUP2 PUSH2 0x1070 JUMPI PUSH2 0x1070 PUSH2 0x3417 JUMP JUMPDEST DUP5 PUSH1 0x0 DUP2 MLOAD DUP2 LT PUSH2 0x1704 JUMPI PUSH2 0x1704 PUSH2 0x3417 JUMP JUMPDEST PUSH1 0x20 MUL PUSH1 0x20 ADD ADD MLOAD PUSH1 0x40 MLOAD DUP4 PUSH4 0xFFFFFFFF AND PUSH1 0xE0 SHL DUP2 MSTORE PUSH1 0x4 ADD PUSH2 0x173D SWAP3 SWAP2 SWAP1 PUSH1 0x1 PUSH1 0x1 PUSH1 0xA0 SHL SUB SWAP3 SWAP1 SWAP3 AND DUP3 MSTORE PUSH1 0x20 DUP3 ADD MSTORE PUSH1 0x40 ADD SWAP1 JUMP JUMPDEST PUSH1 0x20 PUSH1 0x40 MLOAD DUP1 DUP4 SUB DUP2 PUSH1 0x0 DUP8 DUP1 EXTCODESIZE ISZERO DUP1 ISZERO PUSH2 0x1757 JUMPI PUSH1 0x0 DUP1 REVERT JUMPDEST POP GAS CALL ISZERO DUP1 ISZERO PUSH2 0x176B JUMPI RETURNDATASIZE PUSH1 0x0 DUP1 RETURNDATACOPY RETURNDATASIZE PUSH1 0x0 REVERT JUMPDEST POP POP POP POP PUSH1 0x40 MLOAD RETURNDATASIZE PUSH1 0x1F NOT PUSH1 0x1F DUP3 ADD AND DUP3 ADD DUP1 PUSH1 0x40 MSTORE POP DUP2 ADD SWAP1 PUSH2 0x178F SWAP2 SWAP1 PUSH2 0x301B JUMP JUMPDEST PUSH2 0x179B JUMPI PUSH2 0x179B PUSH2 0x33EB JUMP JUMPDEST PUSH2 0x11CD DUP3 DUP8 DUP8 DUP1 DUP1 PUSH1 0x20 MUL PUSH1 0x20 ADD PUSH1 0x40 MLOAD SWAP1 DUP2 ADD PUSH1 0x40 MSTORE DUP1 SWAP4 SWAP3 SWAP2 SWAP1 DUP2 DUP2 MSTORE PUSH1 0x20 ADD DUP4 DUP4 PUSH1 0x20 MUL DUP1 DUP3 DUP5 CALLDATACOPY PUSH1 0x0 SWAP3 ADD SWAP2 SWAP1 SWAP2 MSTORE POP DUP10 SWAP3 POP PUSH2 0x21E9 SWAP2 POP POP JUMP JUMPDEST PUSH1 0x0 SLOAD PUSH1 0x60 SWAP1 PUSH2 0x3B6 SWAP1 PUSH1 0x1 PUSH1 0x1 PUSH1 0xA0 SHL SUB AND DUP5 DUP5 PUSH2 0x1EB9 JUMP JUMPDEST PUSH1 0x60 DUP2 TIMESTAMP DUP2 LT ISZERO PUSH2 0x1817 JUMPI PUSH1 0x40 MLOAD PUSH3 0x461BCD PUSH1 0xE5 SHL DUP2 MSTORE PUSH1 0x4 ADD PUSH2 0x3E2 SWAP1 PUSH2 0x32DE JUMP JUMPDEST PUSH1 0x1 DUP1 SLOAD PUSH1 0x1 PUSH1 0x1 PUSH1 0xA0 SHL SUB AND SWAP1 DUP8 SWAP1 DUP8 SWAP1 PUSH2 0x1833 SWAP1 DUP3 PUSH2 0x33A2 JUMP JUMPDEST DUP2 DUP2 LT PUSH2 0x1842 JUMPI PUSH2 0x1842 PUSH2 0x3417 JUMP JUMPDEST SWAP1 POP PUSH1 0x20 MUL ADD PUSH1 0x20 DUP2 ADD SWAP1 PUSH2 0x1857 SWAP2 SWAP1 PUSH2 0x2DA5 JUMP JUMPDEST PUSH1 0x1 PUSH1 0x1 PUSH1 0xA0 SHL SUB AND EQ PUSH2 0x187D JUMPI PUSH1 0x40 MLOAD PUSH3 0x461BCD PUSH1 0xE5 SHL DUP2 MSTORE PUSH1 0x4 ADD PUSH2 0x3E2 SWAP1 PUSH2 0x3279 JUMP JUMPDEST PUSH1 0x0 SLOAD PUSH1 0x40 DUP1 MLOAD PUSH1 0x20 DUP1 DUP10 MUL DUP3 DUP2 ADD DUP3 ADD SWAP1 SWAP4 MSTORE DUP9 DUP3 MSTORE PUSH2 0x18C7 SWAP4 PUSH1 0x1 PUSH1 0x1 PUSH1 0xA0 SHL SUB AND SWAP3 DUP13 SWAP3 SWAP2 DUP12 SWAP2 DUP12 SWAP2 DUP3 SWAP2 SWAP1 DUP6 ADD SWAP1 DUP5 SWAP1 DUP1 DUP3 DUP5 CALLDATACOPY PUSH1 0x0 SWAP3 ADD SWAP2 SWAP1 SWAP2 MSTORE POP PUSH2 0x1EB9 SWAP3 POP POP POP JUMP JUMPDEST SWAP2 POP DUP7 DUP3 PUSH1 0x1 DUP5 MLOAD PUSH2 0x18D9 SWAP2 SWAP1 PUSH2 0x33A2 JUMP JUMPDEST DUP2 MLOAD DUP2 LT PUSH2 0x18E9 JUMPI PUSH2 0x18E9 PUSH2 0x3417 JUMP JUMPDEST PUSH1 0x20 MUL PUSH1 0x20 ADD ADD MLOAD LT ISZERO PUSH2 0x190F JUMPI PUSH1 0x40 MLOAD PUSH3 0x461BCD PUSH1 0xE5 SHL DUP2 MSTORE PUSH1 0x4 ADD PUSH2 0x3E2 SWAP1 PUSH2 0x3307 JUMP JUMPDEST PUSH2 0x1925 DUP7 DUP7 PUSH1 0x0 DUP2 DUP2 LT PUSH2 0x493 JUMPI PUSH2 0x493 PUSH2 0x3417 JUMP JUMPDEST PUSH2 0x1964 DUP3 DUP8 DUP8 DUP1 DUP1 PUSH1 0x20 MUL PUSH1 0x20 ADD PUSH1 0x40 MLOAD SWAP1 DUP2 ADD PUSH1 0x40 MSTORE DUP1 SWAP4 SWAP3 SWAP2 SWAP1 DUP2 DUP2 MSTORE PUSH1 0x20 ADD DUP4 DUP4 PUSH1 0x20 MUL DUP1 DUP3 DUP5 CALLDATACOPY PUSH1 0x0 SWAP3 ADD SWAP2 SWAP1 SWAP2 MSTORE POP ADDRESS SWAP3 POP PUSH2 0x21E9 SWAP2 POP POP JUMP JUMPDEST PUSH1 0x1 DUP1 SLOAD DUP4 MLOAD PUSH1 0x1 PUSH1 0x1 PUSH1 0xA0 SHL SUB SWAP1 SWAP2 AND SWAP2 PUSH4 0x2E1A7D4D SWAP2 DUP6 SWAP2 PUSH2 0x1987 SWAP2 PUSH2 0x33A2 JUMP JUMPDEST DUP2 MLOAD DUP2 LT PUSH2 0x1997 JUMPI PUSH2 0x1997 PUSH2 0x3417 JUMP JUMPDEST PUSH1 0x20 MUL PUSH1 0x20 ADD ADD MLOAD PUSH1 0x40 MLOAD DUP3 PUSH4 0xFFFFFFFF AND PUSH1 0xE0 SHL DUP2 MSTORE PUSH1 0x4 ADD PUSH2 0x19BD SWAP2 DUP2 MSTORE PUSH1 0x20 ADD SWAP1 JUMP JUMPDEST PUSH1 0x0 PUSH1 0x40 MLOAD DUP1 DUP4 SUB DUP2 PUSH1 0x0 DUP8 DUP1 EXTCODESIZE ISZERO DUP1 ISZERO PUSH2 0x19D7 JUMPI PUSH1 0x0 DUP1 REVERT JUMPDEST POP GAS CALL ISZERO DUP1 ISZERO PUSH2 0x19EB JUMPI RETURNDATASIZE PUSH1 0x0 DUP1 RETURNDATACOPY RETURNDATASIZE PUSH1 0x0 REVERT JUMPDEST POP POP POP POP PUSH2 0x56E DUP5 DUP4 PUSH1 0x1 DUP6 MLOAD PUSH2 0x1A02 SWAP2 SWAP1 PUSH2 0x33A2 JUMP JUMPDEST DUP2 MLOAD DUP2 LT PUSH2 0x1A12 JUMPI PUSH2 0x1A12 PUSH2 0x3417 JUMP JUMPDEST PUSH1 0x20 MUL PUSH1 0x20 ADD ADD MLOAD PUSH2 0x24CA JUMP JUMPDEST PUSH1 0x0 DUP1 PUSH1 0x0 DUP4 TIMESTAMP DUP2 LT ISZERO PUSH2 0x1A45 JUMPI PUSH1 0x40 MLOAD PUSH3 0x461BCD PUSH1 0xE5 SHL DUP2 MSTORE PUSH1 0x4 ADD PUSH2 0x3E2 SWAP1 PUSH2 0x32DE JUMP JUMPDEST PUSH2 0x1A53 DUP13 DUP13 DUP13 DUP13 DUP13 DUP13 PUSH2 0x25C5 JUMP JUMPDEST PUSH1 0x0 DUP1 SLOAD SWAP3 SWAP7 POP SWAP1 SWAP5 POP SWAP1 PUSH2 0x1A72 SWAP1 PUSH1 0x1 PUSH1 0x1 PUSH1 0xA0 SHL SUB AND DUP15 DUP15 PUSH2 0x2026 JUMP JUMPDEST SWAP1 POP PUSH2 0x1A80 DUP14 CALLER DUP4 DUP9 PUSH2 0x20AB JUMP JUMPDEST PUSH2 0x1A8C DUP13 CALLER DUP4 DUP8 PUSH2 0x20AB JUMP JUMPDEST PUSH1 0x40 MLOAD PUSH4 0x35313C21 PUSH1 0xE1 SHL DUP2 MSTORE PUSH1 0x1 PUSH1 0x1 PUSH1 0xA0 SHL SUB DUP9 DUP2 AND PUSH1 0x4 DUP4 ADD MSTORE DUP3 AND SWAP1 PUSH4 0x6A627842 SWAP1 PUSH1 0x24 ADD PUSH1 0x20 PUSH1 0x40 MLOAD DUP1 DUP4 SUB DUP2 PUSH1 0x0 DUP8 DUP1 EXTCODESIZE ISZERO DUP1 ISZERO PUSH2 0x1ACF JUMPI PUSH1 0x0 DUP1 REVERT JUMPDEST POP GAS CALL ISZERO DUP1 ISZERO PUSH2 0x1AE3 JUMPI RETURNDATASIZE PUSH1 0x0 DUP1 RETURNDATACOPY RETURNDATASIZE PUSH1 0x0 REVERT JUMPDEST POP POP POP POP PUSH1 0x40 MLOAD RETURNDATASIZE PUSH1 0x1F NOT PUSH1 0x1F DUP3 ADD AND DUP3 ADD DUP1 PUSH1 0x40 MSTORE POP DUP2 ADD SWAP1 PUSH2 0x1B07 SWAP2 SWAP1 PUSH2 0x3070 JUMP JUMPDEST SWAP3 POP POP POP SWAP9 POP SWAP9 POP SWAP9 SWAP6 POP POP POP POP POP POP JUMP JUMPDEST PUSH1 0x60 DUP2 TIMESTAMP DUP2 LT ISZERO PUSH2 0x1B3C JUMPI PUSH1 0x40 MLOAD PUSH3 0x461BCD PUSH1 0xE5 SHL DUP2 MSTORE PUSH1 0x4 ADD PUSH2 0x3E2 SWAP1 PUSH2 0x32DE JUMP JUMPDEST PUSH1 0x1 DUP1 SLOAD PUSH1 0x1 PUSH1 0x1 PUSH1 0xA0 SHL SUB AND SWAP1 DUP8 SWAP1 DUP8 SWAP1 PUSH2 0x1B58 SWAP1 DUP3 PUSH2 0x33A2 JUMP JUMPDEST DUP2 DUP2 LT PUSH2 0x1B67 JUMPI PUSH2 0x1B67 PUSH2 0x3417 JUMP JUMPDEST SWAP1 POP PUSH1 0x20 MUL ADD PUSH1 0x20 DUP2 ADD SWAP1 PUSH2 0x1B7C SWAP2 SWAP1 PUSH2 0x2DA5 JUMP JUMPDEST PUSH1 0x1 PUSH1 0x1 PUSH1 0xA0 SHL SUB AND EQ PUSH2 0x1BA2 JUMPI PUSH1 0x40 MLOAD PUSH3 0x461BCD PUSH1 0xE5 SHL DUP2 MSTORE PUSH1 0x4 ADD PUSH2 0x3E2 SWAP1 PUSH2 0x3279 JUMP JUMPDEST PUSH1 0x0 SLOAD PUSH1 0x40 DUP1 MLOAD PUSH1 0x20 DUP1 DUP10 MUL DUP3 DUP2 ADD DUP3 ADD SWAP1 SWAP4 MSTORE DUP9 DUP3 MSTORE PUSH2 0x1BEC SWAP4 PUSH1 0x1 PUSH1 0x1 PUSH1 0xA0 SHL SUB AND SWAP3 DUP13 SWAP3 SWAP2 DUP12 SWAP2 DUP12 SWAP2 DUP3 SWAP2 SWAP1 DUP6 ADD SWAP1 DUP5 SWAP1 DUP1 DUP3 DUP5 CALLDATACOPY PUSH1 0x0 SWAP3 ADD SWAP2 SWAP1 SWAP2 MSTORE POP PUSH2 0x1D2C SWAP3 POP POP POP JUMP JUMPDEST SWAP2 POP DUP7 DUP3 PUSH1 0x0 DUP2 MLOAD DUP2 LT PUSH2 0x1C02 JUMPI PUSH2 0x1C02 PUSH2 0x3417 JUMP JUMPDEST PUSH1 0x20 MUL PUSH1 0x20 ADD ADD MLOAD GT ISZERO PUSH2 0x190F JUMPI PUSH1 0x40 MLOAD PUSH3 0x461BCD PUSH1 0xE5 SHL DUP2 MSTORE PUSH1 0x4 ADD PUSH2 0x3E2 SWAP1 PUSH2 0x32A7 JUMP JUMPDEST PUSH1 0x0 DUP1 DUP5 GT PUSH2 0x1C83 JUMPI PUSH1 0x40 MLOAD PUSH3 0x461BCD PUSH1 0xE5 SHL DUP2 MSTORE PUSH1 0x20 PUSH1 0x4 DUP3 ADD MSTORE PUSH1 0x21 PUSH1 0x24 DUP3 ADD MSTORE PUSH32 0x48656C7065723A20494E53554646494349454E545F494E5055545F414D4F554E PUSH1 0x44 DUP3 ADD MSTORE PUSH1 0x15 PUSH1 0xFA SHL PUSH1 0x64 DUP3 ADD MSTORE PUSH1 0x84 ADD PUSH2 0x3E2 JUMP JUMPDEST PUSH1 0x0 DUP4 GT DUP1 ISZERO PUSH2 0x1C93 JUMPI POP PUSH1 0x0 DUP3 GT JUMPDEST PUSH2 0x1CDF JUMPI PUSH1 0x40 MLOAD PUSH3 0x461BCD PUSH1 0xE5 SHL DUP2 MSTORE PUSH1 0x20 PUSH1 0x4 DUP3 ADD MSTORE PUSH1 0x1E PUSH1 0x24 DUP3 ADD MSTORE PUSH32 0x48656C7065723A20494E53554646494349454E545F4C49515549444954590000 PUSH1 0x44 DUP3 ADD MSTORE PUSH1 0x64 ADD PUSH2 0x3E2 JUMP JUMPDEST PUSH1 0x0 PUSH2 0x1CED DUP6 PUSH2 0x3E5 PUSH2 0x28F8 JUMP JUMPDEST SWAP1 POP PUSH1 0x0 PUSH2 0x1CFB DUP3 DUP6 PUSH2 0x28F8 JUMP JUMPDEST SWAP1 POP PUSH1 0x0 PUSH2 0x1D15 DUP4 PUSH2 0x1D0F DUP9 PUSH2 0x3E8 PUSH2 0x28F8 JUMP JUMPDEST SWAP1 PUSH2 0x295F JUMP JUMPDEST SWAP1 POP PUSH2 0x1D21 DUP2 DUP4 PUSH2 0x3361 JUMP JUMPDEST SWAP8 SWAP7 POP POP POP POP POP POP POP JUMP JUMPDEST PUSH1 0x60 PUSH1 0x2 DUP3 MLOAD LT ISZERO PUSH2 0x1D77 JUMPI PUSH1 0x40 MLOAD PUSH3 0x461BCD PUSH1 0xE5 SHL DUP2 MSTORE PUSH1 0x20 PUSH1 0x4 DUP3 ADD MSTORE PUSH1 0x14 PUSH1 0x24 DUP3 ADD MSTORE PUSH20 0x90CAD8E0CAE47440929CAC82989288BEA082A89 PUSH1 0x63 SHL PUSH1 0x44 DUP3 ADD MSTORE PUSH1 0x64 ADD PUSH2 0x3E2 JUMP JUMPDEST DUP2 MLOAD PUSH8 0xFFFFFFFFFFFFFFFF DUP2 GT ISZERO PUSH2 0x1D91 JUMPI PUSH2 0x1D91 PUSH2 0x342D JUMP JUMPDEST PUSH1 0x40 MLOAD SWAP1 DUP1 DUP3 MSTORE DUP1 PUSH1 0x20 MUL PUSH1 0x20 ADD DUP3 ADD PUSH1 0x40 MSTORE DUP1 ISZERO PUSH2 0x1DBA JUMPI DUP2 PUSH1 0x20 ADD PUSH1 0x20 DUP3 MUL DUP1 CALLDATASIZE DUP4 CALLDATACOPY ADD SWAP1 POP JUMPDEST POP SWAP1 POP DUP3 DUP2 PUSH1 0x1 DUP4 MLOAD PUSH2 0x1DCD SWAP2 SWAP1 PUSH2 0x33A2 JUMP JUMPDEST DUP2 MLOAD DUP2 LT PUSH2 0x1DDD JUMPI PUSH2 0x1DDD PUSH2 0x3417 JUMP JUMPDEST PUSH1 0x20 MUL PUSH1 0x20 ADD ADD DUP2 DUP2 MSTORE POP POP PUSH1 0x0 PUSH1 0x1 DUP4 MLOAD PUSH2 0x1DF9 SWAP2 SWAP1 PUSH2 0x33A2 JUMP JUMPDEST SWAP1 POP JUMPDEST DUP1 ISZERO PUSH2 0x1EB1 JUMPI PUSH1 0x0 DUP1 PUSH2 0x1E4C DUP8 DUP7 PUSH2 0x1E15 PUSH1 0x1 DUP8 PUSH2 0x33A2 JUMP JUMPDEST DUP2 MLOAD DUP2 LT PUSH2 0x1E25 JUMPI PUSH2 0x1E25 PUSH2 0x3417 JUMP JUMPDEST PUSH1 0x20 MUL PUSH1 0x20 ADD ADD MLOAD DUP8 DUP7 DUP2 MLOAD DUP2 LT PUSH2 0x1E3F JUMPI PUSH2 0x1E3F PUSH2 0x3417 JUMP JUMPDEST PUSH1 0x20 MUL PUSH1 0x20 ADD ADD MLOAD PUSH2 0x29B4 JUMP JUMPDEST SWAP2 POP SWAP2 POP PUSH2 0x1E74 DUP5 DUP5 DUP2 MLOAD DUP2 LT PUSH2 0x1E65 JUMPI PUSH2 0x1E65 PUSH2 0x3417 JUMP JUMPDEST PUSH1 0x20 MUL PUSH1 0x20 ADD ADD MLOAD DUP4 DUP4 PUSH2 0x2A8B JUMP JUMPDEST DUP5 PUSH2 0x1E80 PUSH1 0x1 DUP7 PUSH2 0x33A2 JUMP JUMPDEST DUP2 MLOAD DUP2 LT PUSH2 0x1E90 JUMPI PUSH2 0x1E90 PUSH2 0x3417 JUMP JUMPDEST PUSH1 0x20 MUL PUSH1 0x20 ADD ADD DUP2 DUP2 MSTORE POP POP POP POP DUP1 DUP1 PUSH2 0x1EA9 SWAP1 PUSH2 0x33B9 JUMP JUMPDEST SWAP2 POP POP PUSH2 0x1DFC JUMP JUMPDEST POP SWAP4 SWAP3 POP POP POP JUMP JUMPDEST PUSH1 0x60 PUSH1 0x2 DUP3 MLOAD LT ISZERO PUSH2 0x1F04 JUMPI PUSH1 0x40 MLOAD PUSH3 0x461BCD PUSH1 0xE5 SHL DUP2 MSTORE PUSH1 0x20 PUSH1 0x4 DUP3 ADD MSTORE PUSH1 0x14 PUSH1 0x24 DUP3 ADD MSTORE PUSH20 0x90CAD8E0CAE47440929CAC82989288BEA082A89 PUSH1 0x63 SHL PUSH1 0x44 DUP3 ADD MSTORE PUSH1 0x64 ADD PUSH2 0x3E2 JUMP JUMPDEST DUP2 MLOAD PUSH8 0xFFFFFFFFFFFFFFFF DUP2 GT ISZERO PUSH2 0x1F1E JUMPI PUSH2 0x1F1E PUSH2 0x342D JUMP JUMPDEST PUSH1 0x40 MLOAD SWAP1 DUP1 DUP3 MSTORE DUP1 PUSH1 0x20 MUL PUSH1 0x20 ADD DUP3 ADD PUSH1 0x40 MSTORE DUP1 ISZERO PUSH2 0x1F47 JUMPI DUP2 PUSH1 0x20 ADD PUSH1 0x20 DUP3 MUL DUP1 CALLDATASIZE DUP4 CALLDATACOPY ADD SWAP1 POP JUMPDEST POP SWAP1 POP DUP3 DUP2 PUSH1 0x0 DUP2 MLOAD DUP2 LT PUSH2 0x1F5E JUMPI PUSH2 0x1F5E PUSH2 0x3417 JUMP JUMPDEST PUSH1 0x20 MUL PUSH1 0x20 ADD ADD DUP2 DUP2 MSTORE POP POP PUSH1 0x0 JUMPDEST PUSH1 0x1 DUP4 MLOAD PUSH2 0x1F7B SWAP2 SWAP1 PUSH2 0x33A2 JUMP JUMPDEST DUP2 LT ISZERO PUSH2 0x1EB1 JUMPI PUSH1 0x0 DUP1 PUSH2 0x1FC1 DUP8 DUP7 DUP6 DUP2 MLOAD DUP2 LT PUSH2 0x1F9B JUMPI PUSH2 0x1F9B PUSH2 0x3417 JUMP JUMPDEST PUSH1 0x20 MUL PUSH1 0x20 ADD ADD MLOAD DUP8 DUP7 PUSH1 0x1 PUSH2 0x1FB1 SWAP2 SWAP1 PUSH2 0x3349 JUMP JUMPDEST DUP2 MLOAD DUP2 LT PUSH2 0x1E3F JUMPI PUSH2 0x1E3F PUSH2 0x3417 JUMP JUMPDEST SWAP2 POP SWAP2 POP PUSH2 0x1FE9 DUP5 DUP5 DUP2 MLOAD DUP2 LT PUSH2 0x1FDA JUMPI PUSH2 0x1FDA PUSH2 0x3417 JUMP JUMPDEST PUSH1 0x20 MUL PUSH1 0x20 ADD ADD MLOAD DUP4 DUP4 PUSH2 0x1C28 JUMP JUMPDEST DUP5 PUSH2 0x1FF5 DUP6 PUSH1 0x1 PUSH2 0x3349 JUMP JUMPDEST DUP2 MLOAD DUP2 LT PUSH2 0x2005 JUMPI PUSH2 0x2005 PUSH2 0x3417 JUMP JUMPDEST PUSH1 0x20 MUL PUSH1 0x20 ADD ADD DUP2 DUP2 MSTORE POP POP POP POP DUP1 DUP1 PUSH2 0x201E SWAP1 PUSH2 0x33D0 JUMP JUMPDEST SWAP2 POP POP PUSH2 0x1F6D JUMP JUMPDEST PUSH1 0x40 MLOAD PUSH4 0xE6A43905 PUSH1 0xE0 SHL DUP2 MSTORE PUSH1 0x1 PUSH1 0x1 PUSH1 0xA0 SHL SUB DUP4 DUP2 AND PUSH1 0x4 DUP4 ADD MSTORE DUP3 DUP2 AND PUSH1 0x24 DUP4 ADD MSTORE PUSH1 0x0 SWAP2 SWAP1 DUP6 AND SWAP1 PUSH4 0xE6A43905 SWAP1 PUSH1 0x44 ADD PUSH1 0x20 PUSH1 0x40 MLOAD DUP1 DUP4 SUB DUP2 DUP7 DUP1 EXTCODESIZE ISZERO DUP1 ISZERO PUSH2 0x2073 JUMPI PUSH1 0x0 DUP1 REVERT JUMPDEST POP GAS STATICCALL ISZERO DUP1 ISZERO PUSH2 0x2087 JUMPI RETURNDATASIZE PUSH1 0x0 DUP1 RETURNDATACOPY RETURNDATASIZE PUSH1 0x0 REVERT JUMPDEST POP POP POP POP PUSH1 0x40 MLOAD RETURNDATASIZE PUSH1 0x1F NOT PUSH1 0x1F DUP3 ADD AND DUP3 ADD DUP1 PUSH1 0x40 MSTORE POP DUP2 ADD SWAP1 PUSH2 0x394 SWAP2 SWAP1 PUSH2 0x2DC9 JUMP JUMPDEST PUSH1 0x40 DUP1 MLOAD PUSH1 0x1 PUSH1 0x1 PUSH1 0xA0 SHL SUB DUP6 DUP2 AND PUSH1 0x24 DUP4 ADD MSTORE DUP5 DUP2 AND PUSH1 0x44 DUP4 ADD MSTORE PUSH1 0x64 DUP1 DUP4 ADD DUP6 SWAP1 MSTORE DUP4 MLOAD DUP1 DUP5 SUB SWAP1 SWAP2 ADD DUP2 MSTORE PUSH1 0x84 SWAP1 SWAP3 ADD DUP4 MSTORE PUSH1 0x20 DUP3 ADD DUP1 MLOAD PUSH1 0x1 PUSH1 0x1 PUSH1 0xE0 SHL SUB AND PUSH4 0x23B872DD PUSH1 0xE0 SHL OR SWAP1 MSTORE SWAP2 MLOAD PUSH1 0x0 SWAP3 DUP4 SWAP3 SWAP1 DUP9 AND SWAP2 PUSH2 0x210F SWAP2 SWAP1 PUSH2 0x31FA JUMP JUMPDEST PUSH1 0x0 PUSH1 0x40 MLOAD DUP1 DUP4 SUB DUP2 PUSH1 0x0 DUP7 GAS CALL SWAP2 POP POP RETURNDATASIZE DUP1 PUSH1 0x0 DUP2 EQ PUSH2 0x214C JUMPI PUSH1 0x40 MLOAD SWAP2 POP PUSH1 0x1F NOT PUSH1 0x3F RETURNDATASIZE ADD AND DUP3 ADD PUSH1 0x40 MSTORE RETURNDATASIZE DUP3 MSTORE RETURNDATASIZE PUSH1 0x0 PUSH1 0x20 DUP5 ADD RETURNDATACOPY PUSH2 0x2151 JUMP JUMPDEST PUSH1 0x60 SWAP2 POP JUMPDEST POP SWAP2 POP SWAP2 POP DUP2 DUP1 ISZERO PUSH2 0x217B JUMPI POP DUP1 MLOAD ISZERO DUP1 PUSH2 0x217B JUMPI POP DUP1 DUP1 PUSH1 0x20 ADD SWAP1 MLOAD DUP2 ADD SWAP1 PUSH2 0x217B SWAP2 SWAP1 PUSH2 0x301B JUMP JUMPDEST PUSH2 0x21E1 JUMPI PUSH1 0x40 MLOAD PUSH3 0x461BCD PUSH1 0xE5 SHL DUP2 MSTORE PUSH1 0x20 PUSH1 0x4 DUP3 ADD MSTORE PUSH1 0x31 PUSH1 0x24 DUP3 ADD MSTORE PUSH32 0x5472616E7366657248656C7065723A3A7472616E7366657246726F6D3A207472 PUSH1 0x44 DUP3 ADD MSTORE PUSH17 0x185B9CD9995C919C9BDB4819985A5B1959 PUSH1 0x7A SHL PUSH1 0x64 DUP3 ADD MSTORE PUSH1 0x84 ADD PUSH2 0x3E2 JUMP JUMPDEST POP POP POP POP POP POP JUMP JUMPDEST PUSH1 0x0 JUMPDEST PUSH1 0x1 DUP4 MLOAD PUSH2 0x21FA SWAP2 SWAP1 PUSH2 0x33A2 JUMP JUMPDEST DUP2 LT ISZERO PUSH2 0x2393 JUMPI PUSH1 0x0 DUP1 DUP5 DUP4 DUP2 MLOAD DUP2 LT PUSH2 0x2216 JUMPI PUSH2 0x2216 PUSH2 0x3417 JUMP JUMPDEST PUSH1 0x20 MUL PUSH1 0x20 ADD ADD MLOAD DUP6 DUP5 PUSH1 0x1 PUSH2 0x222C SWAP2 SWAP1 PUSH2 0x3349 JUMP JUMPDEST DUP2 MLOAD DUP2 LT PUSH2 0x223C JUMPI PUSH2 0x223C PUSH2 0x3417 JUMP JUMPDEST PUSH1 0x20 MUL PUSH1 0x20 ADD ADD MLOAD SWAP2 POP SWAP2 POP PUSH1 0x0 PUSH2 0x2254 DUP4 DUP4 PUSH2 0x2817 JUMP JUMPDEST POP SWAP1 POP PUSH1 0x0 DUP8 PUSH2 0x2265 DUP7 PUSH1 0x1 PUSH2 0x3349 JUMP JUMPDEST DUP2 MLOAD DUP2 LT PUSH2 0x2275 JUMPI PUSH2 0x2275 PUSH2 0x3417 JUMP JUMPDEST PUSH1 0x20 MUL PUSH1 0x20 ADD ADD MLOAD SWAP1 POP PUSH1 0x0 DUP1 DUP4 PUSH1 0x1 PUSH1 0x1 PUSH1 0xA0 SHL SUB AND DUP7 PUSH1 0x1 PUSH1 0x1 PUSH1 0xA0 SHL SUB AND EQ PUSH2 0x22A3 JUMPI DUP3 PUSH1 0x0 PUSH2 0x22A7 JUMP JUMPDEST PUSH1 0x0 DUP4 JUMPDEST SWAP2 POP SWAP2 POP PUSH1 0x0 PUSH1 0x2 DUP11 MLOAD PUSH2 0x22BB SWAP2 SWAP1 PUSH2 0x33A2 JUMP JUMPDEST DUP9 LT PUSH2 0x22C7 JUMPI DUP9 PUSH2 0x22F4 JUMP JUMPDEST PUSH1 0x0 SLOAD PUSH2 0x22F4 SWAP1 PUSH1 0x1 PUSH1 0x1 PUSH1 0xA0 SHL SUB AND DUP8 DUP13 PUSH2 0x22E4 DUP13 PUSH1 0x2 PUSH2 0x3349 JUMP JUMPDEST DUP2 MLOAD DUP2 LT PUSH2 0x7E4 JUMPI PUSH2 0x7E4 PUSH2 0x3417 JUMP JUMPDEST PUSH1 0x0 SLOAD SWAP1 SWAP2 POP PUSH2 0x230E SWAP1 PUSH1 0x1 PUSH1 0x1 PUSH1 0xA0 SHL SUB AND DUP9 DUP9 PUSH2 0x2026 JUMP JUMPDEST PUSH1 0x40 MLOAD PUSH4 0x36CD3205 PUSH1 0xE1 SHL DUP2 MSTORE PUSH1 0x4 DUP2 ADD DUP6 SWAP1 MSTORE PUSH1 0x24 DUP2 ADD DUP5 SWAP1 MSTORE PUSH1 0x1 PUSH1 0x1 PUSH1 0xA0 SHL SUB DUP4 DUP2 AND PUSH1 0x44 DUP4 ADD MSTORE SWAP2 SWAP1 SWAP2 AND SWAP1 PUSH4 0x6D9A640A SWAP1 PUSH1 0x64 ADD PUSH1 0x0 PUSH1 0x40 MLOAD DUP1 DUP4 SUB DUP2 PUSH1 0x0 DUP8 DUP1 EXTCODESIZE ISZERO DUP1 ISZERO PUSH2 0x2361 JUMPI PUSH1 0x0 DUP1 REVERT JUMPDEST POP GAS CALL ISZERO DUP1 ISZERO PUSH2 0x2375 JUMPI RETURNDATASIZE PUSH1 0x0 DUP1 RETURNDATACOPY RETURNDATASIZE PUSH1 0x0 REVERT JUMPDEST POP POP POP POP POP POP POP POP POP POP POP DUP1 DUP1 PUSH2 0x238B SWAP1 PUSH2 0x33D0 JUMP JUMPDEST SWAP2 POP POP PUSH2 0x21EC JUMP JUMPDEST POP POP POP POP JUMP JUMPDEST PUSH1 0x40 DUP1 MLOAD PUSH1 0x1 PUSH1 0x1 PUSH1 0xA0 SHL SUB DUP5 DUP2 AND PUSH1 0x24 DUP4 ADD MSTORE PUSH1 0x44 DUP1 DUP4 ADD DUP6 SWAP1 MSTORE DUP4 MLOAD DUP1 DUP5 SUB SWAP1 SWAP2 ADD DUP2 MSTORE PUSH1 0x64 SWAP1 SWAP3 ADD DUP4 MSTORE PUSH1 0x20 DUP3 ADD DUP1 MLOAD PUSH1 0x1 PUSH1 0x1 PUSH1 0xE0 SHL SUB AND PUSH4 0xA9059CBB PUSH1 0xE0 SHL OR SWAP1 MSTORE SWAP2 MLOAD PUSH1 0x0 SWAP3 DUP4 SWAP3 SWAP1 DUP8 AND SWAP2 PUSH2 0x23F5 SWAP2 SWAP1 PUSH2 0x31FA JUMP JUMPDEST PUSH1 0x0 PUSH1 0x40 MLOAD DUP1 DUP4 SUB DUP2 PUSH1 0x0 DUP7 GAS CALL SWAP2 POP POP RETURNDATASIZE DUP1 PUSH1 0x0 DUP2 EQ PUSH2 0x2432 JUMPI PUSH1 0x40 MLOAD SWAP2 POP PUSH1 0x1F NOT PUSH1 0x3F RETURNDATASIZE ADD AND DUP3 ADD PUSH1 0x40 MSTORE RETURNDATASIZE DUP3 MSTORE RETURNDATASIZE PUSH1 0x0 PUSH1 0x20 DUP5 ADD RETURNDATACOPY PUSH2 0x2437 JUMP JUMPDEST PUSH1 0x60 SWAP2 POP JUMPDEST POP SWAP2 POP SWAP2 POP DUP2 DUP1 ISZERO PUSH2 0x2461 JUMPI POP DUP1 MLOAD ISZERO DUP1 PUSH2 0x2461 JUMPI POP DUP1 DUP1 PUSH1 0x20 ADD SWAP1 MLOAD DUP2 ADD SWAP1 PUSH2 0x2461 SWAP2 SWAP1 PUSH2 0x301B JUMP JUMPDEST PUSH2 0x24C3 JUMPI PUSH1 0x40 MLOAD PUSH3 0x461BCD PUSH1 0xE5 SHL DUP2 MSTORE PUSH1 0x20 PUSH1 0x4 DUP3 ADD MSTORE PUSH1 0x2D PUSH1 0x24 DUP3 ADD MSTORE PUSH32 0x5472616E7366657248656C7065723A3A736166655472616E736665723A207472 PUSH1 0x44 DUP3 ADD MSTORE PUSH13 0x185B9CD9995C8819985A5B1959 PUSH1 0x9A SHL PUSH1 0x64 DUP3 ADD MSTORE PUSH1 0x84 ADD PUSH2 0x3E2 JUMP JUMPDEST POP POP POP POP POP JUMP JUMPDEST PUSH1 0x40 DUP1 MLOAD PUSH1 0x0 DUP1 DUP3 MSTORE PUSH1 0x20 DUP3 ADD SWAP1 SWAP3 MSTORE PUSH1 0x1 PUSH1 0x1 PUSH1 0xA0 SHL SUB DUP5 AND SWAP1 DUP4 SWAP1 PUSH1 0x40 MLOAD PUSH2 0x24F4 SWAP2 SWAP1 PUSH2 0x31FA JUMP JUMPDEST PUSH1 0x0 PUSH1 0x40 MLOAD DUP1 DUP4 SUB DUP2 DUP6 DUP8 GAS CALL SWAP3 POP POP POP RETURNDATASIZE DUP1 PUSH1 0x0 DUP2 EQ PUSH2 0x2531 JUMPI PUSH1 0x40 MLOAD SWAP2 POP PUSH1 0x1F NOT PUSH1 0x3F RETURNDATASIZE ADD AND DUP3 ADD PUSH1 0x40 MSTORE RETURNDATASIZE DUP3 MSTORE RETURNDATASIZE PUSH1 0x0 PUSH1 0x20 DUP5 ADD RETURNDATACOPY PUSH2 0x2536 JUMP JUMPDEST PUSH1 0x60 SWAP2 POP JUMPDEST POP POP SWAP1 POP DUP1 PUSH2 0x25C0 JUMPI PUSH1 0x40 MLOAD PUSH3 0x461BCD PUSH1 0xE5 SHL DUP2 MSTORE PUSH1 0x20 PUSH1 0x4 DUP3 ADD MSTORE PUSH1 0x4A PUSH1 0x24 DUP3 ADD MSTORE PUSH32 0x5472616E7366657248656C7065723A3A736166655472616E736665724E617469 PUSH1 0x44 DUP3 ADD MSTORE PUSH32 0x766543757272656E63793A204E617469766543757272656E6379207472616E73 PUSH1 0x64 DUP3 ADD MSTORE PUSH10 0x19995C8819985A5B1959 PUSH1 0xB2 SHL PUSH1 0x84 DUP3 ADD MSTORE PUSH1 0xA4 ADD PUSH2 0x3E2 JUMP JUMPDEST POP POP POP JUMP JUMPDEST PUSH1 0x0 DUP1 SLOAD PUSH1 0x40 MLOAD PUSH4 0xE6A43905 PUSH1 0xE0 SHL DUP2 MSTORE PUSH1 0x1 PUSH1 0x1 PUSH1 0xA0 SHL SUB DUP10 DUP2 AND PUSH1 0x4 DUP4 ADD MSTORE DUP9 DUP2 AND PUSH1 0x24 DUP4 ADD MSTORE DUP4 SWAP3 DUP4 SWAP3 SWAP2 AND SWAP1 PUSH4 0xE6A43905 SWAP1 PUSH1 0x44 ADD PUSH1 0x20 PUSH1 0x40 MLOAD DUP1 DUP4 SUB DUP2 DUP7 DUP1 EXTCODESIZE ISZERO DUP1 ISZERO PUSH2 0x2616 JUMPI PUSH1 0x0 DUP1 REVERT JUMPDEST POP GAS STATICCALL ISZERO DUP1 ISZERO PUSH2 0x262A JUMPI RETURNDATASIZE PUSH1 0x0 DUP1 RETURNDATACOPY RETURNDATASIZE PUSH1 0x0 REVERT JUMPDEST POP POP POP POP PUSH1 0x40 MLOAD RETURNDATASIZE PUSH1 0x1F NOT PUSH1 0x1F DUP3 ADD AND DUP3 ADD DUP1 PUSH1 0x40 MSTORE POP DUP2 ADD SWAP1 PUSH2 0x264E SWAP2 SWAP1 PUSH2 0x2DC9 JUMP JUMPDEST PUSH1 0x1 PUSH1 0x1 PUSH1 0xA0 SHL SUB AND EQ ISZERO PUSH2 0x26E6 JUMPI PUSH1 0x0 SLOAD PUSH1 0x40 MLOAD PUSH4 0x64E329CB PUSH1 0xE1 SHL DUP2 MSTORE PUSH1 0x1 PUSH1 0x1 PUSH1 0xA0 SHL SUB DUP11 DUP2 AND PUSH1 0x4 DUP4 ADD MSTORE DUP10 DUP2 AND PUSH1 0x24 DUP4 ADD MSTORE SWAP1 SWAP2 AND SWAP1 PUSH4 0xC9C65396 SWAP1 PUSH1 0x44 ADD PUSH1 0x20 PUSH1 0x40 MLOAD DUP1 DUP4 SUB DUP2 PUSH1 0x0 DUP8 DUP1 EXTCODESIZE ISZERO DUP1 ISZERO PUSH2 0x26AC JUMPI PUSH1 0x0 DUP1 REVERT JUMPDEST POP GAS CALL ISZERO DUP1 ISZERO PUSH2 0x26C0 JUMPI RETURNDATASIZE PUSH1 0x0 DUP1 RETURNDATACOPY RETURNDATASIZE PUSH1 0x0 REVERT JUMPDEST POP POP POP POP PUSH1 0x40 MLOAD RETURNDATASIZE PUSH1 0x1F NOT PUSH1 0x1F DUP3 ADD AND DUP3 ADD DUP1 PUSH1 0x40 MSTORE POP DUP2 ADD SWAP1 PUSH2 0x26E4 SWAP2 SWAP1 PUSH2 0x2DC9 JUMP JUMPDEST POP JUMPDEST PUSH1 0x0 DUP1 SLOAD DUP2 SWAP1 PUSH2 0x2700 SWAP1 PUSH1 0x1 PUSH1 0x1 PUSH1 0xA0 SHL SUB AND DUP12 DUP12 PUSH2 0x29B4 JUMP JUMPDEST SWAP2 POP SWAP2 POP DUP2 PUSH1 0x0 EQ DUP1 ISZERO PUSH2 0x2712 JUMPI POP DUP1 ISZERO JUMPDEST ISZERO PUSH2 0x2722 JUMPI DUP8 SWAP4 POP DUP7 SWAP3 POP PUSH2 0x280A JUMP JUMPDEST PUSH1 0x0 PUSH2 0x272F DUP10 DUP5 DUP5 PUSH2 0x2B8A JUMP JUMPDEST SWAP1 POP DUP8 DUP2 GT PUSH2 0x2793 JUMPI DUP6 DUP2 LT ISZERO PUSH2 0x2788 JUMPI PUSH1 0x40 MLOAD PUSH3 0x461BCD PUSH1 0xE5 SHL DUP2 MSTORE PUSH1 0x20 PUSH1 0x4 DUP3 ADD MSTORE PUSH1 0x1D PUSH1 0x24 DUP3 ADD MSTORE PUSH32 0x526F757465723A20494E53554646494349454E545F315F414D4F554E54000000 PUSH1 0x44 DUP3 ADD MSTORE PUSH1 0x64 ADD PUSH2 0x3E2 JUMP JUMPDEST DUP9 SWAP5 POP SWAP3 POP DUP3 PUSH2 0x2808 JUMP JUMPDEST PUSH1 0x0 PUSH2 0x27A0 DUP10 DUP5 DUP7 PUSH2 0x2B8A JUMP JUMPDEST SWAP1 POP DUP10 DUP2 GT ISZERO PUSH2 0x27B2 JUMPI PUSH2 0x27B2 PUSH2 0x33EB JUMP JUMPDEST DUP8 DUP2 LT ISZERO PUSH2 0x2802 JUMPI PUSH1 0x40 MLOAD PUSH3 0x461BCD PUSH1 0xE5 SHL DUP2 MSTORE PUSH1 0x20 PUSH1 0x4 DUP3 ADD MSTORE PUSH1 0x1D PUSH1 0x24 DUP3 ADD MSTORE PUSH32 0x526F757465723A20494E53554646494349454E545F305F414D4F554E54000000 PUSH1 0x44 DUP3 ADD MSTORE PUSH1 0x64 ADD PUSH2 0x3E2 JUMP JUMPDEST SWAP5 POP DUP8 SWAP4 POP JUMPDEST POP JUMPDEST POP POP SWAP7 POP SWAP7 SWAP5 POP POP POP POP POP JUMP JUMPDEST PUSH1 0x0 DUP1 DUP3 PUSH1 0x1 PUSH1 0x1 PUSH1 0xA0 SHL SUB AND DUP5 PUSH1 0x1 PUSH1 0x1 PUSH1 0xA0 SHL SUB AND EQ ISZERO PUSH2 0x287C JUMPI PUSH1 0x40 MLOAD PUSH3 0x461BCD PUSH1 0xE5 SHL DUP2 MSTORE PUSH1 0x20 PUSH1 0x4 DUP3 ADD MSTORE PUSH1 0x1B PUSH1 0x24 DUP3 ADD MSTORE PUSH32 0x48656C7065723A204944454E544943414C5F4144445245535345530000000000 PUSH1 0x44 DUP3 ADD MSTORE PUSH1 0x64 ADD PUSH2 0x3E2 JUMP JUMPDEST DUP3 PUSH1 0x1 PUSH1 0x1 PUSH1 0xA0 SHL SUB AND DUP5 PUSH1 0x1 PUSH1 0x1 PUSH1 0xA0 SHL SUB AND LT PUSH2 0x289C JUMPI DUP3 DUP5 PUSH2 0x289F JUMP JUMPDEST DUP4 DUP4 JUMPDEST SWAP1 SWAP3 POP SWAP1 POP PUSH1 0x1 PUSH1 0x1 PUSH1 0xA0 SHL SUB DUP3 AND PUSH2 0x28F1 JUMPI PUSH1 0x40 MLOAD PUSH3 0x461BCD PUSH1 0xE5 SHL DUP2 MSTORE PUSH1 0x20 PUSH1 0x4 DUP3 ADD MSTORE PUSH1 0x14 PUSH1 0x24 DUP3 ADD MSTORE PUSH20 0x48656C7065723A205A45524F5F41444452455353 PUSH1 0x60 SHL PUSH1 0x44 DUP3 ADD MSTORE PUSH1 0x64 ADD PUSH2 0x3E2 JUMP JUMPDEST SWAP3 POP SWAP3 SWAP1 POP JUMP JUMPDEST PUSH1 0x0 DUP2 ISZERO DUP1 PUSH2 0x291C JUMPI POP DUP3 DUP3 PUSH2 0x290E DUP2 DUP4 PUSH2 0x3383 JUMP JUMPDEST SWAP3 POP PUSH2 0x291A SWAP1 DUP4 PUSH2 0x3361 JUMP JUMPDEST EQ JUMPDEST PUSH2 0x3B9 JUMPI PUSH1 0x40 MLOAD PUSH3 0x461BCD PUSH1 0xE5 SHL DUP2 MSTORE PUSH1 0x20 PUSH1 0x4 DUP3 ADD MSTORE PUSH1 0x14 PUSH1 0x24 DUP3 ADD MSTORE PUSH20 0x64732D6D6174682D6D756C2D6F766572666C6F77 PUSH1 0x60 SHL PUSH1 0x44 DUP3 ADD MSTORE PUSH1 0x64 ADD PUSH2 0x3E2 JUMP JUMPDEST PUSH1 0x0 DUP3 PUSH2 0x296C DUP4 DUP3 PUSH2 0x3349 JUMP JUMPDEST SWAP2 POP DUP2 LT ISZERO PUSH2 0x3B9 JUMPI PUSH1 0x40 MLOAD PUSH3 0x461BCD PUSH1 0xE5 SHL DUP2 MSTORE PUSH1 0x20 PUSH1 0x4 DUP3 ADD MSTORE PUSH1 0x14 PUSH1 0x24 DUP3 ADD MSTORE PUSH20 0x64732D6D6174682D6164642D6F766572666C6F77 PUSH1 0x60 SHL PUSH1 0x44 DUP3 ADD MSTORE PUSH1 0x64 ADD PUSH2 0x3E2 JUMP JUMPDEST PUSH1 0x0 DUP1 PUSH1 0x0 PUSH2 0x29C3 DUP6 DUP6 PUSH2 0x2817 JUMP JUMPDEST POP SWAP1 POP PUSH1 0x0 DUP1 PUSH2 0x29D4 DUP9 DUP9 DUP9 PUSH2 0x2026 JUMP JUMPDEST PUSH1 0x1 PUSH1 0x1 PUSH1 0xA0 SHL SUB AND PUSH4 0x902F1AC PUSH1 0x40 MLOAD DUP2 PUSH4 0xFFFFFFFF AND PUSH1 0xE0 SHL DUP2 MSTORE PUSH1 0x4 ADD PUSH1 0x40 DUP1 MLOAD DUP1 DUP4 SUB DUP2 DUP7 DUP1 EXTCODESIZE ISZERO DUP1 ISZERO PUSH2 0x2A0B JUMPI PUSH1 0x0 DUP1 REVERT JUMPDEST POP GAS STATICCALL ISZERO DUP1 ISZERO PUSH2 0x2A1F JUMPI RETURNDATASIZE PUSH1 0x0 DUP1 RETURNDATACOPY RETURNDATASIZE PUSH1 0x0 REVERT JUMPDEST POP POP POP POP PUSH1 0x40 MLOAD RETURNDATASIZE PUSH1 0x1F NOT PUSH1 0x1F DUP3 ADD AND DUP3 ADD DUP1 PUSH1 0x40 MSTORE POP DUP2 ADD SWAP1 PUSH2 0x2A43 SWAP2 SWAP1 PUSH2 0x303D JUMP JUMPDEST PUSH1 0x1 PUSH1 0x1 PUSH1 0x70 SHL SUB AND SWAP2 POP PUSH1 0x1 PUSH1 0x1 PUSH1 0x70 SHL SUB AND SWAP2 POP DUP3 PUSH1 0x1 PUSH1 0x1 PUSH1 0xA0 SHL SUB AND DUP8 PUSH1 0x1 PUSH1 0x1 PUSH1 0xA0 SHL SUB AND EQ PUSH2 0x2A79 JUMPI DUP1 DUP3 PUSH2 0x2A7C JUMP JUMPDEST DUP2 DUP2 JUMPDEST SWAP1 SWAP10 SWAP1 SWAP9 POP SWAP7 POP POP POP POP POP POP POP JUMP JUMPDEST PUSH1 0x0 DUP1 DUP5 GT PUSH2 0x2AE7 JUMPI PUSH1 0x40 MLOAD PUSH3 0x461BCD PUSH1 0xE5 SHL DUP2 MSTORE PUSH1 0x20 PUSH1 0x4 DUP3 ADD MSTORE PUSH1 0x22 PUSH1 0x24 DUP3 ADD MSTORE PUSH32 0x48656C7065723A20494E53554646494349454E545F4F55545055545F414D4F55 PUSH1 0x44 DUP3 ADD MSTORE PUSH2 0x1395 PUSH1 0xF2 SHL PUSH1 0x64 DUP3 ADD MSTORE PUSH1 0x84 ADD PUSH2 0x3E2 JUMP JUMPDEST PUSH1 0x0 DUP4 GT DUP1 ISZERO PUSH2 0x2AF7 JUMPI POP PUSH1 0x0 DUP3 GT JUMPDEST PUSH2 0x2B43 JUMPI PUSH1 0x40 MLOAD PUSH3 0x461BCD PUSH1 0xE5 SHL DUP2 MSTORE PUSH1 0x20 PUSH1 0x4 DUP3 ADD MSTORE PUSH1 0x1E PUSH1 0x24 DUP3 ADD MSTORE PUSH32 0x48656C7065723A20494E53554646494349454E545F4C49515549444954590000 PUSH1 0x44 DUP3 ADD MSTORE PUSH1 0x64 ADD PUSH2 0x3E2 JUMP JUMPDEST PUSH1 0x0 PUSH2 0x2B5B PUSH2 0x3E8 PUSH2 0x2B55 DUP7 DUP9 PUSH2 0x28F8 JUMP JUMPDEST SWAP1 PUSH2 0x28F8 JUMP JUMPDEST SWAP1 POP PUSH1 0x0 PUSH2 0x2B6F PUSH2 0x3E5 PUSH2 0x2B55 DUP7 DUP10 PUSH2 0x2C3B JUMP JUMPDEST SWAP1 POP PUSH2 0x2B80 PUSH1 0x1 PUSH2 0x1D0F DUP4 DUP6 PUSH2 0x3361 JUMP JUMPDEST SWAP7 SWAP6 POP POP POP POP POP POP JUMP JUMPDEST PUSH1 0x0 DUP1 DUP5 GT PUSH2 0x2BD1 JUMPI PUSH1 0x40 MLOAD PUSH3 0x461BCD PUSH1 0xE5 SHL DUP2 MSTORE PUSH1 0x20 PUSH1 0x4 DUP3 ADD MSTORE PUSH1 0x13 PUSH1 0x24 DUP3 ADD MSTORE PUSH19 0x125394D551919250D251539517D05353D55395 PUSH1 0x6A SHL PUSH1 0x44 DUP3 ADD MSTORE PUSH1 0x64 ADD PUSH2 0x3E2 JUMP JUMPDEST PUSH1 0x0 DUP4 GT DUP1 ISZERO PUSH2 0x2BE1 JUMPI POP PUSH1 0x0 DUP3 GT JUMPDEST PUSH2 0x2C26 JUMPI PUSH1 0x40 MLOAD PUSH3 0x461BCD PUSH1 0xE5 SHL DUP2 MSTORE PUSH1 0x20 PUSH1 0x4 DUP3 ADD MSTORE PUSH1 0x16 PUSH1 0x24 DUP3 ADD MSTORE PUSH22 0x494E53554646494349454E545F4C4951554944495459 PUSH1 0x50 SHL PUSH1 0x44 DUP3 ADD MSTORE PUSH1 0x64 ADD PUSH2 0x3E2 JUMP JUMPDEST DUP3 PUSH2 0x2C31 DUP6 DUP5 PUSH2 0x28F8 JUMP JUMPDEST PUSH2 0x394 SWAP2 SWAP1 PUSH2 0x3361 JUMP JUMPDEST PUSH1 0x0 DUP3 PUSH2 0x2C48 DUP4 DUP3 PUSH2 0x33A2 JUMP JUMPDEST SWAP2 POP DUP2 GT ISZERO PUSH2 0x3B9 JUMPI PUSH1 0x40 MLOAD PUSH3 0x461BCD PUSH1 0xE5 SHL DUP2 MSTORE PUSH1 0x20 PUSH1 0x4 DUP3 ADD MSTORE PUSH1 0x15 PUSH1 0x24 DUP3 ADD MSTORE PUSH21 0x64732D6D6174682D7375622D756E646572666C6F77 PUSH1 0x58 SHL PUSH1 0x44 DUP3 ADD MSTORE PUSH1 0x64 ADD PUSH2 0x3E2 JUMP JUMPDEST DUP1 CALLDATALOAD PUSH2 0x2C9C DUP2 PUSH2 0x3443 JUMP JUMPDEST SWAP2 SWAP1 POP JUMP JUMPDEST PUSH1 0x0 DUP1 DUP4 PUSH1 0x1F DUP5 ADD SLT PUSH2 0x2CB3 JUMPI PUSH1 0x0 DUP1 REVERT JUMPDEST POP DUP2 CALLDATALOAD PUSH8 0xFFFFFFFFFFFFFFFF DUP2 GT ISZERO PUSH2 0x2CCB JUMPI PUSH1 0x0 DUP1 REVERT JUMPDEST PUSH1 0x20 DUP4 ADD SWAP2 POP DUP4 PUSH1 0x20 DUP3 PUSH1 0x5 SHL DUP6 ADD ADD GT ISZERO PUSH2 0x28F1 JUMPI PUSH1 0x0 DUP1 REVERT JUMPDEST PUSH1 0x0 DUP3 PUSH1 0x1F DUP4 ADD SLT PUSH2 0x2CF7 JUMPI PUSH1 0x0 DUP1 REVERT JUMPDEST DUP2 CALLDATALOAD PUSH1 0x20 PUSH8 0xFFFFFFFFFFFFFFFF DUP1 DUP4 GT ISZERO PUSH2 0x2D14 JUMPI PUSH2 0x2D14 PUSH2 0x342D JUMP JUMPDEST DUP3 PUSH1 0x5 SHL PUSH1 0x40 MLOAD PUSH1 0x1F NOT PUSH1 0x3F DUP4 ADD AND DUP2 ADD DUP2 DUP2 LT DUP5 DUP3 GT OR ISZERO PUSH2 0x2D39 JUMPI PUSH2 0x2D39 PUSH2 0x342D JUMP JUMPDEST PUSH1 0x40 MSTORE DUP5 DUP2 MSTORE DUP4 DUP2 ADD SWAP3 POP DUP7 DUP5 ADD DUP3 DUP9 ADD DUP6 ADD DUP10 LT ISZERO PUSH2 0x2D58 JUMPI PUSH1 0x0 DUP1 REVERT JUMPDEST PUSH1 0x0 SWAP3 POP JUMPDEST DUP6 DUP4 LT ISZERO PUSH2 0x2D82 JUMPI PUSH2 0x2D6E DUP2 PUSH2 0x2C91 JUMP JUMPDEST DUP5 MSTORE SWAP3 DUP5 ADD SWAP3 PUSH1 0x1 SWAP3 SWAP1 SWAP3 ADD SWAP2 DUP5 ADD PUSH2 0x2D5D JUMP JUMPDEST POP SWAP8 SWAP7 POP POP POP POP POP POP POP JUMP JUMPDEST DUP1 MLOAD PUSH1 0x1 PUSH1 0x1 PUSH1 0x70 SHL SUB DUP2 AND DUP2 EQ PUSH2 0x2C9C JUMPI PUSH1 0x0 DUP1 REVERT JUMPDEST PUSH1 0x0 PUSH1 0x20 DUP3 DUP5 SUB SLT ISZERO PUSH2 0x2DB7 JUMPI PUSH1 0x0 DUP1 REVERT JUMPDEST DUP2 CALLDATALOAD PUSH2 0x2DC2 DUP2 PUSH2 0x3443 JUMP JUMPDEST SWAP4 SWAP3 POP POP POP JUMP JUMPDEST PUSH1 0x0 PUSH1 0x20 DUP3 DUP5 SUB SLT ISZERO PUSH2 0x2DDB JUMPI PUSH1 0x0 DUP1 REVERT JUMPDEST DUP2 MLOAD PUSH2 0x2DC2 DUP2 PUSH2 0x3443 JUMP JUMPDEST PUSH1 0x0 DUP1 PUSH1 0x0 DUP1 PUSH1 0x0 DUP1 PUSH1 0x0 PUSH1 0xE0 DUP9 DUP11 SUB SLT ISZERO PUSH2 0x2E01 JUMPI PUSH1 0x0 DUP1 REVERT JUMPDEST DUP8 CALLDATALOAD PUSH2 0x2E0C DUP2 PUSH2 0x3443 JUMP JUMPDEST SWAP7 POP PUSH1 0x20 DUP9 ADD CALLDATALOAD PUSH2 0x2E1C DUP2 PUSH2 0x3443 JUMP JUMPDEST SWAP6 POP PUSH1 0x40 DUP9 ADD CALLDATALOAD SWAP5 POP PUSH1 0x60 DUP9 ADD CALLDATALOAD SWAP4 POP PUSH1 0x80 DUP9 ADD CALLDATALOAD SWAP3 POP PUSH1 0xA0 DUP9 ADD CALLDATALOAD PUSH2 0x2E41 DUP2 PUSH2 0x3443 JUMP JUMPDEST DUP1 SWAP3 POP POP PUSH1 0xC0 DUP9 ADD CALLDATALOAD SWAP1 POP SWAP3 SWAP6 SWAP9 SWAP2 SWAP5 SWAP8 POP SWAP3 SWAP6 POP JUMP JUMPDEST PUSH1 0x0 DUP1 PUSH1 0x0 DUP1 PUSH1 0x0 DUP1 PUSH1 0x0 DUP1 PUSH2 0x100 DUP10 DUP12 SUB SLT ISZERO PUSH2 0x2E75 JUMPI PUSH1 0x0 DUP1 REVERT JUMPDEST DUP9 CALLDATALOAD PUSH2 0x2E80 DUP2 PUSH2 0x3443 JUMP JUMPDEST SWAP8 POP PUSH1 0x20 DUP10 ADD CALLDATALOAD PUSH2 0x2E90 DUP2 PUSH2 0x3443 JUMP JUMPDEST SWAP7 POP PUSH1 0x40 DUP10 ADD CALLDATALOAD SWAP6 POP PUSH1 0x60 DUP10 ADD CALLDATALOAD SWAP5 POP PUSH1 0x80 DUP10 ADD CALLDATALOAD SWAP4 POP PUSH1 0xA0 DUP10 ADD CALLDATALOAD SWAP3 POP PUSH1 0xC0 DUP10 ADD CALLDATALOAD PUSH2 0x2EBC DUP2 PUSH2 0x3443 JUMP JUMPDEST DUP1 SWAP3 POP POP PUSH1 0xE0 DUP10 ADD CALLDATALOAD SWAP1 POP SWAP3 SWAP6 SWAP9 POP SWAP3 SWAP6 SWAP9 SWAP1 SWAP4 SWAP7 POP JUMP JUMPDEST PUSH1 0x0 DUP1 PUSH1 0x0 DUP1 PUSH1 0x0 DUP1 PUSH1 0xC0 DUP8 DUP10 SUB SLT ISZERO PUSH2 0x2EED JUMPI PUSH1 0x0 DUP1 REVERT JUMPDEST DUP7 CALLDATALOAD PUSH2 0x2EF8 DUP2 PUSH2 0x3443 JUMP JUMPDEST SWAP6 POP PUSH1 0x20 DUP8 ADD CALLDATALOAD SWAP5 POP PUSH1 0x40 DUP8 ADD CALLDATALOAD SWAP4 POP PUSH1 0x60 DUP8 ADD CALLDATALOAD SWAP3 POP PUSH1 0x80 DUP8 ADD CALLDATALOAD PUSH2 0x2F1D DUP2 PUSH2 0x3443 JUMP JUMPDEST DUP1 SWAP3 POP POP PUSH1 0xA0 DUP8 ADD CALLDATALOAD SWAP1 POP SWAP3 SWAP6 POP SWAP3 SWAP6 POP SWAP3 SWAP6 JUMP JUMPDEST PUSH1 0x0 DUP1 PUSH1 0x0 DUP1 PUSH1 0x0 DUP1 PUSH1 0x0 DUP1 PUSH1 0xE0 DUP10 DUP12 SUB SLT ISZERO PUSH2 0x2F4E JUMPI PUSH1 0x0 DUP1 REVERT JUMPDEST DUP9 CALLDATALOAD PUSH8 0xFFFFFFFFFFFFFFFF DUP2 GT ISZERO PUSH2 0x2F65 JUMPI PUSH1 0x0 DUP1 REVERT JUMPDEST PUSH2 0x2F71 DUP12 DUP3 DUP13 ADD PUSH2 0x2CA1 JUMP JUMPDEST SWAP1 SWAP10 POP SWAP8 POP POP PUSH1 0x20 DUP10 ADD CALLDATALOAD SWAP6 POP PUSH1 0x40 DUP10 ADD CALLDATALOAD SWAP5 POP PUSH1 0x60 DUP10 ADD CALLDATALOAD SWAP4 POP PUSH1 0x80 DUP10 ADD CALLDATALOAD SWAP3 POP PUSH1 0xA0 DUP10 ADD CALLDATALOAD PUSH2 0x2FA1 DUP2 PUSH2 0x3443 JUMP JUMPDEST DUP1 SWAP3 POP POP PUSH1 0xC0 DUP10 ADD CALLDATALOAD SWAP1 POP SWAP3 SWAP6 SWAP9 POP SWAP3 SWAP6 SWAP9 SWAP1 SWAP4 SWAP7 POP JUMP JUMPDEST PUSH1 0x0 DUP1 PUSH1 0x0 DUP1 PUSH1 0x0 DUP1 PUSH1 0xC0 DUP8 DUP10 SUB SLT ISZERO PUSH2 0x2FD2 JUMPI PUSH1 0x0 DUP1 REVERT JUMPDEST DUP7 CALLDATALOAD PUSH8 0xFFFFFFFFFFFFFFFF DUP2 GT ISZERO PUSH2 0x2FE9 JUMPI PUSH1 0x0 DUP1 REVERT JUMPDEST PUSH2 0x2FF5 DUP10 DUP3 DUP11 ADD PUSH2 0x2CE6 JUMP JUMPDEST SWAP7 POP POP PUSH1 0x20 DUP8 ADD CALLDATALOAD SWAP5 POP PUSH1 0x40 DUP8 ADD CALLDATALOAD SWAP4 POP PUSH1 0x60 DUP8 ADD CALLDATALOAD SWAP3 POP PUSH1 0x80 DUP8 ADD CALLDATALOAD PUSH2 0x2F1D DUP2 PUSH2 0x3443 JUMP JUMPDEST PUSH1 0x0 PUSH1 0x20 DUP3 DUP5 SUB SLT ISZERO PUSH2 0x302D JUMPI PUSH1 0x0 DUP1 REVERT JUMPDEST DUP2 MLOAD DUP1 ISZERO ISZERO DUP2 EQ PUSH2 0x2DC2 JUMPI PUSH1 0x0 DUP1 REVERT JUMPDEST PUSH1 0x0 DUP1 PUSH1 0x40 DUP4 DUP6 SUB SLT ISZERO PUSH2 0x3050 JUMPI PUSH1 0x0 DUP1 REVERT JUMPDEST PUSH2 0x3059 DUP4 PUSH2 0x2D8E JUMP JUMPDEST SWAP2 POP PUSH2 0x3067 PUSH1 0x20 DUP5 ADD PUSH2 0x2D8E JUMP JUMPDEST SWAP1 POP SWAP3 POP SWAP3 SWAP1 POP JUMP JUMPDEST PUSH1 0x0 PUSH1 0x20 DUP3 DUP5 SUB SLT ISZERO PUSH2 0x3082 JUMPI PUSH1 0x0 DUP1 REVERT JUMPDEST POP MLOAD SWAP2 SWAP1 POP JUMP JUMPDEST PUSH1 0x0 DUP1 PUSH1 0x0 DUP1 PUSH1 0x0 PUSH1 0x80 DUP7 DUP9 SUB SLT ISZERO PUSH2 0x30A1 JUMPI PUSH1 0x0 DUP1 REVERT JUMPDEST DUP6 CALLDATALOAD SWAP5 POP PUSH1 0x20 DUP7 ADD CALLDATALOAD PUSH8 0xFFFFFFFFFFFFFFFF DUP2 GT ISZERO PUSH2 0x30BF JUMPI PUSH1 0x0 DUP1 REVERT JUMPDEST PUSH2 0x30CB DUP9 DUP3 DUP10 ADD PUSH2 0x2CA1 JUMP JUMPDEST SWAP1 SWAP6 POP SWAP4 POP POP PUSH1 0x40 DUP7 ADD CALLDATALOAD PUSH2 0x30DF DUP2 PUSH2 0x3443 JUMP JUMPDEST SWAP5 SWAP8 SWAP4 SWAP7 POP SWAP2 SWAP5 PUSH1 0x60 ADD CALLDATALOAD SWAP3 SWAP2 POP POP JUMP JUMPDEST PUSH1 0x0 DUP1 PUSH1 0x40 DUP4 DUP6 SUB SLT ISZERO PUSH2 0x3103 JUMPI PUSH1 0x0 DUP1 REVERT JUMPDEST DUP3 CALLDATALOAD SWAP2 POP PUSH1 0x20 DUP4 ADD CALLDATALOAD PUSH8 0xFFFFFFFFFFFFFFFF DUP2 GT ISZERO PUSH2 0x3121 JUMPI PUSH1 0x0 DUP1 REVERT JUMPDEST PUSH2 0x312D DUP6 DUP3 DUP7 ADD PUSH2 0x2CE6 JUMP JUMPDEST SWAP2 POP POP SWAP3 POP SWAP3 SWAP1 POP JUMP JUMPDEST PUSH1 0x0 DUP1 PUSH1 0x40 DUP4 DUP6 SUB SLT ISZERO PUSH2 0x314A JUMPI PUSH1 0x0 DUP1 REVERT JUMPDEST POP POP DUP1 MLOAD PUSH1 0x20 SWAP1 SWAP2 ADD MLOAD SWAP1 SWAP3 SWAP1 SWAP2 POP JUMP JUMPDEST PUSH1 0x0 DUP1 PUSH1 0x0 DUP1 PUSH1 0x0 DUP1 PUSH1 0xA0 DUP8 DUP10 SUB SLT ISZERO PUSH2 0x3174 JUMPI PUSH1 0x0 DUP1 REVERT JUMPDEST DUP7 CALLDATALOAD SWAP6 POP PUSH1 0x20 DUP8 ADD CALLDATALOAD SWAP5 POP PUSH1 0x40 DUP8 ADD CALLDATALOAD PUSH8 0xFFFFFFFFFFFFFFFF DUP2 GT ISZERO PUSH2 0x3199 JUMPI PUSH1 0x0 DUP1 REVERT JUMPDEST PUSH2 0x31A5 DUP10 DUP3 DUP11 ADD PUSH2 0x2CA1 JUMP JUMPDEST SWAP1 SWAP6 POP SWAP4 POP POP PUSH1 0x60 DUP8 ADD CALLDATALOAD PUSH2 0x31B9 DUP2 PUSH2 0x3443 JUMP JUMPDEST DUP1 SWAP3 POP POP PUSH1 0x80 DUP8 ADD CALLDATALOAD SWAP1 POP SWAP3 SWAP6 POP SWAP3 SWAP6 POP SWAP3 SWAP6 JUMP JUMPDEST PUSH1 0x0 DUP1 PUSH1 0x0 PUSH1 0x60 DUP5 DUP7 SUB SLT ISZERO PUSH2 0x31E3 JUMPI PUSH1 0x0 DUP1 REVERT JUMPDEST POP POP DUP2 CALLDATALOAD SWAP4 PUSH1 0x20 DUP4 ADD CALLDATALOAD SWAP4 POP PUSH1 0x40 SWAP1 SWAP3 ADD CALLDATALOAD SWAP2 SWAP1 POP JUMP JUMPDEST PUSH1 0x0 DUP3 MLOAD PUSH1 0x0 JUMPDEST DUP2 DUP2 LT ISZERO PUSH2 0x321B JUMPI PUSH1 0x20 DUP2 DUP7 ADD DUP2 ADD MLOAD DUP6 DUP4 ADD MSTORE ADD PUSH2 0x3201 JUMP JUMPDEST DUP2 DUP2 GT ISZERO PUSH2 0x322A JUMPI PUSH1 0x0 DUP3 DUP6 ADD MSTORE JUMPDEST POP SWAP2 SWAP1 SWAP2 ADD SWAP3 SWAP2 POP POP JUMP JUMPDEST PUSH1 0x20 DUP1 DUP3 MSTORE DUP3 MLOAD DUP3 DUP3 ADD DUP2 SWAP1 MSTORE PUSH1 0x0 SWAP2 SWAP1 DUP5 DUP3 ADD SWAP1 PUSH1 0x40 DUP6 ADD SWAP1 DUP5 JUMPDEST DUP2 DUP2 LT ISZERO PUSH2 0x326D JUMPI DUP4 MLOAD DUP4 MSTORE SWAP3 DUP5 ADD SWAP3 SWAP2 DUP5 ADD SWAP2 PUSH1 0x1 ADD PUSH2 0x3251 JUMP JUMPDEST POP SWAP1 SWAP7 SWAP6 POP POP POP POP POP POP JUMP JUMPDEST PUSH1 0x20 DUP1 DUP3 MSTORE PUSH1 0x14 SWAP1 DUP3 ADD MSTORE PUSH20 0xA4DEEAE8CAE47440929CAC82989288BEA082A89 PUSH1 0x63 SHL PUSH1 0x40 DUP3 ADD MSTORE PUSH1 0x60 ADD SWAP1 JUMP JUMPDEST PUSH1 0x20 DUP1 DUP3 MSTORE PUSH1 0x1E SWAP1 DUP3 ADD MSTORE PUSH32 0x526F757465723A204558434553534956455F494E5055545F414D4F554E540000 PUSH1 0x40 DUP3 ADD MSTORE PUSH1 0x60 ADD SWAP1 JUMP JUMPDEST PUSH1 0x20 DUP1 DUP3 MSTORE PUSH1 0xF SWAP1 DUP3 ADD MSTORE PUSH15 0x149BDD5D195C8E8811561412549151 PUSH1 0x8A SHL PUSH1 0x40 DUP3 ADD MSTORE PUSH1 0x60 ADD SWAP1 JUMP JUMPDEST PUSH1 0x20 DUP1 DUP3 MSTORE PUSH1 0x22 SWAP1 DUP3 ADD MSTORE PUSH32 0x526F757465723A20494E53554646494349454E545F4F55545055545F414D4F55 PUSH1 0x40 DUP3 ADD MSTORE PUSH2 0x1395 PUSH1 0xF2 SHL PUSH1 0x60 DUP3 ADD MSTORE PUSH1 0x80 ADD SWAP1 JUMP JUMPDEST PUSH1 0x0 DUP3 NOT DUP3 GT ISZERO PUSH2 0x335C JUMPI PUSH2 0x335C PUSH2 0x3401 JUMP JUMPDEST POP ADD SWAP1 JUMP JUMPDEST PUSH1 0x0 DUP3 PUSH2 0x337E JUMPI PUSH4 0x4E487B71 PUSH1 0xE0 SHL PUSH1 0x0 MSTORE PUSH1 0x12 PUSH1 0x4 MSTORE PUSH1 0x24 PUSH1 0x0 REVERT JUMPDEST POP DIV SWAP1 JUMP JUMPDEST PUSH1 0x0 DUP2 PUSH1 0x0 NOT DIV DUP4 GT DUP3 ISZERO ISZERO AND ISZERO PUSH2 0x339D JUMPI PUSH2 0x339D PUSH2 0x3401 JUMP JUMPDEST POP MUL SWAP1 JUMP JUMPDEST PUSH1 0x0 DUP3 DUP3 LT ISZERO PUSH2 0x33B4 JUMPI PUSH2 0x33B4 PUSH2 0x3401 JUMP JUMPDEST POP SUB SWAP1 JUMP JUMPDEST PUSH1 0x0 DUP2 PUSH2 0x33C8 JUMPI PUSH2 0x33C8 PUSH2 0x3401 JUMP JUMPDEST POP PUSH1 0x0 NOT ADD SWAP1 JUMP JUMPDEST PUSH1 0x0 PUSH1 0x0 NOT DUP3 EQ ISZERO PUSH2 0x33E4 JUMPI PUSH2 0x33E4 PUSH2 0x3401 JUMP JUMPDEST POP PUSH1 0x1 ADD SWAP1 JUMP JUMPDEST PUSH4 0x4E487B71 PUSH1 0xE0 SHL PUSH1 0x0 MSTORE PUSH1 0x1 PUSH1 0x4 MSTORE PUSH1 0x24 PUSH1 0x0 REVERT JUMPDEST PUSH4 0x4E487B71 PUSH1 0xE0 SHL PUSH1 0x0 MSTORE PUSH1 0x11 PUSH1 0x4 MSTORE PUSH1 0x24 PUSH1 0x0 REVERT JUMPDEST PUSH4 0x4E487B71 PUSH1 0xE0 SHL PUSH1 0x0 MSTORE PUSH1 0x32 PUSH1 0x4 MSTORE PUSH1 0x24 PUSH1 0x0 REVERT JUMPDEST PUSH4 0x4E487B71 PUSH1 0xE0 SHL PUSH1 0x0 MSTORE PUSH1 0x41 PUSH1 0x4 MSTORE PUSH1 0x24 PUSH1 0x0 REVERT JUMPDEST PUSH1 0x1 PUSH1 0x1 PUSH1 0xA0 SHL SUB DUP2 AND DUP2 EQ PUSH2 0x3458 JUMPI PUSH1 0x0 DUP1 REVERT JUMPDEST POP JUMP INVALID LOG2 PUSH5 0x6970667358 0x22 SLT KECCAK256 DUP4 0xE2 0xB9 DUP6 EQ 0xCC 0xEA PUSH20 0xDF36711C05436E0C8B4AFEE9BD814831B836B445 SWAP5 0xCE 0x25 CHAINID PUSH5 0x736F6C6343 STOP ADDMOD SMOD STOP CALLER "
		},
		"gasEstimates": {
			"creation": {
				"codeDepositCost": "2691400",
				"executionCost": "infinite",
				"totalCost": "infinite"
			},
			"external": {
				"WNativeCurrency()": "2360",
				"addLiquidity(address,address,uint256,uint256,uint256,uint256,address,uint256)": "infinite",
				"addLiquidityNativeCurrency(address,uint256,uint256,uint256,address,uint256)": "infinite",
				"addLiquiditySingleNativeCurrency(address[],uint256,uint256,uint256,address,uint256)": "infinite",
				"addLiquiditySingleToken(address[],uint256,uint256,uint256,uint256,address,uint256)": "infinite",
				"factory()": "2426",
				"getAmountIn(uint256,uint256,uint256)": "infinite",
				"getAmountOut(uint256,uint256,uint256)": "infinite",
				"getAmountsIn(uint256,address[])": "infinite",
				"getAmountsOut(uint256,address[])": "infinite",
				"removeLiquidity(address,address,uint256,uint256,uint256,address,uint256)": "infinite",
				"removeLiquidityNativeCurrency(address,uint256,uint256,uint256,address,uint256)": "infinite",
				"swapExactNativeCurrencyForTokens(uint256,address[],address,uint256)": "infinite",
				"swapExactTokensForNativeCurrency(uint256,uint256,address[],address,uint256)": "infinite",
				"swapExactTokensForTokens(uint256,uint256,address[],address,uint256)": "infinite",
				"swapNativeCurrencyForExactTokens(uint256,address[],address,uint256)": "infinite",
				"swapTokensForExactNativeCurrency(uint256,uint256,address[],address,uint256)": "infinite",
				"swapTokensForExactTokens(uint256,uint256,address[],address,uint256)": "infinite"
			},
			"internal": {
				"_addLiquidity(address,address,uint256,uint256,uint256,uint256)": "infinite",
				"_swap(uint256[] memory,address[] memory,address)": "infinite"
			}
		},
		"methodIdentifiers": {
			"WNativeCurrency()": "419591ed",
			"addLiquidity(address,address,uint256,uint256,uint256,uint256,address,uint256)": "e8e33700",
			"addLiquidityNativeCurrency(address,uint256,uint256,uint256,address,uint256)": "937ca0da",
			"addLiquiditySingleNativeCurrency(address[],uint256,uint256,uint256,address,uint256)": "68658967",
			"addLiquiditySingleToken(address[],uint256,uint256,uint256,uint256,address,uint256)": "b1ea8292",
			"factory()": "c45a0155",
			"getAmountIn(uint256,uint256,uint256)": "85f8c259",
			"getAmountOut(uint256,uint256,uint256)": "054d50d4",
			"getAmountsIn(uint256,address[])": "1f00ca74",
			"getAmountsOut(uint256,address[])": "d06ca61f",
			"removeLiquidity(address,address,uint256,uint256,uint256,address,uint256)": "baa2abde",
			"removeLiquidityNativeCurrency(address,uint256,uint256,uint256,address,uint256)": "403bf1f2",
			"swapExactNativeCurrencyForTokens(uint256,address[],address,uint256)": "cd1bd0d9",
			"swapExactTokensForNativeCurrency(uint256,uint256,address[],address,uint256)": "dcff1b94",
			"swapExactTokensForTokens(uint256,uint256,address[],address,uint256)": "38ed1739",
			"swapNativeCurrencyForExactTokens(uint256,address[],address,uint256)": "9be7614d",
			"swapTokensForExactNativeCurrency(uint256,uint256,address[],address,uint256)": "f85b7c8b",
			"swapTokensForExactTokens(uint256,uint256,address[],address,uint256)": "8803dbee"
		}
	},
	"abi": [
		{
			"inputs": [
				{
					"internalType": "address",
					"name": "_factory",
					"type": "address"
				},
				{
					"internalType": "address",
					"name": "_WNativeCurrency",
					"type": "address"
				}
			],
			"stateMutability": "nonpayable",
			"type": "constructor"
		},
		{
			"inputs": [],
			"name": "WNativeCurrency",
			"outputs": [
				{
					"internalType": "address",
					"name": "",
					"type": "address"
				}
			],
			"stateMutability": "view",
			"type": "function"
		},
		{
			"inputs": [
				{
					"internalType": "address",
					"name": "token0",
					"type": "address"
				},
				{
					"internalType": "address",
					"name": "token1",
					"type": "address"
				},
				{
					"internalType": "uint256",
					"name": "amount0Desired",
					"type": "uint256"
				},
				{
					"internalType": "uint256",
					"name": "amount1Desired",
					"type": "uint256"
				},
				{
					"internalType": "uint256",
					"name": "amount0Min",
					"type": "uint256"
				},
				{
					"internalType": "uint256",
					"name": "amount1Min",
					"type": "uint256"
				},
				{
					"internalType": "address",
					"name": "to",
					"type": "address"
				},
				{
					"internalType": "uint256",
					"name": "deadline",
					"type": "uint256"
				}
			],
			"name": "addLiquidity",
			"outputs": [
				{
					"internalType": "uint256",
					"name": "amount0",
					"type": "uint256"
				},
				{
					"internalType": "uint256",
					"name": "amount1",
					"type": "uint256"
				},
				{
					"internalType": "uint256",
					"name": "liquidity",
					"type": "uint256"
				}
			],
			"stateMutability": "nonpayable",
			"type": "function"
		},
		{
			"inputs": [
				{
					"internalType": "address",
					"name": "token",
					"type": "address"
				},
				{
					"internalType": "uint256",
					"name": "amountTokenDesired",
					"type": "uint256"
				},
				{
					"internalType": "uint256",
					"name": "amountTokenMin",
					"type": "uint256"
				},
				{
					"internalType": "uint256",
					"name": "amountNativeCurrencyMin",
					"type": "uint256"
				},
				{
					"internalType": "address",
					"name": "to",
					"type": "address"
				},
				{
					"internalType": "uint256",
					"name": "deadline",
					"type": "uint256"
				}
			],
			"name": "addLiquidityNativeCurrency",
			"outputs": [
				{
					"internalType": "uint256",
					"name": "amountToken",
					"type": "uint256"
				},
				{
					"internalType": "uint256",
					"name": "amountNativeCurrency",
					"type": "uint256"
				},
				{
					"internalType": "uint256",
					"name": "liquidity",
					"type": "uint256"
				}
			],
			"stateMutability": "payable",
			"type": "function"
		},
		{
			"inputs": [
				{
					"internalType": "address[]",
					"name": "path",
					"type": "address[]"
				},
				{
					"internalType": "uint256",
					"name": "amountSwapOut",
					"type": "uint256"
				},
				{
					"internalType": "uint256",
					"name": "nativeCurrencySwapInMax",
					"type": "uint256"
				},
				{
					"internalType": "uint256",
					"name": "nativeCurrencyReserveMin",
					"type": "uint256"
				},
				{
					"internalType": "address",
					"name": "to",
					"type": "address"
				},
				{
					"internalType": "uint256",
					"name": "deadline",
					"type": "uint256"
				}
			],
			"name": "addLiquiditySingleNativeCurrency",
			"outputs": [
				{
					"internalType": "uint256",
					"name": "amountToken",
					"type": "uint256"
				},
				{
					"internalType": "uint256",
					"name": "amountNativeCurrency",
					"type": "uint256"
				},
				{
					"internalType": "uint256",
					"name": "liquidity",
					"type": "uint256"
				}
			],
			"stateMutability": "payable",
			"type": "function"
		},
		{
			"inputs": [
				{
					"internalType": "address[]",
					"name": "path",
					"type": "address[]"
				},
				{
					"internalType": "uint256",
					"name": "amountIn",
					"type": "uint256"
				},
				{
					"internalType": "uint256",
					"name": "amountSwapOut",
					"type": "uint256"
				},
				{
					"internalType": "uint256",
					"name": "amountSwapInMax",
					"type": "uint256"
				},
				{
					"internalType": "uint256",
					"name": "amountInReserveMin",
					"type": "uint256"
				},
				{
					"internalType": "address",
					"name": "to",
					"type": "address"
				},
				{
					"internalType": "uint256",
					"name": "deadline",
					"type": "uint256"
				}
			],
			"name": "addLiquiditySingleToken",
			"outputs": [
				{
					"internalType": "uint256",
					"name": "liquidity",
					"type": "uint256"
				}
			],
			"stateMutability": "nonpayable",
			"type": "function"
		},
		{
			"inputs": [],
			"name": "factory",
			"outputs": [
				{
					"internalType": "address",
					"name": "",
					"type": "address"
				}
			],
			"stateMutability": "view",
			"type": "function"
		},
		{
			"inputs": [
				{
					"internalType": "uint256",
					"name": "amountOut",
					"type": "uint256"
				},
				{
					"internalType": "uint256",
					"name": "reserveIn",
					"type": "uint256"
				},
				{
					"internalType": "uint256",
					"name": "reserveOut",
					"type": "uint256"
				}
			],
			"name": "getAmountIn",
			"outputs": [
				{
					"internalType": "uint256",
					"name": "amountIn",
					"type": "uint256"
				}
			],
			"stateMutability": "pure",
			"type": "function"
		},
		{
			"inputs": [
				{
					"internalType": "uint256",
					"name": "amountIn",
					"type": "uint256"
				},
				{
					"internalType": "uint256",
					"name": "reserveIn",
					"type": "uint256"
				},
				{
					"internalType": "uint256",
					"name": "reserveOut",
					"type": "uint256"
				}
			],
			"name": "getAmountOut",
			"outputs": [
				{
					"internalType": "uint256",
					"name": "amountOut",
					"type": "uint256"
				}
			],
			"stateMutability": "pure",
			"type": "function"
		},
		{
			"inputs": [
				{
					"internalType": "uint256",
					"name": "amountOut",
					"type": "uint256"
				},
				{
					"internalType": "address[]",
					"name": "path",
					"type": "address[]"
				}
			],
			"name": "getAmountsIn",
			"outputs": [
				{
					"internalType": "uint256[]",
					"name": "amounts",
					"type": "uint256[]"
				}
			],
			"stateMutability": "view",
			"type": "function"
		},
		{
			"inputs": [
				{
					"internalType": "uint256",
					"name": "amountIn",
					"type": "uint256"
				},
				{
					"internalType": "address[]",
					"name": "path",
					"type": "address[]"
				}
			],
			"name": "getAmountsOut",
			"outputs": [
				{
					"internalType": "uint256[]",
					"name": "amounts",
					"type": "uint256[]"
				}
			],
			"stateMutability": "view",
			"type": "function"
		},
		{
			"inputs": [
				{
					"internalType": "address",
					"name": "token0",
					"type": "address"
				},
				{
					"internalType": "address",
					"name": "token1",
					"type": "address"
				},
				{
					"internalType": "uint256",
					"name": "liquidity",
					"type": "uint256"
				},
				{
					"internalType": "uint256",
					"name": "amount0Min",
					"type": "uint256"
				},
				{
					"internalType": "uint256",
					"name": "amount1Min",
					"type": "uint256"
				},
				{
					"internalType": "address",
					"name": "to",
					"type": "address"
				},
				{
					"internalType": "uint256",
					"name": "deadline",
					"type": "uint256"
				}
			],
			"name": "removeLiquidity",
			"outputs": [
				{
					"internalType": "uint256",
					"name": "amount0",
					"type": "uint256"
				},
				{
					"internalType": "uint256",
					"name": "amount1",
					"type": "uint256"
				}
			],
			"stateMutability": "nonpayable",
			"type": "function"
		},
		{
			"inputs": [
				{
					"internalType": "address",
					"name": "token",
					"type": "address"
				},
				{
					"internalType": "uint256",
					"name": "liquidity",
					"type": "uint256"
				},
				{
					"internalType": "uint256",
					"name": "amountTokenMin",
					"type": "uint256"
				},
				{
					"internalType": "uint256",
					"name": "amountNativeCurrencyMin",
					"type": "uint256"
				},
				{
					"internalType": "address",
					"name": "to",
					"type": "address"
				},
				{
					"internalType": "uint256",
					"name": "deadline",
					"type": "uint256"
				}
			],
			"name": "removeLiquidityNativeCurrency",
			"outputs": [
				{
					"internalType": "uint256",
					"name": "amountToken",
					"type": "uint256"
				},
				{
					"internalType": "uint256",
					"name": "amountNativeCurrency",
					"type": "uint256"
				}
			],
			"stateMutability": "nonpayable",
			"type": "function"
		},
		{
			"inputs": [
				{
					"internalType": "uint256",
					"name": "amountOutMin",
					"type": "uint256"
				},
				{
					"internalType": "address[]",
					"name": "path",
					"type": "address[]"
				},
				{
					"internalType": "address",
					"name": "to",
					"type": "address"
				},
				{
					"internalType": "uint256",
					"name": "deadline",
					"type": "uint256"
				}
			],
			"name": "swapExactNativeCurrencyForTokens",
			"outputs": [
				{
					"internalType": "uint256[]",
					"name": "amounts",
					"type": "uint256[]"
				}
			],
			"stateMutability": "payable",
			"type": "function"
		},
		{
			"inputs": [
				{
					"internalType": "uint256",
					"name": "amountIn",
					"type": "uint256"
				},
				{
					"internalType": "uint256",
					"name": "amountOutMin",
					"type": "uint256"
				},
				{
					"internalType": "address[]",
					"name": "path",
					"type": "address[]"
				},
				{
					"internalType": "address",
					"name": "to",
					"type": "address"
				},
				{
					"internalType": "uint256",
					"name": "deadline",
					"type": "uint256"
				}
			],
			"name": "swapExactTokensForNativeCurrency",
			"outputs": [
				{
					"internalType": "uint256[]",
					"name": "amounts",
					"type": "uint256[]"
				}
			],
			"stateMutability": "nonpayable",
			"type": "function"
		},
		{
			"inputs": [
				{
					"internalType": "uint256",
					"name": "amountIn",
					"type": "uint256"
				},
				{
					"internalType": "uint256",
					"name": "amountOutMin",
					"type": "uint256"
				},
				{
					"internalType": "address[]",
					"name": "path",
					"type": "address[]"
				},
				{
					"internalType": "address",
					"name": "to",
					"type": "address"
				},
				{
					"internalType": "uint256",
					"name": "deadline",
					"type": "uint256"
				}
			],
			"name": "swapExactTokensForTokens",
			"outputs": [
				{
					"internalType": "uint256[]",
					"name": "amounts",
					"type": "uint256[]"
				}
			],
			"stateMutability": "nonpayable",
			"type": "function"
		},
		{
			"inputs": [
				{
					"internalType": "uint256",
					"name": "amountOut",
					"type": "uint256"
				},
				{
					"internalType": "address[]",
					"name": "path",
					"type": "address[]"
				},
				{
					"internalType": "address",
					"name": "to",
					"type": "address"
				},
				{
					"internalType": "uint256",
					"name": "deadline",
					"type": "uint256"
				}
			],
			"name": "swapNativeCurrencyForExactTokens",
			"outputs": [
				{
					"internalType": "uint256[]",
					"name": "amounts",
					"type": "uint256[]"
				}
			],
			"stateMutability": "payable",
			"type": "function"
		},
		{
			"inputs": [
				{
					"internalType": "uint256",
					"name": "amountOut",
					"type": "uint256"
				},
				{
					"internalType": "uint256",
					"name": "amountInMax",
					"type": "uint256"
				},
				{
					"internalType": "address[]",
					"name": "path",
					"type": "address[]"
				},
				{
					"internalType": "address",
					"name": "to",
					"type": "address"
				},
				{
					"internalType": "uint256",
					"name": "deadline",
					"type": "uint256"
				}
			],
			"name": "swapTokensForExactNativeCurrency",
			"outputs": [
				{
					"internalType": "uint256[]",
					"name": "amounts",
					"type": "uint256[]"
				}
			],
			"stateMutability": "nonpayable",
			"type": "function"
		},
		{
			"inputs": [
				{
					"internalType": "uint256",
					"name": "amountOut",
					"type": "uint256"
				},
				{
					"internalType": "uint256",
					"name": "amountInMax",
					"type": "uint256"
				},
				{
					"internalType": "address[]",
					"name": "path",
					"type": "address[]"
				},
				{
					"internalType": "address",
					"name": "to",
					"type": "address"
				},
				{
					"internalType": "uint256",
					"name": "deadline",
					"type": "uint256"
				}
			],
			"name": "swapTokensForExactTokens",
			"outputs": [
				{
					"internalType": "uint256[]",
					"name": "amounts",
					"type": "uint256[]"
				}
			],
			"stateMutability": "nonpayable",
			"type": "function"
		},
		{
			"stateMutability": "payable",
			"type": "receive"
		}
	]
}