{
  "_format": "hh-sol-artifact-1",
  "contractName": "Stake",
  "sourceName": "contracts/periphery/Stake.sol",
  "abi": [
    {
      "inputs": [
        {
          "internalType": "address",
          "name": "_stakeToken",
          "type": "address"
        },
        {
          "internalType": "address",
          "name": "_rewardToken",
          "type": "address"
        },
        {
          "internalType": "uint256",
          "name": "_startBlock",
          "type": "uint256"
        },
        {
          "internalType": "uint256",
          "name": "_endBlock",
          "type": "uint256"
        }
      ],
      "stateMutability": "nonpayable",
      "type": "constructor"
    },
    {
      "anonymous": false,
      "inputs": [
        {
          "indexed": true,
          "internalType": "address",
          "name": "oldAdmin",
          "type": "address"
        },
        {
          "indexed": true,
          "internalType": "address",
          "name": "newAdmin",
          "type": "address"
        }
      ],
      "name": "AdminChanged",
      "type": "event"
    },
    {
      "anonymous": false,
      "inputs": [
        {
          "indexed": true,
          "internalType": "address",
          "name": "newAdmin",
          "type": "address"
        }
      ],
      "name": "Candidate",
      "type": "event"
    },
    {
      "anonymous": false,
      "inputs": [
        {
          "indexed": true,
          "internalType": "address",
          "name": "user",
          "type": "address"
        },
        {
          "indexed": false,
          "internalType": "uint256",
          "name": "redeemAmount",
          "type": "uint256"
        },
        {
          "indexed": false,
          "internalType": "uint256",
          "name": "interest",
          "type": "uint256"
        }
      ],
      "name": "Redeem",
      "type": "event"
    },
    {
      "anonymous": false,
      "inputs": [
        {
          "indexed": true,
          "internalType": "address",
          "name": "to",
          "type": "address"
        },
        {
          "indexed": false,
          "internalType": "uint256",
          "name": "amount",
          "type": "uint256"
        }
      ],
      "name": "RewardsClaimed",
      "type": "event"
    },
    {
      "anonymous": false,
      "inputs": [
        {
          "indexed": true,
          "internalType": "address",
          "name": "user",
          "type": "address"
        },
        {
          "indexed": false,
          "internalType": "uint256",
          "name": "amount",
          "type": "uint256"
        },
        {
          "indexed": false,
          "internalType": "uint256",
          "name": "interest",
          "type": "uint256"
        }
      ],
      "name": "Staked",
      "type": "event"
    },
    {
      "anonymous": false,
      "inputs": [
        {
          "indexed": true,
          "internalType": "address",
          "name": "token",
          "type": "address"
        },
        {
          "indexed": true,
          "internalType": "address",
          "name": "to",
          "type": "address"
        },
        {
          "indexed": false,
          "internalType": "uint256",
          "name": "amount",
          "type": "uint256"
        }
      ],
      "name": "Withdraw",
      "type": "event"
    },
    {
      "inputs": [],
      "name": "END_BLOCK",
      "outputs": [
        {
          "internalType": "uint256",
          "name": "",
          "type": "uint256"
        }
      ],
      "stateMutability": "view",
      "type": "function"
    },
    {
      "inputs": [],
      "name": "REWARD_TOKEN",
      "outputs": [
        {
          "internalType": "address",
          "name": "",
          "type": "address"
        }
      ],
      "stateMutability": "view",
      "type": "function"
    },
    {
      "inputs": [],
      "name": "STAKED_TOKEN",
      "outputs": [
        {
          "internalType": "address",
          "name": "",
          "type": "address"
        }
      ],
      "stateMutability": "view",
      "type": "function"
    },
    {
      "inputs": [],
      "name": "START_BLOCK",
      "outputs": [
        {
          "internalType": "uint256",
          "name": "",
          "type": "uint256"
        }
      ],
      "stateMutability": "view",
      "type": "function"
    },
    {
      "inputs": [
        {
          "internalType": "uint256",
          "name": "amount",
          "type": "uint256"
        }
      ],
      "name": "addReward",
      "outputs": [],
      "stateMutability": "nonpayable",
      "type": "function"
    },
    {
      "inputs": [],
      "name": "admin",
      "outputs": [
        {
          "internalType": "address",
          "name": "",
          "type": "address"
        }
      ],
      "stateMutability": "view",
      "type": "function"
    },
    {
      "inputs": [],
      "name": "adminCandidate",
      "outputs": [
        {
          "internalType": "address",
          "name": "",
          "type": "address"
        }
      ],
      "stateMutability": "view",
      "type": "function"
    },
    {
      "inputs": [],
      "name": "candidateConfirm",
      "outputs": [],
      "stateMutability": "nonpayable",
      "type": "function"
    },
    {
      "inputs": [],
      "name": "claim",
      "outputs": [],
      "stateMutability": "nonpayable",
      "type": "function"
    },
    {
      "inputs": [
        {
          "internalType": "address",
          "name": "staker",
          "type": "address"
        }
      ],
      "name": "getEstimatedRewardsBalance",
      "outputs": [
        {
          "internalType": "uint256",
          "name": "",
          "type": "uint256"
        }
      ],
      "stateMutability": "view",
      "type": "function"
    },
    {
      "inputs": [
        {
          "internalType": "address",
          "name": "staker",
          "type": "address"
        }
      ],
      "name": "getStakerInfo",
      "outputs": [
        {
          "internalType": "uint256",
          "name": "stakedAmount",
          "type": "uint256"
        },
        {
          "internalType": "uint256",
          "name": "accInterest",
          "type": "uint256"
        }
      ],
      "stateMutability": "view",
      "type": "function"
    },
    {
      "inputs": [],
      "name": "pauseClaim",
      "outputs": [],
      "stateMutability": "nonpayable",
      "type": "function"
    },
    {
      "inputs": [],
      "name": "pauseRedeem",
      "outputs": [],
      "stateMutability": "nonpayable",
      "type": "function"
    },
    {
      "inputs": [],
      "name": "pauseStake",
      "outputs": [],
      "stateMutability": "nonpayable",
      "type": "function"
    },
    {
      "inputs": [
        {
          "internalType": "uint256",
          "name": "amount",
          "type": "uint256"
        }
      ],
      "name": "redeem",
      "outputs": [],
      "stateMutability": "nonpayable",
      "type": "function"
    },
    {
      "inputs": [
        {
          "internalType": "address",
          "name": "blacklistAddress",
          "type": "address"
        }
      ],
      "name": "removeBlackList",
      "outputs": [],
      "stateMutability": "nonpayable",
      "type": "function"
    },
    {
      "inputs": [
        {
          "internalType": "uint256",
          "name": "amount",
          "type": "uint256"
        }
      ],
      "name": "removeReward",
      "outputs": [],
      "stateMutability": "nonpayable",
      "type": "function"
    },
    {
      "inputs": [
        {
          "internalType": "address",
          "name": "_candidate",
          "type": "address"
        }
      ],
      "name": "setAdminCandidate",
      "outputs": [],
      "stateMutability": "nonpayable",
      "type": "function"
    },
    {
      "inputs": [
        {
          "internalType": "address",
          "name": "blacklistAddress",
          "type": "address"
        }
      ],
      "name": "setBlackList",
      "outputs": [],
      "stateMutability": "nonpayable",
      "type": "function"
    },
    {
      "inputs": [
        {
          "internalType": "uint256",
          "name": "amount",
          "type": "uint256"
        }
      ],
      "name": "stake",
      "outputs": [],
      "stateMutability": "nonpayable",
      "type": "function"
    },
    {
      "inputs": [],
      "name": "totalInterest",
      "outputs": [
        {
          "internalType": "uint256",
          "name": "",
          "type": "uint256"
        }
      ],
      "stateMutability": "view",
      "type": "function"
    },
    {
      "inputs": [],
      "name": "totalRewardAmount",
      "outputs": [
        {
          "internalType": "uint256",
          "name": "",
          "type": "uint256"
        }
      ],
      "stateMutability": "view",
      "type": "function"
    },
    {
      "inputs": [],
      "name": "totalStakedAmount",
      "outputs": [
        {
          "internalType": "uint256",
          "name": "",
          "type": "uint256"
        }
      ],
      "stateMutability": "view",
      "type": "function"
    },
    {
      "inputs": [],
      "name": "unpauseClaim",
      "outputs": [],
      "stateMutability": "nonpayable",
      "type": "function"
    },
    {
      "inputs": [],
      "name": "unpauseRedeem",
      "outputs": [],
      "stateMutability": "nonpayable",
      "type": "function"
    },
    {
      "inputs": [],
      "name": "unpauseStake",
      "outputs": [],
      "stateMutability": "nonpayable",
      "type": "function"
    },
    {
      "inputs": [
        {
          "internalType": "address",
          "name": "token",
          "type": "address"
        },
        {
          "internalType": "address",
          "name": "to",
          "type": "address"
        },
        {
          "internalType": "uint256",
          "name": "amount",
          "type": "uint256"
        }
      ],
      "name": "withdraw",
      "outputs": [],
      "stateMutability": "nonpayable",
      "type": "function"
    }
  ],
  "bytecode": "0x6101006040523480156200001257600080fd5b5060405162001eb538038062001eb58339810160408190526200003591620001be565b600160005543821015620000665760405162461bcd60e51b81526004016200005d9062000294565b60405180910390fd5b818111620000885760405162461bcd60e51b81526004016200005d9062000232565b620000933362000153565b6001600160601b0319606085811b821660805284901b1660a05260c082905260e08190526040516370a0823160e01b81526001600160a01b038416906370a0823190620000e59030906004016200021e565b60206040518083038186803b158015620000fe57600080fd5b505afa15801562000113573d6000803e3d6000fd5b505050506040513d601f19601f8201168201806040525081019062000139919062000205565b60055550506006805462ffffff1916905550620002cb9050565b6001546001600160a01b0316156200017f5760405162461bcd60e51b81526004016200005d9062000269565b600180546001600160a01b0319166001600160a01b0392909216919091179055565b80516001600160a01b0381168114620001b957600080fd5b919050565b60008060008060808587031215620001d4578384fd5b620001df85620001a1565b9350620001ef60208601620001a1565b6040860151606090960151949790965092505050565b60006020828403121562000217578081fd5b5051919050565b6001600160a01b0391909116815260200190565b60208082526014908201527f494e56414c49445f5354414b455f504552494f44000000000000000000000000604082015260600190565b60208082526011908201527018591b5a5b88185b1c9958591e481cd95d607a1b604082015260600190565b60208082526013908201527f494e56414c49445f53544152545f424c4f434b00000000000000000000000000604082015260600190565b60805160601c60a05160601c60c05160e051611b2c620003896000396000818161058101528181610840015281816109c201528181610b3101528181610c7801528181610d1101528181610fe901528181611010015261104a0152600081816103b901528181610acc01528181610afd0152610f33015260008181610674015281816108820152818161099e01528181610cdc01528181610d5f0152610db101526000818161032901528181610aa301526110b90152611b2c6000f3fe608060405234801561001057600080fd5b50600436106101a95760003560e01c80638e73064f116100f9578063c553173f11610097578063db006a7511610071578063db006a75146102f1578063de065caa14610304578063e4997dc51461030c578063f851a4401461031f576101a9565b8063c553173f146102c3578063cd3ec1d6146102d6578063d9caed12146102de576101a9565b806399248ea7116100d357806399248ea714610298578063a694fc3a146102a0578063af3345d1146102b3578063bc7a36d6146102bb576101a9565b80638e73064f146102755780638ff095f91461027d57806396de7aa014610285576101a9565b80634c524dcf116101665780637169d717116101405780637169d7171461021b578063727002411461022e578063733bdef01461024157806374de4ec414610262576101a9565b80634c524dcf146102035780634e71d92d1461020b578063567e98f914610213576101a9565b8063312f6b83146101ae57806332ec84d2146101cc57806339b3e826146101d65780633accfa6c146101eb5780633f023230146101f357806342810967146101fb575b600080fd5b6101b6610327565b6040516101c39190611552565b60405180910390f35b6101d461034b565b005b6101de6103b7565b6040516101c39190611a5b565b6101b66103db565b6101d46103ea565b6101d461047a565b6101d46104d6565b6101d461052e565b6101de6106e4565b6101de61022936600461146d565b6106ea565b6101d461023c36600461146d565b610770565b61025461024f36600461146d565b6107c1565b6040516101c3929190611a64565b6101d46102703660046114e9565b610814565b6101de6108bc565b6101d46108c2565b6101d461029336600461146d565b610928565b6101b661099c565b6101d46102ae3660046114e9565b6109c0565b6101d4610be8565b6101de610c46565b6101d46102d13660046114e9565b610c4c565b6101de610d0f565b6101d46102ec36600461148e565b610d33565b6101d46102ff3660046114e9565b610ec1565b6101d461111a565b6101d461031a36600461146d565b61117a565b6101b66111c8565b7f000000000000000000000000000000000000000000000000000000000000000081565b6001546001600160a01b0316331461037e5760405162461bcd60e51b815260040161037590611933565b60405180910390fd5b600654610100900460ff16156103a65760405162461bcd60e51b81526004016103759061174a565b6006805461ff001916610100179055565b7f000000000000000000000000000000000000000000000000000000000000000081565b6002546001600160a01b031681565b6002546001600160a01b031633146104145760405162461bcd60e51b815260040161037590611835565b6002546001546040516001600160a01b0392831692909116907f7e644d79422f17c01e4894b5f4f588d331ebfa28653d42ae832dc59e38c9798f90600090a360028054600180546001600160a01b03199081166001600160a01b03841617909155169055565b6001546001600160a01b031633146104a45760405162461bcd60e51b815260040161037590611933565b60065460ff16156104c75760405162461bcd60e51b815260040161037590611796565b6006805460ff19166001179055565b6001546001600160a01b031633146105005760405162461bcd60e51b815260040161037590611933565b60065460ff166105225760405162461bcd60e51b8152600401610375906117e5565b6006805460ff19169055565b600260005414156105515760405162461bcd60e51b8152600401610375906119ed565b600260005560065462010000900460ff161561057f5760405162461bcd60e51b8152600401610375906115a3565b7f000000000000000000000000000000000000000000000000000000000000000043116105be5760405162461bcd60e51b815260040161037590611907565b6000600354116105e05760405162461bcd60e51b8152600401610375906116d2565b336000908152600760205260409020600381015460ff16156106145760405162461bcd60e51b81526004016103759061185c565b60008160020154116106385760405162461bcd60e51b815260040161037590611709565b600060035461065683600201546005546111d790919063ffffffff16565b6106609190611a8a565b60006002840155436001840155905061069a7f0000000000000000000000000000000000000000000000000000000000000000338361121d565b336001600160a01b03167ffc30cddea38e2bf4d6ea7d3f9ed3b6ad7f176419f4963bd81318067a4aee73fe826040516106d39190611a5b565b60405180910390a250506001600055565b60045481565b6001600160a01b038116600090815260076020908152604080832081516080810183528154815260018201549381019390935260028101549183019190915260039081015460ff16151560608301525415610765576003546040820151600554610753916111d7565b61075d9190611a8a565b91505061076b565b60009150505b919050565b6001546001600160a01b0316331461079a5760405162461bcd60e51b815260040161037590611933565b6001600160a01b03166000908152600760205260409020600301805460ff19166001179055565b6001600160a01b031660009081526007602090815260409182902082516080810184528154808252600183015493820193909352600282015493810184905260039091015460ff16151560609091015291565b6001546001600160a01b0316331461083e5760405162461bcd60e51b815260040161037590611933565b7f0000000000000000000000000000000000000000000000000000000000000000431061087d5760405162461bcd60e51b815260040161037590611771565b6108a97f000000000000000000000000000000000000000000000000000000000000000033308461130a565b6005546108b690826113fa565b60055550565b60055481565b6001546001600160a01b031633146108ec5760405162461bcd60e51b815260040161037590611933565b60065462010000900460ff16156109155760405162461bcd60e51b8152600401610375906115a3565b6006805462ff0000191662010000179055565b6001546001600160a01b031633146109525760405162461bcd60e51b815260040161037590611933565b600280546001600160a01b0319166001600160a01b0383169081179091556040517f8cc40b9abca4a505a92028908f9d913d621d18112c69412806506f02333f26b490600090a250565b7f000000000000000000000000000000000000000000000000000000000000000081565b7f000000000000000000000000000000000000000000000000000000000000000043106109ff5760405162461bcd60e51b815260040161037590611771565b60026000541415610a225760405162461bcd60e51b8152600401610375906119ed565b600260005560065460ff1615610a4a5760405162461bcd60e51b815260040161037590611796565b60008111610a6a5760405162461bcd60e51b815260040161037590611626565b336000908152600760205260409020600381015460ff1615610a9e5760405162461bcd60e51b81526004016103759061185c565b610aca7f000000000000000000000000000000000000000000000000000000000000000033308561130a565b7f0000000000000000000000000000000000000000000000000000000000000000816001015410610afb5743610b1d565b7f00000000000000000000000000000000000000000000000000000000000000005b60018201819055600090610b5d90610b56907f000000000000000000000000000000000000000000000000000000000000000090611428565b84906111d7565b600354909150610b6d90826113fa565b600355600454610b7d90846113fa565b6004558154610b8c90846113fa565b82556002820154610b9d90826113fa565b600283015560405133907f1449c6dd7851abc30abf37f57715f492010519147cc2652fbc38202c18a6ee9090610bd69086908590611a64565b60405180910390a25050600160005550565b6001546001600160a01b03163314610c125760405162461bcd60e51b815260040161037590611933565b600654610100900460ff16610c395760405162461bcd60e51b8152600401610375906117bc565b6006805461ff0019169055565b60035481565b6001546001600160a01b03163314610c765760405162461bcd60e51b815260040161037590611933565b7f00000000000000000000000000000000000000000000000000000000000000004310610cb55760405162461bcd60e51b815260040161037590611771565b600554811115610cd75760405162461bcd60e51b815260040161037590611956565b610d027f0000000000000000000000000000000000000000000000000000000000000000338361121d565b6005546108b69082611428565b7f000000000000000000000000000000000000000000000000000000000000000081565b6001546001600160a01b03163314610d5d5760405162461bcd60e51b815260040161037590611933565b7f00000000000000000000000000000000000000000000000000000000000000006001600160a01b0316836001600160a01b03161415610e66576040516370a0823160e01b81526000906001600160a01b037f000000000000000000000000000000000000000000000000000000000000000016906370a0823190610de6903090600401611552565b60206040518083038186803b158015610dfe57600080fd5b505afa158015610e12573d6000803e3d6000fd5b505050506040513d601f19601f82011682018060405250810190610e369190611501565b600554909150610e468284611428565b1015610e645760405162461bcd60e51b815260040161037590611a24565b505b610e7183838361121d565b816001600160a01b0316836001600160a01b03167f9b1bfa7fa9ee420a16e124f794c35ac9f90472acc99140eb2f6447c714cad8eb83604051610eb49190611a5b565b60405180910390a3505050565b60026000541415610ee45760405162461bcd60e51b8152600401610375906119ed565b6002600055600654610100900460ff1615610f115760405162461bcd60e51b81526004016103759061174a565b60008111610f315760405162461bcd60e51b815260040161037590611626565b7f00000000000000000000000000000000000000000000000000000000000000004311610f705760405162461bcd60e51b8152600401610375906119c2565b336000908152600760205260409020600381015460ff1615610fa45760405162461bcd60e51b81526004016103759061185c565b600454821115610fc65760405162461bcd60e51b81526004016103759061198d565b8054821115610fe75760405162461bcd60e51b815260040161037590611883565b7f00000000000000000000000000000000000000000000000000000000000000004310611034577f0000000000000000000000000000000000000000000000000000000000000000611036565b435b6001820181905560009061106f90610b56907f000000000000000000000000000000000000000000000000000000000000000090611428565b60035490915061107f9082611428565b60035560045461108f9084611428565b600455815461109e9084611428565b825560028201546110af9082611428565b60028301556110df7f0000000000000000000000000000000000000000000000000000000000000000338561121d565b336001600160a01b03167fe5b754fb1abb7f01b499791d0b820ae3b6af3424ac1c59768edb53f4ec31a9298483604051610bd6929190611a64565b6001546001600160a01b031633146111445760405162461bcd60e51b815260040161037590611933565b60065462010000900460ff1661116c5760405162461bcd60e51b81526004016103759061180d565b6006805462ff000019169055565b6001546001600160a01b031633146111a45760405162461bcd60e51b815260040161037590611933565b6001600160a01b03166000908152600760205260409020600301805460ff19169055565b6001546001600160a01b031681565b60008115806111fb575082826111ed8183611aaa565b92506111f99083611a8a565b145b6112175760405162461bcd60e51b8152600401610375906115f8565b92915050565b600080846001600160a01b031663a9059cbb858560405160240161124292919061158a565b6040516020818303038152906040529060e01b6020820180516001600160e01b03838183161783525050505060405161127b9190611519565b6000604051808303816000865af19150503d80600081146112b8576040519150601f19603f3d011682016040523d82523d6000602084013e6112bd565b606091505b50915091508180156112e75750805115806112e75750808060200190518101906112e791906114c9565b6113035760405162461bcd60e51b8152600401610375906118ba565b5050505050565b600080856001600160a01b03166323b872dd86868660405160240161133193929190611566565b6040516020818303038152906040529060e01b6020820180516001600160e01b03838183161783525050505060405161136a9190611519565b6000604051808303816000865af19150503d80600081146113a7576040519150601f19603f3d011682016040523d82523d6000602084013e6113ac565b606091505b50915091508180156113d65750805115806113d65750808060200190518101906113d691906114c9565b6113f25760405162461bcd60e51b815260040161037590611681565b505050505050565b6000826114078382611a72565b91508110156112175760405162461bcd60e51b815260040161037590611653565b6000826114358382611ac9565b91508111156112175760405162461bcd60e51b8152600401610375906115c9565b80356001600160a01b038116811461076b57600080fd5b60006020828403121561147e578081fd5b61148782611456565b9392505050565b6000806000606084860312156114a2578182fd5b6114ab84611456565b92506114b960208501611456565b9150604084013590509250925092565b6000602082840312156114da578081fd5b81518015158114611487578182fd5b6000602082840312156114fa578081fd5b5035919050565b600060208284031215611512578081fd5b5051919050565b60008251815b81811015611539576020818601810151858301520161151f565b818111156115475782828501525b509190910192915050565b6001600160a01b0391909116815260200190565b6001600160a01b039384168152919092166020820152604081019190915260600190565b6001600160a01b03929092168252602082015260400190565b6020808252600c908201526b10d310525357d4105554d15160a21b604082015260600190565b60208082526015908201527464732d6d6174682d7375622d756e646572666c6f7760581b604082015260600190565b60208082526014908201527364732d6d6174682d6d756c2d6f766572666c6f7760601b604082015260600190565b6020808252601390820152721253959053125117d6915493d7d05353d55395606a1b604082015260600190565b60208082526014908201527364732d6d6174682d6164642d6f766572666c6f7760601b604082015260600190565b60208082526031908201527f5472616e7366657248656c7065723a3a7472616e7366657246726f6d3a207472604082015270185b9cd9995c919c9bdb4819985a5b1959607a1b606082015260800190565b6020808252601b908201527f494e56414c49445f5a45524f5f544f54414c5f494e5445524553540000000000604082015260600190565b60208082526021908201527f494e53554646494349454e545f414343554d554c415445445f494e54455245536040820152601560fa1b606082015260800190565b6020808252600d908201526c14915111515357d4105554d151609a1b604082015260600190565b6020808252600b908201526a13d5915497d411549253d160aa1b604082015260600190565b6020808252600c908201526b14d51052d157d4105554d15160a21b604082015260600190565b6020808252600f908201526e14915111515357d55394105554d151608a1b604082015260600190565b6020808252600e908201526d14d51052d157d55394105554d15160921b604082015260600190565b6020808252600e908201526d10d310525357d55394105554d15160921b604082015260600190565b6020808252600d908201526c6e6f742043616e64696461746560981b604082015260600190565b6020808252600d908201526c125397d0931050d2d7d31254d5609a1b604082015260600190565b6020808252601a908201527f494e53554646494349454e545f5354414b45445f414d4f554e54000000000000604082015260600190565b6020808252602d908201527f5472616e7366657248656c7065723a3a736166655472616e736665723a20747260408201526c185b9cd9995c8819985a5b1959609a1b606082015260800190565b60208082526012908201527114d51052d157d393d517d192539254d2115160721b604082015260600190565b6020808252600990820152683737ba1030b236b4b760b91b604082015260600190565b6020808252601a908201527f494e53554646494349454e545f5245574152445f414d4f554e54000000000000604082015260600190565b6020808252818101527f494e53554646494349454e545f544f54414c5f5354414b45445f414d4f554e54604082015260600190565b60208082526011908201527014d51052d157d393d517d4d51054951151607a1b604082015260600190565b6020808252601f908201527f5265656e7472616e637947756172643a207265656e7472616e742063616c6c00604082015260600190565b6020808252601b908201527f494e53554646494349454e545f5245574152445f42414c414e43450000000000604082015260600190565b90815260200190565b918252602082015260400190565b60008219821115611a8557611a85611ae0565b500190565b600082611aa557634e487b7160e01b81526012600452602481fd5b500490565b6000816000190483118215151615611ac457611ac4611ae0565b500290565b600082821015611adb57611adb611ae0565b500390565b634e487b7160e01b600052601160045260246000fdfea26469706673582212206caceb9d2e8916409b32d3e1ab035ff93ccc623ebc049b87303e73d633f85b9264736f6c63430008000033",
  "linkReferences": {},
  "deployedLinkReferences": {}
}